:100000000C9472000C94F1000C9493000C949300E7
:100010000C9493000C9493000C9493000C94930014
:100020000C9493000C9493000C9493000C94930004
:100030000C9493000C9493000C9493000C949300F4
:100040000C9493000C9493000C9493000C949300E4
:100050000C9493000C9493000C9493000C94F60170
:100060000C9493000C9465070C9493000C949300EB
:100070000C9493000C943B010C9493000C9493000B
:100080000C9493000C9493000C9493000C949300A4
:100090000C9493000C9493000C9493000C94930094
:1000A0000C9493000C9493000C9493000C94930084
:1000B0000C9493000C9493000C9493000C94930074
:1000C0000C9493000C9493000C9493000C94930064
:1000D0000C9493000C9493000C9493000C94930054
:1000E0000C94930011241FBECFEFD1E2DEBFCDBF31
:1000F00000E00CBF12E0A0E0B2E0E6E0F1E100E0D9
:100100000BBF02C007900D92A637B107D9F712E0D6
:10011000A6E7B2E001C01D92AD3CB107E1F70E9435
:10012000CA050C9481080C94000085B5846085BDD7
:10013000EEE6F0E0808181608083EFE6F0E0808190
:100140008160808316BCE0E8F0E08081826A808371
:10015000E1E8F0E080818A6180838FE097E290930C
:100160008700809386008AB180638AB91092CB029F
:10017000089580E480937C008FE880937A007894DF
:10018000A895089590E020E030E004C0F90131978F
:10019000F1F79F5F9817D0F3089590917C008770D6
:1001A000892B80937C0080917A00806480937A0010
:1001B00080917A0084FFFCCF80917A0080618093E7
:1001C0007A002091780030917900C90108951F923A
:1001D0000F920FB60F9211240F900FBE0F901F9029
:1001E00018951F920F920FB60F9211240F900FBE09
:1001F0000F901F901895CF93DF93EC0103C00E94DE
:10020000E707219688818823D1F7DF91CF91089560
:100210000F931F93082F10E005C08EE692E00E9416
:10022000FB001F5F1017C8F31F910F9108951F93D4
:10023000182F8EEF0E94E707812F0E94E7071F917A
:1002400008958BE890E00E941701089586E890E0F9
:100250000E94170108950F931F93182F062F89E707
:100260000E941701812F0E94E707802F0E94E70755
:100270001F910F9108951F920F920FB60F920BB618
:100280000F9211242F933F934F935F936F937F931C
:100290008F939F93AF93BF93EF93FF932091780039
:1002A000309179003093840220938302809178000A
:1002B000909179008A569F4F90938900809388008F
:1002C0004091760250917702CA01821B930B97FFEF
:1002D00003C0909581959F4F039744F124173507EC
:1002E00018F04217530710F53093770220937602E7
:1002F00085E068E70E942B018AE00E94080185E002
:1003000068E70E942B018091830290918402909370
:100310008202809381026FE772E04AE050E00E941F
:100320003C088FE792E00E94FB0004C03093770204
:1003300020937602FF91EF91BF91AF919F918F91A2
:100340007F916F915F914F913F912F910F900BBED5
:100350000F900FBE0F901F9018950F931F93182F9B
:10036000062F87E40E941701812F0E94E707802F44
:100370000E94E7071F910F9108951F93182F81E3A3
:1003800090E00E941701812F0E94E7071F910895B6
:100390001F93182F83E690E00E941701812F0E947F
:1003A000E7071F91089582E490E00E94170181E021
:1003B00090E00E94BD018091740290E00E94C8010B
:1003C00088E590E00E94170108950F931F93182F5E
:1003D000062F80E790E00E941701812F0E94E70717
:1003E000802F0E94E7071F910F9108951F920F928F
:1003F0000FB60F920BB60F9211242F933F934F938A
:100400005F936F937F938F939F93AF93BF93EF937C
:10041000FF938091CB028F5F8093CB028091CB02C0
:10042000843109F05DC080917A00806480937A0005
:1004300086B1809388028E3F19F482EC90E004C06C
:100440008D3F39F48EE294E0909389008093880088
:1004500045C08B3F09F50E94BE0780937A028093C6
:10046000800288E40E94170184E20E94080188E467
:100470000E94170186E392E00E94FB0080918002B7
:1004800090E06CEC72E04AE050E00E943C088CEC9A
:1004900092E00E94FB0022C0873F51F460917902F4
:1004A0006F5F60937902809178020E94E50116C027
:1004B0008F3E31F482E40E9417010E94D3010EC0E6
:1004C0008F3D11F486E403C08F3B21F488E50E9440
:1004D000170104C08F3711F40E9421011092CB0242
:1004E000FF91EF91BF91AF919F918F917F916F910C
:1004F0005F914F913F912F910F900BBE0F900FBEC8
:100500000F901F901895EF92FF920F931F93182F43
:10051000062FF42EE22E8CE690E00E941701812F28
:100520000E94E707802F0E94E7078F2D0E94E707B0
:100530008E2D0E94E7071F910F91FF90EF90089575
:100540000F931F93182F062F85E690E00E94170146
:10055000812F0E94E707802F0E94E7071F910F91CC
:100560000895DF92EF92FF920F931F93182FF62EAC
:10057000E42ED22E82E790E00E941701812F0E9484
:10058000E7078F2D0E94E7078E2D0E94E7078D2D2C
:100590000E94E707802F0E94E70780E090E0019724
:1005A000F1F71F910F91FF90EF90DF9008952F9238
:1005B0003F924F925F926F927F928F929F92AF92F3
:1005C000BF92CF92DF92EF92FF920F931F93CF9340
:1005D000DF93E82EFF2437010894611C711C262E3E
:1005E000332441010894811C911C442E552452014E
:1005F0000894A108B108C22FD0E06E010894C10888
:10060000D1088FEF90E0B301A401950186010E940B
:10061000B10282E090E0E80EF91E280E391E8EEF3E
:100620009FEF480E591E22978FEF90E0B701A1016E
:1006300092018E010E94B10280E090E0FC013197AE
:10064000F1F7FC013197F1F7FC013197F1F70197D0
:10065000F1F780E090E0B301A401950186010E94CA
:10066000B10280E090E0B701A10192018E010E94E9
:10067000B102DF91CF911F910F91FF90EF90DF902A
:10068000CF90BF90AF909F908F907F906F905F9032
:100690004F903F902F900895DF92EF92FF920F932B
:1006A0001F93182FF62EE42ED22E88E790E00E949A
:1006B0001701812F0E94E7078F2D0E94E7078E2DDB
:1006C0000E94E7078D2D0E94E707802F0E94E70711
:1006D00080E090E00197F1F71F910F91FF90EF906C
:1006E000DF900895BF92CF92DF92EF92FF920F9327
:1006F0001F93182FF62ED42EB22E84E890E00E947D
:100700001701812F0E94E7078F2D0E94E7078D2D8B
:100710000E94E7078B2D0E94E707802F0E94E707C2
:100720008E2D0E94E7078C2D0E94E70780E090E065
:100730000197F1F71F910F91FF90EF90DF90CF900D
:10074000BF9008951F93182F87E890E00E9417012B
:10075000812F0E94E7071F910895CF92DF92EF92B9
:10076000FF920F931F9380E090E00E94A2030E94EB
:10077000260181E090E061E470E046E250E023E190
:1007800030E003E110E0B1E0EB2EF12CAAE0CA2E3C
:10079000D12C0E94720384E090E061E470E042E4B6
:1007A00050E023E130E0F4E0EF2EF12CE8E2CE2E31
:1007B000D12C0E94720387E090E061E470E04EE586
:1007C00050E023E130E0B7E0EB2EF12CA6E4CA2E96
:1007D000D12C0E94720382E090E06DE570E046E269
:1007E00050E023E130E0F2E0EF2EF12CE4E1CE2EF8
:1007F000D12C0E94720385E090E06DE570E042E448
:1008000050E023E130E0B5E0EB2EF12CA2E3CA2E5C
:10081000D12C0E94720388E090E06DE570E04EE517
:1008200050E023E130E0F8E0EF2EF12CE0E5CE2EB1
:10083000D12C0E94720383E090E069E770E046E209
:1008400050E023E130E0B3E0EB2EF12CAEE1CA2E14
:10085000D12C0E94720386E090E069E770E042E4E8
:1008600050E023E130E0F6E0EF2EF12CECE3CE2E69
:10087000D12C0E94720389E090E069E770E04EE5B8
:1008800050E023E130E0B9E0EB2EF12CAAE5CA2ECE
:10089000D12C0E9472038CE090E068E970E046E29F
:1008A00050E023E130E0FDE0EF2EF12CEEE0CE2E23
:1008B000D12C0E9472038BE090E068E970E042E482
:1008C00050E023E130E0BBE0EB2EF12CACE0CA2E8F
:1008D000D12C0E9472038AE090E068E970E04EE556
:1008E00050E023E130E0F5E6EF2EF12CE4E6CE2EE9
:1008F000D12C0E9472031F910F91FF90EF90DF9017
:10090000CF9008950F931F938FEF90E061E470E014
:1009100045E050E02EEA30E00EE110E00E94B10226
:1009200086E490E06AE070E00E942B0181E40E947E
:10093000E7078AE50E94E7078AE30E94E70786E067
:1009400090E00E94080182E50E94E70784E40E948B
:10095000E7078AE30E94E70786E490E064E170E03D
:100960000E942B0185E40E94E7078CE40E94E707C0
:100970008AE30E94E70785E090E00E94080183E493
:100980000E94E70788E40E94E70787E40E94E707E0
:100990008AE30E94E7078FEF90E061E470E043E2B2
:1009A00050E02AE530E00CE310E00E94B1028FEF46
:1009B00090E061E470E04FE350E02AE530E008E5C4
:1009C00010E00E94B1028FEF90E061E470E04BE52F
:1009D00050E02AE530E004E710E00E94B1028FEF1A
:1009E00090E06DE570E043E250E026E730E00CE394
:1009F00010E00E94B1028FEF90E06DE570E04FE3F0
:100A000050E026E730E008E510E00E94B1028FEFE9
:100A100090E06DE570E04BE550E026E730E004E75C
:100A200010E00E94B1028FEF90E069E770E043E2CE
:100A300050E022E930E00CE310E00E94B1028FEFB9
:100A400090E069E770E04FE350E022E930E008E52C
:100A500010E00E94B1028FEF90E069E770E04BE593
:100A600050E022E930E004E710E00E94B1028FEF8D
:100A700090E065E970E043E250E02EEA30E00CE3FC
:100A800010E00E94B1028FEF90E065E970E04FE363
:100A900050E02EEA30E008E510E00E94B1028FEF4E
:100AA00090E065E970E04BE550E02EEA30E004E7C5
:100AB00010E00E94B1028BE490E06DE270E00E94D1
:100AC0002B0181E30E94E7078BE490E069E470E08A
:100AD0000E942B0184E30E94E7078BE490E065E627
:100AE00070E00E942B0187E30E94E70787E690E011
:100AF0006DE270E00E942B0182E30E94E70787E627
:100B000090E069E470E00E942B0185E30E94E70712
:100B100087E690E065E670E00E942B0188E30E9482
:100B2000E70783E890E06DE270E00E942B0183E329
:100B30000E94E70783E890E069E470E00E942B01DF
:100B400086E30E94E70783E890E065E670E00E9494
:100B50002B0189E30E94E70781EA90E06DE270E0F3
:100B60000E942B0183E40E94E70781EA90E069E498
:100B700070E00E942B018CE30E94E70781EA90E07D
:100B800065E670E00E942B0180E30E94E7071F9159
:100B90000F9108950F931F930E94950080E4809316
:100BA0007C008FE880937A007894A8958CE090E0A0
:100BB0000E9452078FEF88B90E94D30188E490E029
:100BC0000E94170185E090E00E94080188E490E00F
:100BD0000E9417010E9482040E94AD038AE580935F
:100BE0007E028AE08093CA0280917A0080648093BA
:100BF0007A001AE50AE00E94BE0780937B02809388
:100C000080028D30A9F48AE590E06AE070E00E94ED
:100C10002B0186E090E00E94080110937E02009371
:100C2000CA0285E990E063E270E04EEA50E034C029
:100C30008B30C1F480917E028B35E8F2875080932F
:100C40007E026091CA0290E070E00E942B0181E078
:100C500090E00E94080185E990E06FE370E04EEAC1
:100C600050E0A8C08130D9F480917E02843818F613
:100C70006091CA0290E070E00E942B0181E30E9423
:100C8000E70780917E02895F80937E0281E490E095
:100C900063E270E04AE550E02CE330E000C18230CE
:100CA000D1F480917E02843808F0A5CF6091CA0209
:100CB00090E070E00E942B0182E30E94E7078091A0
:100CC0007E02895F80937E028DE590E063E270E0B2
:100CD00046E750E0E1CF8330D1F480917E02843842
:100CE00008F089CF6091CA0290E070E00E942B0169
:100CF00083E30E94E70780917E02895F80937E02F2
:100D000089E790E063E270E042E950E0C5CF8430CB
:100D1000D1F480917E02843808F06DCF6091CA02D0
:100D200090E070E00E942B0184E30E94E70780912D
:100D30007E02895F80937E0281E490E06FE370E041
:100D40004AE550E037C08530D1F480917E02843886
:100D500008F051CF6091CA0290E070E00E942B0130
:100D600085E30E94E70780917E02895F80937E027F
:100D70008DE590E06FE370E046E750E01BC0863001
:100D8000E1F480917E02843808F035CF6091CA0288
:100D900090E070E00E942B0186E30E94E7078091BB
:100DA0007E02895F80937E0289E790E06FE370E0C6
:100DB00042E950E028E530E072C08730D1F48091FC
:100DC0007E02843808F017CF6091CA0290E070E08C
:100DD0000E942B0187E30E94E70780917E02895FD2
:100DE00080937E0281E490E06BE570E04AE550E09C
:100DF00054C08830D1F480917E02843808F0FBCE54
:100E00006091CA0290E070E00E942B0188E30E948A
:100E1000E70780917E02895F80937E028DE590E0F6
:100E20006BE570E046E750E038C08930D1F480913E
:100E30007E02843808F0DFCE6091CA0290E070E054
:100E40000E942B0189E30E94E70780917E02895F5F
:100E500080937E0289E790E06BE570E042E950E024
:100E60001CC0853609F0C7CE80917E02843808F018
:100E7000C2CE6091CA0290E070E00E942B0180E334
:100E80000E94E70780917E02895F80937E0285E958
:100E900090E06BE570E04EEA50E024E730E00E941D
:100EA000D702A9CE2FEF20938902209189022093A7
:100EB00087029093C5008093C40086E08093C200AF
:100EC00088E98093C100789408951F920F920FB61D
:100ED0000F920BB60F9211242F933F934F938F9342
:100EE0009F93EF93FF934091C600809189028F33C7
:100EF00021F480918702882371F0809189022091EA
:100F00008702992787FD90950196332727FD309515
:100F10008217930759F4809187028F5F809387022D
:100F200080918702803411F41092870280918902A7
:100F30008F3319F41092890205C0809189028F5F66
:100F400080938902E0918902FF27E7FDF095E6573B
:100F5000FD4F4083809187028F3F11F410928702EA
:100F6000FF91EF919F918F914F913F912F910F9012
:100F70000BBE0F900FBE0F901F90189580918702A7
:100F80008F3F11F4E0E021C0E0918702FF27E7FDE9
:100F9000F095E657FD4FE08190918702809189029C
:100FA000981741F48FEF8093890280918902809392
:100FB00087020BC0809187028F5F809387028091A8
:100FC0008702803411F4109287028E2F0895382FF3
:100FD0008091C0002091C60090E002C09595879551
:100FE0002A95E2F780FFF4CF3093C60008958091F0
:100FF00087028F3F11F490E01AC090918702809190
:101000008902981734F490918902809187029F5F3A
:101010000DC09091870280918902891714F091E0A8
:1010200006C090918902809187029F5B981B892F4F
:101030000895FC010FC08091C0002091C60090E08F
:1010400002C0959587952A95E2F780FFF4CF3093FB
:10105000C60031963081332371F78091C000209112
:10106000C60090E002C0959587952A95E2F780FF2B
:10107000F4CF1092C6000895FB019F01E89442301E
:10108000C4F04532B4F44A3029F497FB1EF490952D
:1010900081959F4F642F77270E946D08805D8A336A
:1010A0000CF0895D8193CB010097A1F716F45DE206
:1010B00051931082C9010C945D08DC01FC01672F7B
:1010C00071917723E1F7329704C07C916D9370831F
:1010D0006291AE17BF07C8F30895AA1BBB1B51E16D
:1010E00007C0AA1FBB1FA617B70710F0A61BB70B98
:1010F000881F991F5A95A9F780959095BC01CD013D
:061100000895F894FFCFF2
:1011060057756C662056312E30004772656720424F
:1011160079726E65202D2D2D3E31323334353637BA
:1011260038393031323334353637383930200044A7
:101136004356203D20005061636B6574203D2000BE
:10114600427574746F6E20446F776E203D200042A6
:101156007574746F6E205570203D20005363726560
:10116600656E20546F7563686564203D200020001D
:06117600454C3A00320076
:00000001FF
