S0160000526574726F6C6974547856322E312E7372656306
S11300000EC028C0D5C05DC125C16FC123C03CC08E
S11300106FC061C10BC114C11DC01CC01BC0112421
S11300201FBECFE5D2E0DEBFCDBF10E0A0E6B0E05A
S1130030E4EDF3E002C005900D92A236B107D9F7C2
S113004010E0A2E6B0E001C01D92AA36B107E1F7C4
S11300507ED0BEC1D5CFE6E2F0E080818083E3E2CA
S1130060F0E0808180648083E7E2F0E08081836057
S11300708083E8E2F0E080818B648083E4E3F0E055
S113008080818860808308951F920F920FB60F922B
S113009011242F933F934F935F938F939F93EF93E9
S11300A0FF93E8E3F0E080818061808380818B7F2F
S11300B0808320E23EE449E150E0CA010197F1F770
S11300C021503040D1F7E8E3F0E080818F7E8083D7
S11300D0808184608083FF91EF919F918F915F91E4
S11300E04F913F912F910F900FBE0F901F90189535
S11300F01F920F920FB60F9211240F900FBE0F9004
S11301001F90189527D02CD034D0E8E3F0E08081FC
S11301108D7F808380818B7F808380818F7E8083AD
S113012028E93AE349E150E0CA010197F1F7215087
S11301303040D1F7E8E3F0E0808182608083808101
S11301408460808380818F7E808385DF0895DADFF9
S11301507894FFCFE7E3F0E08081826080830895A4
S1130160E7E3F0E080818460808380818061808324
S11301700895E7E3F0E080818E7F8083EBE5F0E093
S1130180808180628083E5E3F0E080818160808308
S11301900895019719F020E030E007C086B390E09D
S11301A0809590959C0121703070822F932F089533
S11301B01F920F920FB60F9211242F933F934F93D8
S11301C05F936F937F938F939F93AF93BF93EF93BB
S11301D0FF9381E090E0DDDF892B79F0E8E3F0E044
S11301E080818D7F808380818B7F8083E7E3F0E053
S11301F0808190E18927808308C0E8E3F0E0808172
S113020082608083808184608083FF91EF91BF91BD
S1130210AF919F918F917F916F915F914F913F919A
S11302202F910F900FBE0F901F9018951F920F9251
S11302300FB60F9211240F900FBE0F901F901895B8
S11302401F920F920FB60F9211240F900FBE0F90B2
S11302501F9018951F920F920FB60F9211248F932F
S11302609F9380EC8FBD809164009091650001960E
S11302709093650080936400809164009091650080
S11302800197C1F410926500109264008091680097
S11302909091690001969093690080936800809121
S11302A06800909169008C3D910521F410926900D9
S11302B0109268009F918F910F900FBE0F901F9026
S11302C018951F920F920FB60F9211240F900FBE24
S11302D00F901F9018951F920F920FB60F92112432
S11302E00F900FBE0F901F9018951F920F920FB68C
S11302F00F9211242F933F934F935F936F937F93A8
S11303008F939F93AF93BF93EF93FF9383E882BF41
S113031080916200909163000196909363008093B2
S113032062008091620090916300019761F51092E0
S113033063001092620080916600909167000196BC
S113034090936700809366008091660090916700A7
S1130350809166009091670068EE73E025D0892B48
S113036091F480916000882371F075DEE8E3F0E099
S113037080818260808380818460808380818F7E9D
S1130380808310926000FF91EF91BF91AF919F9194
S11303908F917F916F915F914F913F912F910F902A
S11303A00FBE0F901F901895AA1BBB1B51E107C0ED
S11303B0AA1FBB1FA617B70710F0A61BB70B881FF1
S11303C0991F5A95A9F780959095BC01CD01089580
S10703D0F894FFCFCB
S10503D4010022
S9030000FC
