S0160000526574726F6C6974547856322E312E7372656306
S11300000EC028C027C011C1D7C023C123C03CC023
S113001050C015C1BDC0C6C01DC01CC01BC011242A
S11300201FBECFE5D2E0DEBFCDBF10E0A0E6B0E05A
S1130030E0E4F3E002C005900D92A036B107D9F7D1
S113004010E0A0E6B0E001C01D92A836B107E1F7C8
S11300505AD074C1D5CFE6E2F0E080818083E3E238
S1130060F0E0808180648083E7E2F0E08081836057
S11300708083E8E2F0E080818B648083E4E3F0E055
S113008080818860808308951F920F920FB60F922B
S113009011248F93EF93FF93E8E3F0E08081846071
S11300A08083FF91EF918F910F900FBE0F901F905F
S11300B018951F920F920FB60F9211240F900FBE36
S11300C00F901F9018950F931F93CF93DF931ED01B
S11300D026D0E8E3F0E080818B7F808348D0BBDFCB
S11300E0C0E0D0E004E214EF81E090E01ED0C8014B
S11300F00197F1F72196C430D105B1F7DF91CF9183
S11301001F910F910895DFDF7894FFCFE7E3F0E0CC
S11301108081826080838081846080830895E7E3A6
S1130120F0E080818E7F808308958130910539F4D9
S1130130E7E3F0E0808192E08927808308950297C5
S113014031F4E7E3F0E0808194E089278083089527
S1130150019719F020E030E007C086B390E0809565
S113016090959C0121703070822F932F0895EAE4BA
S1130170F0E080818083E3E5F0E080818260808329
S1130180E9E5F0E080818260808383E882BF08959E
S11301901F920F920FB60F9211240F900FBE0F9063
S11301A01F9018951F920F920FB60F9211240F9063
S11301B00FBE0F901F9018951F920F920FB60F92BB
S11301C011242F938F939F9380EC8FBD80916200B5
S11301D090916300019690936300809362008091F4
S11301E06200909163000197C1F410926300109231
S11301F06200809166009091670001969093670079
S11302008093660080916600909167008C5D9540B4
S113021021F410926700109266009F918F912F91A4
S11302200F900FBE0F901F9018951F920F920FB64C
S11302300F9211240F900FBE0F901F9018951F92CC
S11302400F920FB60F9211240F900FBE0F901F90B4
S113025018951F920F920FB60F9211242F933F936C
S11302604F935F936F937F938F939F93AF93BF93BA
S1130270EF93FF9383E882BF8091600090916100C7
S1130280019690936100809360008091600090914A
S11302906100019771F510926100109260008091E5
S11302A064009091650001969093650080936400CA
S11302B08091640090916500809164009091650044
S11302C064E670E027D0892BA1F481E090E040DF60
S11302D0892B51F01092650010926400E8E3F0E07D
S11302E080818D7F808305C0E8E3F0E080818260B7
S11302F08083FF91EF91BF91AF919F918F917F91F7
S11303006F915F914F913F912F910F900FBE0F907E
S11303101F901895AA1BBB1B51E107C0AA1FBB1F46
S1130320A617B70710F0A61BB70B881F991F5A957D
S1130330A9F780959095BC01CD010895F894FFCF5D
S9030000FC
