S0160000526574726F6C6974547856322E312E7372656306
S11300000EC028C027C02EC1F4C040C123C055C0B3
S11300105EC032C1DAC0E3C01DC01CC01BC01124C5
S11300201FBECFE5D2E0DEBFCDBF10E0A0E6B0E05A
S1130030E8ECF3E002C005900D92A036B107D9F7C1
S113004010E0A0E6B0E001C01D92AA36B107E1F7C6
S113005077D0B8C1D5CFE7E2F0E08081836A8083AE
S1130060E6E2F0E08081816C8083E3E2F0E080816D
S11300708083E4E3F0E0808180830895E7E2F0E0A8
S113008090818295880F880F807C9873892B808358
S11300908081682B6083E6E2F0E080818064808365
S11300A084EC99E00197F1F794B185B1382F20E001
S11300B0290F311D822F932F08951F920F920FB68F
S11300C00F9211240F900FBE0F901F9018951F923E
S11300D00F920FB60F9211240F900FBE0F901F9026
S11300E018950F931F932FD037D05ED0B4DF81E0E3
S11300F090E038D082E090E035D004E214EFC801FB
S11301000197F1F781E090E02DD082E090E02AD0D1
S1130110C8010197F1F781E090E024D082E090E0FB
S113012021D0C8010197F1F781E090E01BD082E073
S113013090E018D0C8010197F1F71F910F9108952D
S1130140D0DF7894FFCFE7E3F0E0808182608083A2
S11301508081846080830895E7E3F0E080818E7F6E
S1130160808308958130910539F4E7E3F0E08081DC
S113017092E0892780830895029731F4E7E3F0E061
S1130180808194E0892780830895019719F020E005
S113019030E007C086B390E0809590959C01217073
S11301A03070822F932F0895EAE4F0E080818083F9
S11301B0E3E5F0E0808182608083E9E5F0E080811E
S11301C08260808383E882BF08951F920F920FB6E6
S11301D00F9211240F900FBE0F901F9018951F922D
S11301E00F920FB60F9211240F900FBE0F901F9015
S11301F018951F920F920FB60F9211242F938F937D
S11302009F9380EC8FBD8091620090916300019672
S113021090936300809362008091620090916300E8
S11302200197C1F4109263001092620080916600FD
S11302309091670001969093670080936600809187
S11302406600909167008C5D954021F410926700E0
S1130250109266009F918F912F910F900FBE0F9077
S11302601F9018951F920F920FB60F9211240F90A2
S11302700FBE0F901F9018951F920F920FB60F92FA
S113028011240F900FBE0F901F9018951F920F927C
S11302900FB60F9211242F933F934F935F936F9355
S11302A07F938F939F93AF93BF93EF93FF9383E8D1
S11302B082BF8091600090916100019690936100EB
S11302C0809360008091600090916100019709F033
S11302D054C010926100109260008091640090916B
S11302E0650001969093650080936400809164009A
S11302F09091650062E370E051D0892B09F510926A
S1130300650010926400109269001092680082E007
S113031063E0B4DE90936900809368008091680084
S1130320909169008F59924030F4E8E3F0E08081C5
S11303308B7F808305C0E8E3F0E080818460808364
S1130340809164009091650064E670E027D0892B69
S1130350A1F481E090E019DF892B51F0109265003F
S113036010926400E8E3F0E080818D7F808305C013
S1130370E8E3F0E0808182608083FF91EF91BF9198
S1130380AF919F918F917F916F915F914F913F9129
S11303902F910F900FBE0F901F901895AA1BBB1B97
S11303A051E107C0AA1FBB1FA617B70710F0A61B71
S11303B0B70B881F991F5A95A9F780959095BC0192
S10B03C0CD010895F894FFCF6C
S9030000FC
