S01000004E524632345F54782E737265639D
S11300000EC01DC01CC01BC01AC019C018C017C028
S113001016C015C014C013C012C011C010C01124E2
S11300201FBECFE5D2E0DEBFCDBF20E0A0E6B0E04A
S113003001C01D92A038B207E1F7E9D0F7C0E0CFC4
S113004087B38E6187BBB898C09A8DB18A618DB928
S1130050C49AC39808958FB9769A769903C0689A1A
S1130060769BFDCF8FB10895BD9A0895CF92DF920C
S1130070EF92FF920F931F93CF93DF93D82EC62E48
S11300807A01022F81E0D81202C080E2C80E8AE110
S11300908A95F1F700C0C4988AE18A95F1F700C007
S11300A08C2DD9DF8AE18A95F1F700C010E0101693
S11300B01106FCF4C0E0D0E0D1100EC080EAC816EE
S11300C059F08FEFC8DFFE01E05AFF4F80838AE1C9
S11300D08A95F1F700C009C0F701EC0FFD1F80817C
S11300E0BADF8AE18A95F1F700C02196C017D107DB
S11300F01CF3C49A80E690E0DF91CF911F910F9199
S1130100FF90EF90DF90CF9008951F93CF93DF93EC
S113011000D000D01F92CDB7DEB72FEF80E792E07A
S1130120215080409040E1F700C0000011E01983A5
S113013021E0AE014F5F5F4F61E081E097DF8FE226
S1130140898321E0AE014F5F5F4F64E081E08EDF81
S1130150198321E0AE014F5F5F4F62E081E086DFEB
S113016083E0898321E0AE014F5F5F4F63E081E06C
S11301707DDF198321E0AE014F5F5F4F65E081E0D1
S113018075DF87E0898321E0AE014F5F5F4F66E052
S113019081E06CDF12E119831A831B831C831D83A6
S11301A025E0AE014F5F5F4F6AE081E05FDF1983B6
S11301B01A831B831C831D8325E0AE014F5F5F4FB1
S11301C060E181E053DF85E0898321E0AE014F5F88
S11301D05F4F61E181E04ADF8EE1898321E0AE0176
S11301E04F5F5F4F60E081E041DF2FEF80E792E0F7
S11301F0215080409040E1F700C000000F900F9024
S11302000F900F900F90DF91CF911F91089518DFF9
S11302102BDF7BDFC59A2FEF89E698E121508040E0
S11302209040E1F700C00000C598FFCFF894FFCFDD
S9030000FC
