S0140000417474696E7938355F5053582E73726563D0
S11300000EC028C027C026C025C024C023C022C0DB
S113001021C020C01FC01EC01DC01CC01BC0112495
S11300201FBECFE5D2E0DEBFCDBF10E0A0E6B0E05A
S1130030ECEBF5E002C005900D92A03EB107D9F7B4
S113004021E0A0EEB0E001C01D92AB30B207E1F7B1
S113005010D0B2C2D5CFCF93DF93EC01888188232F
S113006029F021968DD289918111FCCFDF91CF9116
S11300700895C09AB89A6894AA24A2F80F2EF8E3B7
S1130080CF2ED12CF02D0F2EF3E0EF2EF02D08E320
S113009010E022E048E350E061E088E390E095D18D
S11300A08FE19EE40197F1F700C00000789487E7A0
S11300B090E0D1DF77D18FE19EE40197F1F700C0A2
S11300C0000080E090E44FD2882319F08DE790E09F
S11300D0C2DF80E090E247D2882319F087E890E0FD
S11300E0BADF80E090E83FD2882319F08FE890E0EF
S11300F0B2DF80E090E137D2882319F087E990E0FD
S1130100AADF80E098E02FD2882319F081EA90E0FA
S1130110A2DF80E092E027D2882319F085EA90E0FC
S11301209ADF80E094E01FD2882319F089EA90E0F6
S113013092DF80E091E017D2882319F08DEA90E0F5
S11301408ADF88E090E00FD2882319F081EB90E0F9
S113015082DF81E090E007D2882319F088EB90E0F9
S11301607ADF80E190E0FFD1882319F080EC90E001
S113017072DF80E490E0F7D1882319F084EC90E0FA
S11301806ADF80E890E0EFD1882319F08AEC90E0F0
S113019062DF80E290E0E7D1882319F080ED90E0FF
S11301A05ADF82E090E0DFD1882319F087ED90E0F8
S11301B052DF84E090E0D7D1882319F08BED90E0F2
S11301C04ADF9FEF21EE84E0915020408040E1F728
S11301D000C000006FCF1F93CF93DF9340E050E047
S11301E010E0E1E0F0E0A82FB0E0C0910701D09169
S11301F008012881BF010090F80002C0660F771F34
S11302000A94E2F7962F909592239883642FCD0158
S1130210042E02C0959587950A94E2F780FF10C0DA
S1130220C0910501D09106012881CF010090F7000B
S113023002C0880F991F0A94E2F7822B888311C0A9
S1130240C0910501D09106012881CF010090F700EB
S113025002C0880F991F0A94E2F7982F9095922371
S113026098838AE18A95F1F700C0C0910701D09183
S1130270080198819F010090F80002C0220F331FEB
S11302800A94E2F7292B2883C0910101D09102013D
S1130290288130E00090F50002C0359527950A9436
S11302A0E2F720FF07C0CF0102C0880F991F6A95AB
S11302B0E2F7182B8AE18A95F1F700C04F5F5F4F90
S11302C04830510509F091CFE0910701F091080100
S11302D0208181E090E00090F80002C0880F991F0F
S11302E00A94E2F7822B8083812FDF91CF911F91B3
S11302F008950F931F93CF93DF93A0910301B091BF
S113030004015C9121E030E0F9010090F60002C0A4
S1130310EE0FFF1F0A94E2F74E2F409545234C93AE
S1130320E0910501F09106017081A9010090F700A8
S113033002C0440F551F0A94E2F7472B4083E09113
S11303400701F091080140810090F80002C0220FDB
S1130350331F0A94E2F7242B2083662371F0EC0107
S11303606150062F10E00F5F1F4F080F191F88817F
S113037032DF8993C017D107D1F7E0910301F091DF
S11303800401208181E090E00090F60002C0880F13
S1130390991F0A94E2F7822B8083DF91CF911F91FA
S11303A00F910895E0EEF0E081E0808382E48183A0
S11303B0E2EEF0E085EF90E01192E817F907E1F73B
S11303C065E180EE90E095DF08952F923F924F9281
S11303D05F926F927F928F929F92AF92CF92DF92B1
S11303E0EF920F931F93CF93DF93CDB7DEB7679749
S11303F00FB6F894DEBF0FBECDBF90930A01809371
S113040009015093080140930701109306010093DA
S11304100501D0920401C09203014C0131E0831A1A
S11304209108909200018092FF002A01A1E04A1AEB
S113043051085092FE004092FD003801B1E06B1A61
S113044071087092FC006092FB001601E1E02E1A24
S113045031083092FA002092F900FC013297F093AF
S11304600201E09301012093F800E092F700A092CA
S1130470F6006093F500D2013C91E1E0F0E06F01F9
S113048002C0CC0CDD1C2A95E2F7232F2C292C93D7
S1130490D1017C919F0102C0220F331FAA94E2F77D
S11304A0272B2C93D3017C919F0102C0220F331F71
S11304B0EA94E2F7372F322B3C93D4017C9102C0AB
S11304C0EE0FFF1F6A95E2F73E2F309537233C93DA
S11304D0DC013C91E32BEC93FA018081C82AC082B1
S11304E0D8018C91282B2C935DDF85E0E0E6F0E0C9
S11304F0DE01119601900D928A95E1F765E0CE0137
S11305000196F7DE89E0E5E6F0E0DE01169601905B
S11305100D928A95E1F769E0CE010696EADE89E05C
S1130520EEE6F0E0DE011F9601900D928A95E1F768
S113053069E0CE010F96DDDE67960FB6F894DEBF54
S11305400FBECDBFDF91CF911F910F91EF90DF9040
S1130550CF90AF909F908F907F906F905F904F90CF
S11305603F902F9008952091E3003091E40020956E
S113057030952823392381E0232B09F480E0089562
S11305802FB7F8949AE0E8B3EE7FE8BB00000000D0
S1130590000000000000EDECF0E03197F1F70000FE
S11305A0E8B380FDE16080FFEE7FE8BB08948795A7
S10F05B09A9589F72FBF0895F894FFCFA7
S11305BC0143000100014400010300000000014359
S11305CC00005A5A5A5A5A477265672000582042FA
S11305DC7574746F6E2000436972636C65200053EC
S11305EC71756172652000547269616E676C652067
S11305FC0052312000523220004C3120004C322069
S113060C005374617274200053656C65637420002C
S113061C55502000444F574E20004C454654200062
S113062C524947485420004C3320005233200000D8
S9030000FC
