:100000000EC015C014C013C012C011C010C00FC064
:100010000EC00DC00CC00BC00AC009C008C011241E
:100020001FBECFE5D2E0DEBFCDBF02D032C0E8CFE9
:10003000C09AB89A81E412D0C2E401C0C1E42FEFA3
:1000400084E39CE0215080409040E1F700C0000034
:100050008C2F04D0CF5FCB3588F7F1CF2FB7F89432
:100060009AE0E8B3EE7FE8BB00000000000000006B
:100070000000E5E6F0E03197F1F7E8B380FDE160DC
:1000800080FFEE7FE8BB089487959A9591F72FBF84
:060090000895F894FFCF73
:00000001FF
