S00E00004E65775761792E73726563BB
S113000012C019C018C017C016C015C014C013C040
S113001012C011C010C00FC00EC00DC00CC00BC068
S11300200AC009C008C011241FBECFE5D4E0DEBF5A
S1130030CDBF02D023C0E4CF86E880BDE7E3F0E083
S1130040808182608083E8E3F0E060E27EE448EC53
S113005050E08081826080839B01CA010197F1F79F
S113006021503040D1F780818D7F80839B01CA016C
S11300700197F1F721503040D1F7EBCFF894FFCF3F
S9030000FC
