:100000000C944F010C946C010C946C010C946C01D9
:100010000C946C010C946C010C946C010C94391CC4
:100020000C94131C0C94F71C0C94691D0C94851CE7
:100030000C945F1C0C941D1D0C94D11C0C94AB1CD7
:100040000C94431D0C946C010C94B71B0C946C0124
:100050000C94E21B0C946C010C946C010C946C01DC
:100060000C946C010C946C0188132500240023006F
:100070006A00016A00026A00046A00086A00106AE5
:1000800000206A00406A00802800270026008800BF
:100090000188000288000488000888001088002079
:1000A0008800402B002A002900A30001A30002A31E
:1000B0000004A30008A30010A30020A30040A30095
:1000C000809D01006E00024700350002440006BB1F
:1000D00000A101006E00044800350004440004B88B
:1000E00000B001016F000288003600028000067334
:1000F00000B401016F00048A003600048000047619
:1001000000C30102700002B300370002B00006799C
:1001100000C70102700004B400370004B00004B24C
:100120000092014600450007000233884400014464
:100130000002450008000001C1006E000135000109
:1001400000000000010000010000010000DB01A52B
:10015000018400810007FF02FFDF800001800002B0
:10016000810008810010E1006F0001360001860067
:100170006F00203600208100407000DB01B801B222
:1001800000B1000700023388B00001B00002B100E6
:1001900008000001010170000137000100000000AB
:1001A000010000010000010000E901700073007609
:1001B0000079007C007F00820085008E0091009411
:1001C0000097009A009D00A0000000A900AC00AFBD
:1001D00000B200B500B800BB00BE00060000000180
:1001E00000080040000001000408000000010008B1
:1001F00000200040008000000100040143000100D5
:10020000014D000001FFFFFFFF014300000000005F
:100210000000014400010300000000014F00FFFF47
:1002200003000000FFFF80808080000000000000CD
:1002300000000000000030313233343536373839B1
:1002400041424344454600890C590A5A0A5B0A7DDB
:100250000C240C2B0B7C0A730A0001FFFF0203FF26
:10026000FFFFFFFF05FFFFFF070001FFFF02035530
:10027000736572204572726F723A25640A00576581
:1002800062626F744C6962204572726F723A2564C3
:100290000A00BC157216B016471679165D161124A1
:1002A0001FBECFEFD4E0DEBFCDBF11E0A0E0B1E0D4
:1002B000E0E4FCE302C005900D92AA38B107D9F73B
:1002C00014E0AAE8B1E001C01D92A736B107E1F73A
:1002D0000E9464080C941E1E0C940000FC01808592
:1002E000833721F0893711F080E008958FEF08956A
:1002F000FC01228533852095309584A195A128277E
:100300003927C9010895FC01228533852095309550
:10031000C9010895FC018285938580959095862377
:100320009723892B11F480E008958FEF0895FC0145
:10033000828593858095909586239723892B09F450
:1003400055C08085893709F053C082E06030780756
:1003500009F43EC082E061307807B0F46034710582
:1003600089F16134710548F46031710509F442C0C6
:100370006032710509F03CC023C06038710521F17D
:1003800060507140A9F522C080E16030780731F1FA
:1003900080E16130780740F484E060307807D1F084
:1003A0006050784029F518C080E460307807D1F0BB
:1003B00080E860307807C1F060507042C9F410C026
:1003C00086E019C089E017C087E015C080E113C03E
:1003D00081E111C08EE00FC08FE00DC08AE00BC03C
:1003E0008BE009C08CE007C08DE005C080E0089577
:1003F0008FEF089588E0E80FF11D82850895CF9270
:10040000DF92EF92FF920F931F937C016A010E948B
:100410009701082FC701B6010E94970110E09801CB
:10042000281B3109C90162E070E00E94CE1DCB019A
:1004300080581F910F91FF90EF90DF90CF9008951B
:10044000FC01663039F460E270E040E850E00E9460
:10045000FF010895673039F460E470E040E150E056
:100460000E94FF010895683039F460E070E240E0D6
:1004700050E80E94FF010895693039F460E070E4AB
:1004800040E050E10E94FF010895E60FF11D8285D2
:1004900008951F93CF93DF93EC01162F0E94200243
:1004A000682F70E0163040F4FE01E10FF11D828DDF
:1004B0009B01281B310903C09B012058304088A1B3
:1004C000682F70E0621773072CF4C901861B970B25
:1004D000BC010DC088279927861B970B2817390761
:1004E0001CF060E070E009C0B901681B790B9FEF58
:1004F0006138790714F480E806C06038710514F09B
:100500006FE770E0862FDF91CF911F910895FC0176
:1005100084A195A186239723892B51F48285938505
:100520008095909586239723892B11F08FEF08955E
:1005300080E00895FC0124A135A126233723261746
:10054000370751F482859385809590952823392328
:10055000232B11F48FEF089580E00895FC0124A16E
:1005600035A1262337232617370751F48285938533
:100570008095909528233923232B11F08FEF089530
:1005800080E00895CF92DF92EF92FF920F931F9336
:10059000CF93DF93D82EC92E7B018A01C0E0D0E033
:1005A0000AC0F701EC0FFD1FE4918D2D9C2D6E2FDD
:1005B0000E94EF052196C017D10798F38D2D9C2D31
:1005C00060E00E9497046AE070E080E090E00E94A2
:1005D000DE14DF91CF911F910F91FF90EF90DF908C
:1005E000CF9008950F931F93CF93DF93EC01162FB5
:1005F000042F662311F44423D1F089A18823B9F490
:100600008FEF89A3CE016BEF71E045E050E00E94CF
:10061000C202CE0160E072E049E050E00E94C202F6
:10062000CE0169E072E049E050E00E94C2020BA3F3
:10063000112311F480E00CC0812F90E060E070E0A5
:100640004FEF50E020E430E00FEF10E00E94AB08E5
:100650008AA3DF91CF911F910F910895EF92FF929E
:100660000F931F93CF93DF93EC018A859B85809531
:1006700090959DA38CA3FC2EED2ECE0161E00E94EF
:10068000EF05CE0162E40E949F058887CE010E949B
:10069000EA0589878A3579F58885893711F402E179
:1006A00007C0833711F406E003C0813421F502E06E
:1006B00089A1882311F410E01AC060E08BA1811198
:1006C00061E08F2D9E2D0E949F058A878F2D9E2D84
:1006D0006AA10E949F058B8712E009C08F2D9E2D75
:1006E0000E94EA05FE01E10FF11D82871F5F1017CE
:1006F000A8F31FEF02C010E000E08F2D9E2D60E0F8
:100700000E9497040BC0A02FB0E0FD01EC5DFD4FEF
:10071000E491AC0FBD1F1A96EC930F5F023198F372
:10072000812FDF91CF911F910F91FF90EF9008954E
:100730001F93CF93DF93EC010E942E03882309F4CB
:1007400040C014E639C0CE016BEF71E045E050E0E7
:100750000E94C202CE0162E172E049E050E00E94D4
:10076000C202CE0169E072E049E050E00E94C2029C
:10077000CE010E942E03CE010E942E03888583376E
:10078000A9F4CE016BEF71E045E050E00E94C20297
:10079000CE016BE172E049E050E00E94C202CE015E
:1007A00069E072E049E050E00E94C202CE010E947E
:1007B0002E03CE010E942E038885893711F0115037
:1007C00011F68885833721F0893711F080E001C068
:1007D0008FEFDF91CF911F910895CF93DF93EC01BD
:1007E00068A30E9498038823A9F0CE0162E00E94CA
:1007F00020028C8FCE0163E00E9420028D8FCE01FB
:1008000064E00E9420028E8FCE0165E00E942002EB
:100810008F8F8FEFDF91CF910895CF93DF93EC010E
:10082000009769F08985882351F088819981029623
:10083000FC0125913491CE01F90109951986DF91CA
:10084000CF910895DC01009769F017966C93179784
:100850008D919C9111970896FC0125913491CD01C1
:10086000F90109950895DC01009769F018966C93D9
:1008700018978D919C9111970696FC0125913491C2
:10088000CD01F90109950895DC01009769F01696EC
:100890006C9316978D919C9111970496FC0125916C
:1008A0003491CD01F90109950895DF92EF92FF92FD
:1008B0000F931F93CF93DF93EC01D62E009779F11E
:1008C0008985882361F5E881F981E590F49000E05D
:1008D00010E018C0C801880F991F2A813B81280F9A
:1008E000391FF901A591B4911196DC93CE9314961A
:1008F0008D919C911597009719F06FEF0E94280930
:100900000F5F1F4F8C819D810817190718F31B86F5
:100910001A86CE016D2DF70109958FEF8987DF913A
:10092000CF911F910F91FF90EF90DF900895EF927C
:10093000FF920F931F93CF93DF938C01FC01C08133
:10094000D181209709F445C0E881F9817096E5903E
:10095000F490662341F18A859B85009719F060E049
:100960000E949704F80162818F81861719F0CE01E9
:100970000E942204F80163818885861719F0CE0150
:100980000E943304E114F10421F0C8016FEFF70174
:1009900009951B870A87F801848195810097E1F00A
:1009A0000E94880919C0FC0184819581009711F08B
:1009B0000E94AD098A859B858017910769F41B8683
:1009C0001A86E114F10441F0C80160E0F7010995CD
:1009D00003C082EE0E94520FDF91CF911F910F91C1
:1009E000FF90EF900895AF92BF92CF92DF92EF9277
:1009F000FF920F931F93CF93DF93EC01B62EA72E98
:100A00007A0141155105B1F10881198101151105CE
:100A100071F1F801828593858C179D0721F0CE0135
:100A20006FEF0E949704F80180819181FC013E964E
:100A3000259134912115310539F0CE016B2D7A2D98
:100A4000A701F901099516C0FC013A96C590D4900A
:100A50008B2D9A2D9C01E9016991C801F601099538
:100A60000894E108F108E114F104B1F703C082EE43
:100A70000E94520FDF91CF911F910F91FF90EF9045
:100A8000DF90CF90BF90AF9008958F929F92AF92DA
:100A9000BF92CF92DF92EF92FF920F931F93CF936B
:100AA000DF937C01962E872E6A014115510509F4CA
:100AB00039C0FC01008111810115110581F1F80196
:100AC000828593858E159F0521F0C7016FEF0E94E7
:100AD0009704F80180819181FC013C962591349125
:100AE0002115310539F0C701692D782DA601F901CD
:100AF000099518C0FC013A96A590B490892D982DBF
:100B00009C01E901C801F7016781F5010995899305
:100B10000894C108D108C114D104A1F703C082EE22
:100B20000E94520FDF91CF911F910F91FF90EF9094
:100B3000DF90CF90BF90AF909F908F9008951F93BC
:100B4000CF93DF93FC01162FC081D1812097A1F0B4
:100B50008A859B858E179F0721F0CF016FEF0E943A
:100B60009704888199810A96FC0125913491CE01E0
:100B7000612FF901099504C082EE0E94520F80E0B6
:100B8000DF91CF911F910895DF92EF92FF920F9323
:100B90001F937C01D62E672F0E949F05182F00E01F
:100BA000C7016D2D0E949F05282F30E0202B312B8F
:100BB000C9011F910F91FF90EF90DF900895FC0104
:100BC000878190E0782F6627682B792BCF010E94D0
:100BD000C4050895FC0167810E949F0508950E9445
:100BE0009F050895FF920F931F938C01F62E672F98
:100BF0000E949F05C8016F2D0E949F051F910F91B4
:100C0000FF900895DC0119968D919C911A97029698
:100C1000FC0125913491CD01F90109950895CF93F7
:100C2000DF93EC0188858E7F8887EE89FF89309776
:100C300021F0888D998D6FEF0995E985FA853896B1
:100C4000259134912115310519F0CE01F90109954D
:100C5000DF91CF910895CF93DF93EC018885816078
:100C60008887E985FA853A962591349121153105D1
:100C700019F0CE01F9010995EE89FF89309721F02D
:100C8000888D998D60E00995DF91CF910895DC0101
:100C900019968D919C911A97FC0125913491CD0163
:100CA000F90109950895DC011996ED91FC911A97C7
:100CB0003696259134919FB7789418968C91189711
:100CC00080FFFBCF9FBFCD01F90109950895DC019D
:100CD000ED91FC911197309759F02FB7F8948481DA
:100CE0009581892B11F080E001C08FEF2FBF08950F
:100CF0002FB7F8941B968D919C911C978F5F9F4FF7
:100D000011F080E001C08FEF2FBF0895FC018081BA
:100D10009181009719F00E942A0808952FB7F8943E
:100D20008FEF9FEF948783872FBF0895EF92FF92F5
:100D30000F931F93CF93DF93EC017A018B01F8940B
:100D40008D89882381F02D853E858F859889281788
:100D5000390721F0C90160E00E9401098F85988957
:100D60006FEF0E94010988858160888788858B7F65
:100D7000888788858D7F888789859A850496FC0178
:100D800025913491CE01B801A701F9010995789414
:100D9000DF91CF911F910F91FF90EF9008950F93E6
:100DA0001F93CF93DF93EC01062F8A819B81892BC0
:100DB00019F419C00E9433088A819B810E9422087D
:100DC0008823C1F71FB7F894888581FD04C0888502
:100DD000826088870DC08A819B81602F0E94DE0718
:100DE0000EC00E943308888580FFFBCF1FB7F894A0
:100DF000CE010E940F06CE01602F0E9402061FBF87
:100E0000802FDF91CF911F910F910895EF92FF9264
:100E10000F931F93CF93DF937C018B01EA0107C0EF
:100E2000F80161918F01C7010E94CF062197209799
:100E3000B9F7DF91CF911F910F91FF90EF90089537
:100E4000DF93CF930F92CDB7DEB7FC018081918104
:100E5000009771F0BE016F5F7F4F0E94B10788233A
:100E600019F44FEF5FEF0DC08981482F50E009C0A2
:100E70002FB7F894438554858FEF9FEF948783872E
:100E80002FBFCA010F90CF91DF910895EF92FF928B
:100E90001F93DF93CF930F92CDB7DEB77C01FC0198
:100EA000808581FF19C01FB7F894F7018281938173
:100EB000BE016F5F7F4F0E94B107882329F0C701F1
:100EC00069810E9402060DC0C7010E942B06F7012E
:100ED00080858D7F808705C01FB7F894C7010E9469
:100EE0002B061FBF0F90CF91DF911F91FF90EF90C6
:100EF0000895CF93DF93EC01262F8C819D81892B60
:100F000039F0EC81FD816E817F81822F099519C0B6
:100F100088819981009729F00E94DE07882389F44F
:100F20000AC08B859C858F5F9F4F29F4862F90E0A8
:100F30009C878B8706C088858460888785EF0E94A0
:100F4000520FDF91CF910895FC018FB7F894718310
:100F500060835383428315821482178216828FBF67
:100F60000895CF93DF93EC01DB012FB7F89400973E
:100F700001F18A819B81892BE1F08C819D81892BF4
:100F8000C1F0E881F9818E819F81E80FF91F80818E
:100F90008C938E819F816A817B8101960E94BA1D0C
:100FA0009F838E838C819D8101979D838C838FEF9E
:100FB00001C080E02FBFDF91CF9108951F93CF93A1
:100FC000DF93EC01462F1FB7F8942C813D816A8195
:100FD0007B812617370710F080E011C08E819F813A
:100FE000820F931F0E94BA1DE881F981E80FF91F53
:100FF00040838C819D8101969D838C838FEF1FBFE1
:10100000DF91CF911F910895FC014FB7F89400979D
:1010100019F420E030E006C022813381848195817B
:10102000281B390B4FBFC9010895FC018FB7F894F5
:10103000309719F420E030E002C0248135818FBF61
:10104000C90108950E940408892B11F080E00895D9
:101050008FEF0895FC01009729F08FB7F89415825F
:1010600014828FBF08958FB77894000000000000AD
:1010700000000000000000008FBF08959C01FC01EB
:10108000A591B4912E5F3F4FF90194918C91892BDA
:101090008C9308959C01FC01A591B4912E5F3F4F64
:1010A000F90194918C91892309F08FEF08959C01A7
:1010B000FC01A591B4912E5F3F4FF90194918C9161
:1010C000909589238C9308956F927F928F929F922F
:1010D000AF92BF92CF92DF92EF92FF920F931F9346
:1010E0000E9434190E9435190E94A1120E943619DB
:1010F0000E945D190E943C130E944B0F5B016C0122
:101100000E9437197B018C016624772443010E94D9
:101110003308E114F1040105110519F40AC00E9415
:101120003308C601B501A80197010E940F15882355
:10113000B1F30E944B0F5B016C010894611C711CA0
:10114000811C911CC401B301A60195010E94ED19F7
:101150007B018C01DCCF4F925F926F927F928F92D6
:101160009F92AF92BF92CF92DF92EF92FF920F9336
:101170001F932B015A0139017801E21AF30A00E0AA
:1011800010E09C01261B370B442737FD4095542F58
:10119000C801B7010E948F1DA418B508CC24B7FC64
:1011A000C094DC2CA60195010E94031E882499247A
:1011B000260D371D481D591DC9011F910F91FF9024
:1011C000EF90DF90CF90BF90AF909F908F907F90E7
:1011D0006F905F904F9008959C01009781F0FC0103
:1011E000859194910496FC01A591B4912E5F3F4F97
:1011F000F90194918C91892311F08FEF089580E08B
:101200000895CF93DF939C010097F9F0FC0145917D
:101210005491CA010296FC01A591B491FA01C591BD
:10122000D4912E5F3F4FF90194913FB7F8948C9180
:10123000292F209582238C93662319F08881892B8E
:1012400002C08881822388833FBFDF91CF910895B8
:10125000CF93DF939C010097F9F0FC0145915491E5
:10126000CA010296FC01C591D491FA01A591B491ED
:101270002E5F3F4FF90124913FB7F894662319F090
:101280008C91822B04C08C91922F909589238C9302
:101290008881822B88833FBFDF91CF9108959C0185
:1012A000009781F0FC01859194910296FC01A59133
:1012B000B4912E5F3F4FF90194918C91892311F0E5
:1012C0008FEF089580E00895CF93DF939C010097FE
:1012D000E1F0FC0185919491FC01A591B4910296F5
:1012E000FC01C591D4912E5F3F4FF9012491888173
:1012F000822341F09FB7F8948C9182278C939FBFF3
:10130000000003C087EF0E94520FDF91CF91089534
:10131000CF93DF939C010097E9F0FC0185919491B4
:10132000FC01A591B4910296FC01C591D4912E5F68
:101330003F4FF90124918881822349F09FB7F894A7
:101340008C91209582238C939FBF000003C087EF70
:101350000E94520FDF91CF910895CF93DF939C01AC
:101360000097E1F0FC0185919491FC01A591B49165
:101370000296FC01C591D4912E5F3F4FF901249153
:101380008881822341F09FB7F8948C91822B8C93B3
:101390009FBF000003C087EF0E94520FDF91CF91E3
:1013A0000895662319F00E94AD0908950E948809E6
:1013B00008951F93CF93DF93EC01162F88819981B5
:1013C0000097A9F03A8130FD05C020E0662309F4BA
:1013D00021E0122F31FD06C0612F0E9428098A8169
:1013E00082608A8388819981612F0E94D109DF916F
:1013F000CF911F91089508954FB7F894209100015F
:101400003091010190930101809300014FBFC90108
:1014100008951F93182F8A3031F4E0910001F09164
:1014200001018DE00995E0910001F0910101812F0A
:1014300009951F9108951F93CF93DF93182FEB0108
:1014400004C0812F0E94090A21972097D1F7DF91CC
:10145000CF911F910895CF93DF93EC01009721F472
:1014600006C021960E94090A88818823D1F7DF915E
:10147000CF910895CF93DF93EC01009719F407C043
:101480000E94090AFE01219684918823C9F7DF9101
:10149000CF9108958AE00E94090A0895E82FF0E0AC
:1014A000EF70F070EA5CFD4FE4918E2F0E94090A04
:1014B00008950895089508951F93FC01162F8085BF
:1014C00024853585882339F46078C9010E94D109C3
:1014D000812F880F06C06170C9010E94D109812F38
:1014E00086951F910895FC01662329F080819181E2
:1014F00067810E945C0A08959F92AF92BF92CF923B
:10150000DF92EF92FF920F931F93CF93DF935C01D3
:10151000FB018A01DC014D915C91DA0116968C91F8
:10152000169763E00E94AE1DE82EBF011C968D91B8
:101530009C911D97FC01A591B491FD01C591D49199
:101540000296FC01F490DA0150968D919C9151978E
:10155000FC01A591B491FD01A591B4910296FC0105
:10156000C490FA019780F1E09F22FA0180858823D8
:1015700059F15AC0FB01908120E030E0992019F028
:101580008C918C258C9397FF03C088818F2902C092
:1015900088818D218883992019F48C918C258C93D6
:1015A000EE2019F08E2D8A95F1F78C918C258C9375
:1015B0002F5F3F4F2830310511F0990FDFCF6F5F5C
:1015C0007F4F0150104002C0DF2CD094011511054F
:1015D00089F62FC0FB01908120E030E0992019F0BE
:1015E0008C918C258C9390FF03C088818F2902C039
:1015F00088818D218883992019F48C918C258C9376
:10160000EE2019F08E2D8A95F1F78C918C258C9314
:101610002F5F3F4F2830310511F09695DFCF6F5F78
:101620007F4F0150104002C0DF2CD09401151105EE
:1016300089F6CA01D50117966C910E945C0ADF9168
:10164000CF911F910F91FF90EF90DF90CF90BF90BF
:10165000AF909F9008953F924F925F926F927F92CA
:101660008F929F92AF92BF92CF92DF92EF92FF92B2
:101670000F931F93CF93DF93FC01DB014A01E080BE
:10168000F180E7018E8163E00E94AE1DB82E2D012E
:10169000C70167810E945C0A4E855F85FA018591CA
:1016A00094910496FC01659074904E5F5F4FFA012F
:1016B000349088899989FC0145915491FA01C5912A
:1016C000D4910296FC010491D7011796AC90B1E039
:1016D000AB22F7018085882309F443C085C010E060
:1016E000CC24DD24110FAA20C1F4D7011C968D91C2
:1016F0009C911D970E94AD09F3018081832109F01F
:101700001160888180278883BB2019F08B2D8A95F2
:10171000F1F788818027888317C088818027888394
:10172000D7011C968D919C911D970E94AD09BB20FD
:1017300019F08B2D8A95F1F7888180278883F30132
:101740008081832109F011600894C11CD11CF8E04C
:10175000CF16D10439F6D2011D932D0108948108CA
:1017600091088114910409F0BACF42C010E0CC2452
:10177000DD241695AA20B1F4F701848595850E9491
:10178000AD09D3018C91832109F0106888818027ED
:101790008883BB2019F08B2D8A95F1F788818027EB
:1017A000888315C0888180278883F7018485958583
:1017B0000E94AD09BB2019F08B2D8A95F1F7888125
:1017C00080278883D3018C91832109F010680894C5
:1017D000C11CD11CB8E0CB16D10459F6F20111930B
:1017E0002F010894810891088114910409F0BECF5B
:1017F000DF91CF911F910F91FF90EF90DF90CF90ED
:10180000BF90AF909F908F907F906F905F904F9020
:101810003F9008951F93FC01808526853785882396
:1018200049F4162F110FC9010E94EC08882349F0D2
:10183000116007C0162F1695C9010E94EC0881118E
:101840001068812F1F910895CF92DF92EF92FF923F
:101850000F931F93CF93DF93EC01D62E8E8163E01D
:101860000E94AE1DE82ECF8081E0C822FF2400E058
:1018700010E0CC20C1F4CE016D2D0E945C0AD82E60
:10188000CE016F2D0E940A0CF82E888999890E943A
:101890006409EE2019F08E2D8A95F1F788899989CF
:1018A0000E94640917C0888999890E946409CE0141
:1018B0006D2D0E945C0AD82EEE2019F08E2D8A958F
:1018C000F1F7888999890E946409CE016F2D0E94E1
:1018D0000A0CF82E0F5F1F4F0830110551F68C854A
:1018E0009D850E94AD098F2DDF91CF911F910F91A2
:1018F000FF90EF90DF90CF900895FC01808991894F
:1019000020E06250623008F421E0622F0E94280932
:101910000895CF93DF93EC01662359F08C859D8564
:101920006FEF0E9428098E859F856FEF0E94010945
:101930000FC08889998960E00E9401098C859D8586
:1019400060E00E9401098E859F856FEF0E94280943
:101950002889398960E08F818250823008F461E003
:10196000C9010E942809DF91CF910895EF92FF925B
:101970000F931F937A01209184013091850140E0FB
:1019800050E00E948F1D00E010E0A80197010E9426
:10199000E11DCA01B9011F910F91FF90EF900895C9
:1019A000613023E0720720E0820720E0920748F4CC
:1019B00023E030E040E050E00E94E11D2A95F1F77D
:1019C00008959B01AC0182E0569547953795279580
:1019D0008A95D1F7DA01C901203060E0360761E06D
:1019E000460760E0560720F08FEF9FEFA0E0B0E0E1
:1019F000FC013197F1F7A0E0B0E0281B390B4A0B4E
:101A00005B0B41F70895089580918E0190918F01AD
:101A1000A0919001B09191010196A11DB11D8093FB
:101A20008E0190938F01A0939001B093910108953E
:101A3000FC01BC9625913491F90185919491582F20
:101A40002E5F3F4F40E00CC0F901859194912E5FCD
:101A50003F4F8617970719F4242F30E005C04F5FDA
:101A6000451790F32FEF3FEFC90108950F931F9390
:101A7000CF93DF938C0124E06130720710F060E0B7
:101A800074E0EB016115710521F4C1E0D0E001C003
:101A90002196C801BE010E94180D8F5F9F4FC1F3B0
:101AA000CE01DF91CF911F910F9108959C01029675
:101AB000FC01A591B491295F3F4FF90184918823DE
:101AC00019F02D913C9103C08C91282F30E0C90171
:101AD00008959C010B96FC01A591B491235F3F4FA3
:101AE000F901249170E0022E02C0660F771F0A945C
:101AF000E2F781E090E002C0880F991F2A95E2F793
:101B0000282F220F282B9C91822F86232095292372
:101B1000822B8C9308959C010B96FC01A591B491A6
:101B2000235F3F4FF901449121E030E0042E02C0D1
:101B3000220F331F0A94E2F7822F880F822B2C91F9
:101B4000822390E002C0959587954A95E2F7089523
:101B5000FC01A591B4911296ED91FC9113973097E9
:101B600029F014966D917C91159709950895FC01C3
:101B7000A591B4911696ED91FC911797309729F0A5
:101B800018966D917C91199709950895FC01A5917E
:101B9000B491ED91FC911197309729F012966D91C7
:101BA0007C9113970995089580915C040895909312
:101BB000600480935F0408958F929F92AF92BF92CA
:101BC000CF92DF92EF92FF920F931F93CF93DF9309
:101BD000982E892E5A016B01C82FD92F898188230D
:101BE00041F48881181614F4888102C08881819597
:101BF0008983888187FD08C030E2E32E31EAF32E25
:101C000037E0032F112D07C020E9E22E20EDF22E40
:101C100023E0022F112D8A8180FF1DC0809159047D
:101C200090915A040E944F09882329F089E594E095
:101C300060E00E94D9098981815089838981882344
:101C400039F490E8E92E94E8F92E9EE1092F112D40
:101C50008A818E7F0FC08091590490915A040E940E
:101C60004F09882329F089E594E06FEF0E94D90994
:101C70008A8181608A838CED9DE0692D782DA60193
:101C800095010E949018DF91CF911F910F91FF90C5
:101C9000EF90DF90CF90BF90AF909F908F9008957E
:101CA000DF92EF92FF920F931F93CF93DF939C01EC
:101CB000EB01FC01A591B4911A968C91398328838C
:101CC0002115310539F41A821B821C821D821F8264
:101CD0001E82B1C0843039F0893029F08B3019F080
:101CE0008F3009F048C0F901779665917491DFB69D
:101CF000F89452E0E52EF12CE20EF31EF701A591C7
:101D0000B4918901095F1F4FF8018491882319F06C
:101D10004D915C9103C08C91482F50E080916104FB
:101D2000909162042817390729F080E090E0A0E044
:101D3000B0E008C080918E0190918F01A091900138
:101D4000B09191018A839B83AC83BD83F701A591F8
:101D5000B491F8018491882319F08D919C9102C06F
:101D60008C9190E09F838E838417950708F449C077
:101D7000CB01089642C0DFB6F89442E0E42EF12C85
:101D8000E20EF31EF701A591B4918901095F1F4F7F
:101D9000F8018491882319F04D915C9103C08C91D6
:101DA000482F50E080916104909162042817390710
:101DB00029F080E090E0A0E0B0E008C080918E01C2
:101DC00090918F01A0919001B09191018A839B83A2
:101DD000AC83BD83F701A591B491F8018491882368
:101DE00019F08D919C9102C08C9190E09F838E831D
:101DF0008417950730F0C9014C960E944A08882341
:101E0000C9F08A819B81AC81BD810196A11DB11D64
:101E10008A839B83AC83BD83F701A591B491F801BC
:101E20008491882319F08D919C9102C08C9190E04F
:101E30009F838E83DFBEDF91CF911F910F91FF9023
:101E4000EF90DF900895BC0180916104909162044D
:101E50000E94500E08950F931F93DF93CF93CDB739
:101E6000DEB728970FB6F894DEBF0FBECDBF8E0148
:101E70000F5F1F4FB8010E94500EC8010E94A010B2
:101E800028960FB6F894DEBF0FBECDBFCF91DF917D
:101E90001F910F91089580916104909162040E94B6
:101EA0002B0F0895DF92EF92FF920F931F93D82E7E
:101EB00080915C04882309F05BC0D0925C0480911F
:101EC000590490915A04892B99F080916104909162
:101ED0006204892B69F00E944B0F9B01AC018CEDD1
:101EE0009DE06CE574E0EE24FF2487010E949018C9
:101EF00080915F04909160040097D1F10E94FC09E9
:101F00008C012D2D332727FD3095D7FE16C000D02C
:101F100000D00F92EDB7FEB7319681E0ADB7BEB7F6
:101F200011968C938EE792E092838183882799277C
:101F3000821B930B9483838311C000D000D00F9237
:101F4000EDB7FEB7319681E0ADB7BEB711968C9371
:101F50008FE692E092838183348323830E94CC16A0
:101F60000F900F900F900F900F90C8010E94FC09E6
:101F70001F910F91FF90EF90DF900895CF93DF9323
:101F8000EC012296FE01949122978EE2989FF00137
:101F90001124E75DFE4FE491EE2371F0CE0103962C
:101FA0000E945708CE0160E00E94690DFE01A591D4
:101FB000B4911D921C9203C08DEF0E94520FDF91CD
:101FC000CF910895CF93DF939C012E5F3F4FF9018E
:101FD0008491225030409EE2899FA00111244F5DE0
:101FE0005E4F485F5F4FFA0184914850504088230C
:101FF000C1F0C9010696FC01C591D491FA0137964A
:10200000E491EE2319F0798368830EC06F3F710568
:1020100031F028F08EEF0E94520F6FEF70E068836E
:1020200003C08DEF0E94520FDF91CF9108959C0164
:102030002E5F3F4FF9018491225030409EE2899FEC
:10204000A00111244F5D5E4F485F5F4FFA018491FC
:1020500048505040882389F0C9010696FC01A5919B
:10206000B491FA013796E491EE2319F02D913C9149
:1020700009C08C91282F30E005C08DEF0E94520FCF
:102080002FEF30E0C9010895CF93DF93EC01049660
:10209000FC01A591B4918C912696FE01949126970E
:1020A000892309F441C0FE01A591B4911A968C913F
:1020B000873039F1883070F4833019F1843028F496
:1020C0008130C9F08230D0F413C08530A1F0863061
:1020D000A8F41AC08B30C1F08C3018F48930E1F4C8
:1020E00013C08E30C9F08F3079F08C30E9F414C011
:1020F0002FEF3FEF1BC02FEF30E018C02FEF31E084
:1021000015C02FEF33E012C0FE01779685919491B0
:102110000E9417109C010AC0CE014F96FC01A591A8
:10212000B4912D913C9102C020E030E02796FE0151
:102130008491882309F43070C901DF91CF9108950B
:102140006F927F928F929F92AF92BF92CF92DF92C7
:10215000EF92FF920F931F93CF93DF938C01FC01BB
:10216000808191810E9444103C0188249924F801C7
:10217000208131818091610490916204A280B380BA
:10218000C480D580C681D7812817390701F5E09032
:102190008A01F0908B0100918C0110918D01C80192
:1021A000B701A60195010E948F1D5B016C01BE0164
:1021B00080E090E0A80197010E948F1DA401930187
:1021C0000E94E11D2A0D3B1D4C1D5D1D14C008948D
:1021D000611C711C811C911CC401B301A6019501F5
:1021E0000E948F1D9B01AC01CE01A0E0B0E0280F42
:1021F000391F4A1F5B1FB901CA01DF91CF911F919F
:102200000F91FF90EF90DF90CF90BF90AF909F9095
:102210008F907F906F9008954F925F926F927F9210
:102220008F929F92AF92BF92CF92DF92EF92FF92E6
:102230000F931F93CF93DF938C01095F1F4FF8011A
:10224000849107501040882331F4AFEFAA2EB12CAF
:10225000C12CD12C06C0FFEFAF2EFFEFBF2EC12C3B
:10226000D12CC1E0D0E0E1E04E2E512CEE24FF2431
:102270003B0188249924C801BE010E94180D8F5F7C
:102280009F4F59F0C401B301AE010E94B60CA616CF
:10229000B706C806D90670F42E01CC0FDD1F0894CE
:1022A000E11CF11C2BE0E216F10429F788EF0E94F3
:1022B000520FE201CE01DF91CF911F910F91FF905C
:1022C000EF90DF90CF90BF90AF909F908F907F90D6
:1022D0006F905F904F900895CF92DF92EF92FF92B0
:1022E0000F931F93CF93DF93EC016B01FC013496A6
:1022F000059114912696FE01F4902697EFB6F89476
:10230000CE010E94180DAC01FFEF8F3F9F0771F0C7
:10231000FE01A591B491CD92DC92F8018081F094F8
:102320008F2180838081842B808303C08AEF0E9469
:10233000520FEFBEDF91CF911F910F91FF90EF9061
:10234000DF90CF9008957F928F929F92AF92BF922D
:10235000CF92DF92EF92FF920F931F93CF93DF9371
:10236000EC01FC01329605911491FC01859094904A
:102370007FB6F8940496FC01A591B4919C912696A1
:10238000FE0184912697809598239C93B9E1AB2E0A
:10239000B12CAC0EBD1EC5010E945708F801108279
:1023A000F40160817181CE010E946C112896FE01BA
:1023B000E4902F96FF2400E010E0FE01C590D49039
:1023C000679709C0C601800F911F08960E943E08BA
:1023D000F394005F1F4FFE14A8F3CE014C960E94A9
:1023E0003E08F40182819381892B19F0C5010E9476
:1023F0003E087FBEDF91CF911F910F91FF90EF902C
:10240000DF90CF90BF90AF909F908F907F90089576
:10241000DF92EF92FF920F931F93CF93DF93EC0124
:10242000662341F0FC01A591B4911A968C91861710
:1024300009F47FC0FE0139962591349181E090E046
:10244000062E02C0880F991F0A94E2F78223932375
:10245000892B09F46BC0FE01A591B4911A966C9377
:10246000FFED2F3F3F0711F4D62E13C088E823332A
:10247000380731F4E62FF0E0E75AFD4FD49009C059
:102480002333310509F052C0E62FF0E0E759FD4F44
:10249000D490AFEFDA1609F449C0CE010496FC01DE
:1024A000A591B4919C912696FE01849126978095E2
:1024B00098239C938E01055F1F4FEE24FF24D801C3
:1024C000ED91FC9185919491892BA1F0D0FE04C0EF
:1024D000C8010E943E0803C0C8010E945708089422
:1024E000E11CF11CB4E0EB16F10421F0D6940D5F71
:1024F0001F4FE5CF2896FE01149111502F96FE0133
:10250000E590F49067970CC0812F90E004E0880F6D
:10251000991F0A95E1F78E0D9F1D0E94BE0F115065
:1025200017FFF2CFCE010E94A31103C086EF0E94D5
:10253000520FDF91CF911F910F91FF90EF90DF909D
:102540000895FF920F931F93CF93DF93F89410E0B9
:10255000009188018EE2F82E20C01F9DE001112419
:10256000CF5DDE4FCE0160E070E040E050E00E94C1
:102570008415CE010E943215CE0160E00E9408123F
:10258000CE010496FC01A591B4918C912696FE0192
:102590009491909589238C931F5F1017F0F2789493
:1025A000DF91CF911F910F91FF9008958F929F928D
:1025B000AF92BF92CF92DF92EF92FF920F931F9351
:1025C000CF93DF938C016B015A0149010E5F1F4FBE
:1025D000F8018491025010409EE2899FE00111248D
:1025E000CF5DDE4F2896FE01849128978823A1F1C4
:1025F000F801E590F4906115710541F0F7018081D3
:102600009181892B19F08BEF0E94520FCE01FE01B0
:10261000A591B4916D917C910E946C11E801239673
:10262000CE010E945708C801B5010E94E20FF701D0
:10263000D182C08293828282C80108960E943E089D
:10264000C114D10461F0F3E0CF16FDE0DF0639F0EC
:10265000CE010E943E0803C08DEF0E94520FDF9111
:10266000CF911F910F91FF90EF90DF90CF90BF908F
:10267000AF909F908F9008952F923F924F925F92CC
:102680006F927F928F929F92AF92BF92CF92DF9282
:10269000EF92FF920F931F93DF93CF9300D000D060
:1026A000CDB7DEB7109262041092610400918801E8
:1026B00001508EE208026001112421E231E0C20ED5
:1026C000D31EAA24BB24222433241A82198259C07F
:1026D000C6010496FC01A591B4918C9126E030E0EE
:1026E000C20ED31EF60194912AEF3FEFC20ED31E05
:1026F000892309F041C0DBC088E090E0C80ED91EF4
:10270000F601849128EF3FEFC20ED31E8230A0F174
:102710003FEF2316310469F060F087E090E0C80EC7
:10272000D91EF601849129EF3FEFC20ED31E8823F4
:1027300019F1C6016CE070E00E940C11F82EE92E30
:102740006CE070E080E090E04F2D5E2D0E94B60CB2
:102750009B01AC01A114B10441F0C101A0E0B0E0C3
:1027600082179307A407B50738F4190156018F2D76
:102770009E2D9C013A832983015082ED9FEFC80E64
:10278000D91E07FFA5CFA114B10409F487C0E7E063
:10279000F0E0AE0EBF1EF501849129EF3FEFA20ECF
:1027A000B31E882331F43FEFC32ED12CE12CF12C42
:1027B00006C02FEFC22E2FEFD22EE12CF12C9CE081
:1027C000892E912C21016624772461E070E080E05D
:1027D00090E049815A810E94B60C6F5F7F4F8F4F06
:1027E0009F4F640D751D861D971D6C157D058E050B
:1027F0009F0528F5C40101969C838B83C5016B81DD
:102800007C810E940C118C01EB81FC81BF0180E076
:1028100090E0A8010E94B60C29813A8102171307A3
:1028200071F4C616D706E806F90648F046165706AC
:102830006806790620F41B018B809C80C3CFB09280
:102840006204A0926104B40180E090E028EE33E0DD
:1028500040E050E00E948F1D60938A0170938B01CD
:1028600080938C0190938D01C50169817A810E94CA
:102870006C11809161049091620464E00E940812DE
:10288000E0916104F091620477968591949164E0FF
:102890007DE0A10120E030E00E94D61280915C042E
:1028A000882361F010925C040E94520F07C0F60169
:1028B00039968591949184FD1FCF5ECF0F900F9034
:1028C0000F900F90CF91DF911F910F91FF90EF909C
:1028D000DF90CF90BF90AF909F908F907F906F9040
:1028E0005F904F903F902F9008958F929F92AF925C
:1028F000BF92CF92DF92EF92FF920F931F93CF93ED
:10290000DF936B017C0149015A01E8010E944B0FE2
:102910006C197D098E099F0986169706A806B906C7
:1029200050F4681979098A099B09688379838A8335
:102930009B838FEF09C0861A970AA80AB90A888272
:102940009982AA82BB8280E0DF91CF911F910F9183
:10295000FF90EF90DF90CF90BF90AF909F908F90BF
:102960000895AF92BF92CF92DF92EF92FF920F93B2
:102970001F935B016C010E944B0F7B018C0101C016
:1029800000000E944B0F6E197F09800B910B6A1596
:102990007B058C059D05A0F31F910F91FF90EF9093
:1029A000DF90CF90BF90AF90089528EE33E040E0E5
:1029B00050E00E948F1D0E94B11408959B01AC014C
:1029C0008091610490916204892B29F0CA01B901B8
:1029D0000E94D5140895CA01B90141E050E00E9457
:1029E000B60C0E94D00C08959B01AC01809161044B
:1029F00090916204892B51F025363105410551052E
:102A000028F0CA01B9010E94B1140895CA01B901A0
:102A100048EE53E00E94B60C0E94D00C0895AF928D
:102A2000BF92CF92DF92EF92FF920F931F937B01A1
:102A30008C0159016A010E944B0F6E197F09800BAE
:102A4000910B6A157B058C059D0510F480E001C093
:102A50008FEF1F910F91FF90EF90DF90CF90BF907D
:102A6000AF900895EF92FF920F931F938C01FC019A
:102A7000E590F49081960E945708C80184960E94C0
:102A80003E08F701178216821F910F91FF90EF9079
:102A90000895AF92BF92CF92DF92EF92FF920F9381
:102AA0001F93CF93DF938C017B016A01B22EFC014F
:102AB000C591D4918E819F81892B19F08AEE0E9455
:102AC000520FAFB6F894FF82EE82D986C886C8014D
:102AD0008796BB2019F00E943E0802C00E9457084A
:102AE000C80184960E943E08C80181960E943E0853
:102AF000AFBEDF91CF911F910F91FF90EF90DF90CC
:102B0000CF90BF90AF900895DF92EF92FF920F9316
:102B10001F93CF93DF93EC018B017A01DFB6F8941A
:102B20006115710561F0FC01A591B49112968D912A
:102B30009C911397892B19F08CEF0E94520FCE01B4
:102B4000FE01A591B49113961C930E9312971596BE
:102B5000FC92EE9214974996012B19F00E943E08C0
:102B600002C00E945708DFBEDF91CF911F910F91E5
:102B7000FF90EF90DF900895BF92CF92DF92EF9297
:102B8000FF920F931F93CF93DF937A018B01EC0198
:102B9000BFB6F8944F3F8FEF58078FEF68078FEF5E
:102BA000780721F4A1E0CA2ED12C24C0CB01BA01B0
:102BB000F3E0660F771F881F991FFA95D1F72091D0
:102BC0008001309181014091820150918301620F17
:102BD000731F841F951FA8019701E4E0220F331F84
:102BE000441F551FEA95D1F70E94E11D6901089421
:102BF000C108D1089EA19923C9F1EA8DFB8D80817E
:102C00009095892380838FEFE8168FEFF8068FEF7A
:102C100008078FEF180719F421E030E01DC032E0FB
:102C2000EE0CFF1C001F111F3A95D1F76091800137
:102C30007091810180918201909183016E0D7F1DC1
:102C4000801F911FEE0CFF1C001F111FA801970190
:102C50000E94E11D215030402C153D0538F0EA8DD1
:102C6000FB8D80819EA1892B80836901EE8DFF8D74
:102C7000C082E8A1F9A1D082BFBEDF91CF911F91A0
:102C80000F91FF90EF90DF90CF90BF900895DC01FF
:102C90005C96ED91FC915D9780818772808396961A
:102CA0009C919697992341F05A96ED91FC915B97F0
:102CB00080819095892380830895DC0155968C91BD
:102CC0005597882371F05C96ED91FC915D9780811A
:102CD000877B80835C96ED91FC915D978081806914
:102CE00080830895DC019296ED91FC919397608327
:102CF0000895DC0155968C915597882371F05C9668
:102D0000ED91FC915D9780818F7680835C96ED914B
:102D1000FC915D978081886480830895DC015C96D6
:102D2000ED91FC915D97662319F080818F7702C049
:102D30008081806880830895DC015A96ED91FC9132
:102D40005B97808187FD03C02FEF3FEF07C092960E
:102D5000ED91FC9193978081282F30E0C90108956F
:102D6000CF93DF93EC010E9447068D89882311F0F1
:102D700020E90CC08D859E85892B11F020E901C0CA
:102D800020E08F859889892B09F02864EC8DFD8DD2
:102D90002083DF91CF9108957F928F929F92AF927F
:102DA000BF92CF92DF92EF92FF920F931F93DF9328
:102DB000CF930F92CDB7DEB77988CA88DB8864E1FC
:102DC000E62EF12CEC0EFD1E17C0882389F480E05E
:102DD00090E00F90CF91DF911F910F91FF90EF90B6
:102DE000DF90CF90BF90AF909F908F907F9008958D
:102DF0000E94090A5701750196012F5F3F4F772006
:102E000021F0F6016901849103C0F6018081690116
:102E10008532D9F62F5F3F4F772021F0F601690107
:102E2000949103C0F601908169019337A1F0943722
:102E300038F49336D9F0943641F0953209F525C02F
:102E4000953719F09837E1F422C000E117E25AE013
:102E5000852E912C21C042E0A42EB12CAE0CBF1CBB
:102E6000F701808191810E942B0AC5CF32E0A32E09
:102E7000B12CAE0CBF1CF70180810E94090ABBCFA8
:102E800085E299830E94090A9981892FB1CF00E0D8
:102E900010E120E1822E912C82E0A82EB12CAE0C04
:102EA000BF1CF701E080F180943651F4F7FE14C0A6
:102EB000F094E194F108F3948DE20E94090A0CC0A9
:102EC000953769F409C0C8016AE070E00E94BA1D34
:102ED0008B016230710518F0E016F106A0F3C7010E
:102EE000B8010E94BA1D862F0E944E0AC701B80180
:102EF0000E94BA1D7C01C801B4010E94BA1D8B0159
:102F00006115710561F777CF2F923F924F925F92D3
:102F10006F927F928F929F92AF92BF92CF92DF92E9
:102F2000EF92FF920F931F93DF93CF93CDB7DEB74E
:102F300029970FB6F894DEBF0FBECDBF998788875B
:102F40000E94BE0F2FB72F8378948FEF8093660473
:102F50001092650480913901A82FB0E01197BE83CB
:102F6000AD83EDE0F0E0AE9F5001AF9FB00CBE9F8F
:102F7000B00C112426ED32E0A20EB31E222433241D
:102F800021015AC0D5018C91882309F44CC01996AF
:102F90006D907D908D909C901C971596CD90DD90B6
:102FA000ED90FC901897C401B301A70196018E0122
:102FB0000F5F1F4F0E947514882319F1D5011196D8
:102FC000ED91FC91129713968D919C9114971C9200
:102FD00020916304309164042150304030936404A4
:102FE00020936304C60CD71CE81CF91C09811A81C4
:102FF0002B813C81B701A6010995BFEFB093650411
:1030000012C0211431044104510449F089819A818C
:10301000AB81BC8182159305A405B50520F42980F8
:103020003A804B805C80ED81FE813197FE83ED8399
:1030300023EF3FEFA20EB31E8D819E818F5F9F4FC6
:1030400009F0A0CF80916504882309F081CF109208
:1030500066048091630490916404181619060CF0BC
:1030600044C0F0906104E0906204EF2DFE2D0591C4
:103070001491209186013091870140E050E0C20117
:10308000B1010E948F1DF8012081318140E050E0A4
:103090000E94E11D59016A018F2D9E2D0E9444104E
:1030A0007C0100E010E0AE14BF04C006D10610F4AD
:1030B0008601750180916104909162040E94441020
:1030C0008C0180916104909162040E94560D8E0DD6
:1030D0009F1DB8010E94BA1DAC018885998564E8DE
:1030E00077E120E030E00E94D612FF81FFBF2996F1
:1030F0000FB6F894DEBF0FBECDBFCF91DF911F9109
:103100000F91FF90EF90DF90CF90BF90AF909F9086
:103110008F907F906F905F904F903F902F90089589
:103120002F923F924F925F926F927F928F929F92D7
:10313000AF92BF92CF92DF92EF92FF920F931F93C5
:10314000DF93CF9300D000D0CDB7DEB71C012B01A9
:1031500049015A016701780188EEC81683E0D80654
:1031600080E0E80680E0F80638F480916604882361
:10317000C1F18FEF809365046FB7F89480913901A6
:10318000482F50E0A6EDB2E020E030E020C0FD0185
:103190008C911D968823C9F48FEF8083328221821F
:1031A0005482438281869286A386B486C582D68263
:1031B000E782F08680916304909164040196909375
:1031C0006404809363048FEF06C02F5F3F4F241782
:1031D0003507ECF280E06FBF882359F58FEF0E942E
:1031E000520F3E010894611C711CC501B401A70176
:1031F000960183010E9475148823B9F3C80CD91C69
:10320000EA1CFB1C09811A812B813C81C201B70198
:10321000A601F101099511C0E0916104F0916204E9
:10322000779685919491409660E070E00E948417B3
:1032300004C080916604882379F30F900F900F905B
:103240000F90CF91DF911F910F91FF90EF90DF9042
:10325000CF90BF90AF909F908F907F906F905F9036
:103260004F903F902F9008950895089508950F93DB
:103270001F9382E791E060E00E94D90985E791E021
:1032800060E00E94D90988E791E060E00E94D909D6
:103290008BE791E06FEF0E94D9090AE311E0C801C2
:1032A0000E949803C80169E10E94ED0360E070E0AC
:1032B00080E090E01F910F91089580E691E06FEF1C
:1032C0000E94550482E191E040E855E260E070E040
:1032D0000E9496068DE09CE10E94FC092CE088E1AA
:1032E00090E00FB6F894A895809360000FBE2093ED
:1032F000600008951F93182F8091D5018530A0F5A7
:103300008F5F8093D50183E50E94090A8091CB01EC
:103310000E94090A8091CC010E94090A8091CD0186
:103320000E94090A8091CE010E94090A8091D10170
:103330000E94090A8091D2010E94090A8091CF015E
:103340000E94090A8091D0010E94090A8091D3014C
:103350000E94090A8091D4010E94090A812F0E94CB
:10336000090A84E50E94090A1F9108951F93182FE6
:1033700083E50E94090A8091CB010E94090A80918D
:10338000CC010E94090A8091CD010E94090A809116
:10339000CE010E94090A8091D1010E94090A809100
:1033A000D2010E94090A8091CF010E94090A8091EE
:1033B000D0010E94090A8091D3010E94090A8091DC
:1033C000D4010E94090A812F0E94090A84E50E9403
:1033D000090A1092D5011F910895A8958AE391E0FA
:1033E0000E942E03882329F460E47DE083E090E0CE
:1033F00008958AE391E060E070E40E949701809371
:10340000CF018AE391E060E070E80E949701809329
:10341000D0018AE391E06DE070E00E949701809313
:10342000D1018AE391E060E070E10E94970180930E
:10343000D2018AE391E060E870E00E9497018093F6
:10344000D3018AE391E060E270E00E9497018093EB
:10345000D4018AE391E00E949803882309F039C1DE
:103460008AE391E060E070E10E94AE02882309F0F7
:1034700020C18AE391E060E078E00E94AE028823F8
:1034800009F402C182E791E06FEF0E94D9098AE353
:1034900091E060E074E00E94AE02882309F09DC0D4
:1034A0008AE391E060E870E00E94AE02882309F4AC
:1034B00045C187E00E94B61985E791E06FEF0E9451
:1034C000D9098AE391E060E072E00E94AE028823AD
:1034D00009F094C08AE391E060E071E00E94AE02DE
:1034E000882309F097C08AE391E060E070E20E94CF
:1034F000AE02882309F09AC08AE391E060E070E8A8
:103500000E94AE02882309F49DC08FE00E94B61984
:1035100082E791E06FEF0E94D90985E791E06FEFB4
:103520000E94D9096091D0016F3F09F4A6C0669549
:103530008AE391E040E00E94F2028AE391E060E1D8
:1035400070E00E94AE02882309F0F4C08AE391E0A3
:1035500060E470E00E94AE02882309F0E7C08AE3CD
:1035600091E061E070E00E94AE02882309F0DAC0C9
:103570008AE391E068E070E00E94AE02882309F0DF
:10358000CDC08AE391E062E070E00E94AE02882341
:1035900009F0C0C08AE391E064E070E00E94AE02EE
:1035A000882309F0B3C02091CC018091CB0190E039
:1035B000820F911D2091CD01820F911D2091CE018E
:1035C000820F911D892B09F06CC08DEB0E947A1936
:1035D00060E47DE083E090E008958AE10E94B619FE
:1035E00085E791E06FEF0E94D9098AE391E060E0FE
:1035F00072E00E94AE02882309F46CCF89E00E9439
:10360000B6198AE391E060E071E00E94AE0288237F
:1036100009F469CF88E00E94B6198AE391E060E07E
:1036200070E20E94AE02882309F466CF8DE00E940A
:10363000B6198AE391E060E070E80E94AE02882348
:1036400009F063CF8AE391E060E070E40E94AE028B
:10365000882309F47FC08EE00E94B61982E791E0CA
:1036600060E00E94D90985E791E060E00E94D909F5
:103670006091CF016F3F09F05ACF8AE391E06FE785
:1036800040E00E94F20259CF8AE391E060E270E0EC
:103690000E94AE02882309F457C085E00E94B61943
:1036A000F1CE8DEB0E94B61960E47DE083E090E0FE
:1036B00008958CE00E94B6198091D6018F5F8093A7
:1036C000D60180FD4EC088E791E060E00E94D909F4
:1036D000D0CE8AE391E064E00E9449028093CB015E
:1036E0008AE391E065E00E9449028093CC018AE37D
:1036F00091E062E00E9449028093CD018AE391E06B
:1037000063E00E9449028093CE01AACE82E00E942B
:10371000B61949CF81E00E94B6193CCF83E00E94E0
:10372000B6192FCF80E00E94B61922CF86E00E9402
:10373000B61915CF84E00E94B61908CF85E791E04D
:1037400060E00E94D909BDCE82E791E060E00E946E
:10375000D9099DCE8AE391E060E040E00E94F20248
:10376000ECCE88E791E06FEF0E94D90982CE1F92DC
:103770000F920FB60F9211242F933F934F935F93A5
:103780006F937F938F939F93AF93BF93EF93FF9329
:10379000E0913401F0913501608182E191E00E9475
:1037A0007907FF91EF91BF91AF919F918F917F9199
:1037B0006F915F914F913F912F910F900FBE0F909E
:1037C0001F9018951F920F920FB60F9211242F93EE
:1037D0003F934F935F936F937F938F939F93AF9399
:1037E000BF93EF93FF9382E191E00E944607FF9120
:1037F000EF91BF91AF919F918F917F916F915F9169
:103800004F913F912F910F900FBE0F901F901895E1
:1038100082E191E00E9420070895682F82E191E003
:103820000E94CF0608951F920F920FB60F92112497
:103830002F933F934F935F936F937F938F939F93B8
:10384000AF93BF93EF93FF9381E191E00E94C60D88
:10385000FF91EF91BF91AF919F918F917F916F9168
:103860005F914F913F912F910F900FBE0F901F903E
:1038700018951F920F920FB60F9211242F933F931A
:103880004F935F936F937F938F939F93AF93BF9368
:10389000EF93FF9381E091E00E94C60DFF91EF91BD
:1038A000BF91AF919F918F917F916F915F914F9158
:1038B0003F912F910F900FBE0F901F9018951F9260
:1038C0000F920FB60F9211242F933F934F935F9354
:1038D0006F937F938F939F93AF93BF93EF93FF93D8
:1038E00081EF90E00E94C60DFF91EF91BF91AF91E3
:1038F0009F918F917F916F915F914F913F912F9108
:103900000F900FBE0F901F9018951F920F920FB639
:103910000F9211242F933F934F935F936F937F9355
:103920008F939F93AF93BF93EF93FF9381EE90E0BC
:103930000E94C60DFF91EF91BF91AF919F918F9122
:103940007F916F915F914F913F912F910F900FBE9B
:103950000F901F9018951F920F920FB60F9211247F
:103960002F933F934F935F936F937F938F939F9387
:10397000AF93BF93EF93FF9381ED90E00E94C60D4C
:10398000FF91EF91BF91AF919F918F917F916F9137
:103990005F914F913F912F910F900FBE0F901F900D
:1039A00018951F920F920FB60F9211242F933F93E9
:1039B0004F935F936F937F938F939F93AF93BF9337
:1039C000EF93FF9381EC90E00E94C60DFF91EF9181
:1039D000BF91AF919F918F917F916F915F914F9127
:1039E0003F912F910F900FBE0F901F9018951F922F
:1039F0000F920FB60F9211242F933F934F935F9323
:103A00006F937F938F939F93AF93BF93EF93FF93A6
:103A10008DE791E00E94A80DFF91EF91BF91AF91CA
:103A20009F918F917F916F915F914F913F912F91D6
:103A30000F900FBE0F901F9018951F920F920FB608
:103A40000F9211242F933F934F935F936F937F9324
:103A50008F939F93AF93BF93EF93FF938FE491E086
:103A60000E94A80DFF91EF91BF91AF919F918F910F
:103A70007F916F915F914F913F912F910F900FBE6A
:103A80000F901F9018951F920F920FB60F9211244E
:103A90002F933F934F935F936F937F938F939F9356
:103AA000AF93BF93EF93FF9381E291E00E94A80D43
:103AB000FF91EF91BF91AF919F918F917F916F9106
:103AC0005F914F913F912F910F900FBE0F901F90DC
:103AD00018951F920F920FB60F9211242F933F93B8
:103AE0004F935F936F937F938F939F93AF93BF9306
:103AF000EF93FF938FE491E00E94B70DFF91EF9158
:103B0000BF91AF919F918F917F916F915F914F91F5
:103B10003F912F910F900FBE0F901F901895629FAD
:103B2000D001739FF001829FE00DF11D649FE00DB5
:103B3000F11D929FF00D839FF00D749FF00D659F16
:103B4000F00D9927729FB00DE11DF91F639FB00D15
:103B5000E11DF91FBD01CF0111240895991B79E0E2
:103B600004C0991F961708F0961B881F7A95C9F70D
:103B700080950895AA1BBB1B51E107C0AA1FBB1F5C
:103B8000A617B70710F0A61BB70B881F991F5A95E9
:103B9000A9F780959095BC01CD01089597FB092E5A
:103BA00007260AD077FD04D0E5DF06D000201AF4FE
:103BB000709561957F4F0895F6F7909581959F4F89
:103BC0000895A1E21A2EAA1BBB1BFD010DC0AA1F5E
:103BD000BB1FEE1FFF1FA217B307E407F50720F076
:103BE000A21BB30BE40BF50B661F771F881F991FF1
:103BF0001A9469F760957095809590959B01AC013A
:103C0000BD01CF01089597FB092E05260ED057FD63
:103C100004D0D7DF0AD0001C38F450954095309579
:103C200021953F4F4F4F5F4F0895F6F79095809540
:103C3000709561957F4F8F4F9F4F0895F894FFCFF8
:103C4000FB090A03280000000000320328000000DE
:103C5000000002010A0100000000009202FFFFA91B
:103C600000AC00081C0D1C0000000000C000C100DA
:103C7000C400C500C600B500020400000301B50081
:103C80000000FFFFFFFF8080808000000000000038
:103C9000000000000000808080801B000000000009
:103CA00047027E010100020000000000B200AF00E8
:103CB000B800BE00007000007300007600003A01FA
:0A3CC00000127A00401F0800030004
:00000001FF
