S01B0000617474696E793835526574726F4C69746552782E737265639F
S11300000EC01DC06DC058C04DC02EC018C018C051
S113001021C05CC033C03CC012C011C010C0112448
S11300201FBECFE5D2E0DEBFCDBF20E0A0E6B0E04A
S113003001C01D92A536B207E1F79AD0B2C0E0CF55
S11300401F920F920FB60F9211240F900FBE0F90B4
S11300501F9018951F920F920FB60F9211240F90B4
S11300600FBE0F901F9018951F920F920FB60F920C
S113007011240F900FBE0F901F9018951F920F928E
S11300800FB60F9211240F900FBE0F901F9018956A
S11300901F920F920FB60F9211240F900FBE0F9064
S11300A01F9018951F920F920FB60F9211240F9064
S11300B00FBE0F901F9018951F920F920FB60F92BC
S11300C011240F900FBE0F901F9018951F920F923E
S11300D00FB60F9211240F900FBE0F901F9018951A
S11300E01F920F920FB60F9211248F9385B78F7DB5
S11300F085BFB39B04C081E08093640002C010926A
S11301006400B29B06C080916400882311F0C49AF5
S113011001C0C4988F910F900FBE0F901F90189537
S113012018BA17BABA98BB98BC9AC49A0895109290
S1130130640085B38C6085BB8BB780628BBF8AB744
S11301408ABF85B78A6A85BF7894089580B78F6817
S113015080BF8CB58CBD1EBC1BBC83EF8DBD89B725
S1130160806489BF1FBC10926300109262000895DE
S1130170EDDFD6DFDCDFC49AB39B04C081E080935B
S1130180640002C010926400B29B06C080916400B7
S1130190882311F0C49A01C0C49885B7806285BFD2
S10901A0FCCFF894FFCF30
S9030000FC
