S01B0000617474696E7938355F4465636F6465725F52782E73726563C5
S11300000EC028C085C070C065C039C023C023C0DD
S11300102CC074C04BC054C01DC01CC01BC01124D4
S11300201FBECFE5D2E0DEBFCDBF10E0A0E6B0E05A
S1130030E2E8F2E002C005900D92A236B107D9F7CA
S113004020E0A2E6B0E001C01D92A736B207E1F7B6
S1130050B7D015C1D5CF1F920F920FB60F921124AE
S11300600F900FBE0F901F9018951F920F920FB60E
S11300700F9211240F900FBE0F901F9018951F928E
S11300800F920FB60F9211248F939F938091650066
S113009090916600019690936600809365009F910D
S11300A08F910F900FBE0F901F9018951F920F9273
S11300B00FB60F9211240F900FBE0F901F9018953A
S11300C01F920F920FB60F9211240F900FBE0F9034
S11300D01F9018951F920F920FB60F9211240F9034
S11300E00FBE0F901F9018951F920F920FB60F928C
S11300F011240F900FBE0F901F9018951F920F920E
S11301000FB60F9211240F900FBE0F901F901895E9
S11301101F920F920FB60F9211248F9385B78F7D84
S113012085BF12BE1FBC109266001092650010922B
S11301306400109263008F910F900FBE0F901F9078
S11301401895A89A8BB780628BBF85B78A6A85BFDA
S11301500895B898BC9AC49808957894109266004B
S113016010926500109264001092630008958AB59D
S11301708ABD83B7836883BF8DE789BD18BC12BE6F
S11301801092660010926500089580B7866880BF5B
S11301908CB58CBD8AEF8EBD89B7866589BF1FBCBF
S11301A01092640010926300089587B1836287B946
S11301B086B1886C86B983B183B984B384BB08954E
S11301C0D6DFE3DFF2DFC5DFBCDFC7DFC49A2FEF82
S11301D039E688E1215030408040E1F700C000005A
S11301E0C4989FEF29E638E1915020403040E1F770
S11301F000C0000091E0B09B09C08091600088239A
S113020029F0109262009093600028C0B09B17C040
S113021080916000811113C08FEF20E732E081509C
S113022020403040E1F700C00000B09B05C01092B0
S113023062009093600012C0109260000FC0809121
S113024062008F5F8093620080916200863018F0B4
S11302501092600003C0C49A909360008091600083
S1130260882311F0C49A01C0C4988FEF20E732E0CC
S1130270815020403040E1F700C00000BCCFF8942A
S1050280FFCFAA
S1050282010075
S9030000FC
