:1000000012C02CC02BC02AC029C028C027C026C0BF
:1000100025C024C023C022C021C020C01FC01EC0D4
:100020001DC01CC01BC011241FBECFE5D4E0DEBF25
:10003000CDBF10E0A0E6B0E0E2ECF9E002C0059030
:100040000D92A83EB107D9F710E0A8EEB0E001C0CC
:100050001D92A83EB107E1F737D2B2C4D1CF26B383
:10006000332702C0359527958A95E2F7209530957C
:10007000C9018170907008952091B800332702C0A3
:10008000359527958A95E2F720953095C9018170BD
:1000900090700895DF92EF92FF920F931F93CF938A
:1000A000DF93CDB7DEB721970FB6F894DEBF0FBE52
:1000B000CDBF8E010F5F1F4FB80180E0E0D2F98005
:1000C000B80181E0DCD2E980B80182E0D8D2498170
:1000D000642F7727CB0180719070959587959595C2
:1000E000879595958795959587959C01220F331F48
:1000F000220F331F220F331F880F991F820F931F68
:10010000042F0F70080F09F40CE08F2D99278077CA
:1001100090709595879595958795959587959595E3
:1001200087959C01220F331F220F331F220F331F8D
:10013000880F991F820F931F1F2D1F70180F8E2D70
:100140009927807790709595879595958795959542
:100150008795959587959C01220F331F220F331F9A
:10016000220F331F880F991F820F931FFFE0FF2E6E
:10017000FE20F80E729562956F7067277F70672773
:1001800072E0D72ED622EE2438C060E089E0B0D3EA
:1001900081E790E03DD361E083E0E89E802D11246B
:1001A000A7D387E790E034D381E059DF882359F063
:1001B00081E062DF882339F4EE2009F04FC00C3073
:1001C00009F462C00F5F80E04ADF882359F080E0C5
:1001D00053DF882339F4EE2009F04AC0013009F4D6
:1001E00059C0015082E03BDF882379F586B38093C4
:1001F000B80080E395E70197F1F760E081E0E1D294
:1002000080E690E005D360E080E072D362E070E0C9
:10021000802F99270CD360E083E06AD362E070E01E
:100220008F2D992704D360E086E062D362E070E00E
:10023000812F9927FCD2DD2009F0A7CF60E089E06B
:1002400057D384E790E0E4D2A6CF82E015DF88237D
:1002500069F684E0E816B1F0E394C8CF81E0E816CF
:10026000D9F082E0E81649F51B3399F11F5FABCF57
:1002700081E0E81659F082E0E816A9F4112389F02C
:100280001150B0CFEE24B2CF01E09DCFFF20F1F0AE
:10029000FA94A8CF0CE0A6CF8BE3F816E1F0F39424
:1002A00092CF1BE39FCF83E0E81609F06CC080E09B
:1002B000DD2009F481E0D82E95CF83E0E81669F4BB
:1002C00080E0DD2009F481E0D82E7DCF8BE3F82E8D
:1002D00089CF10E078CFFF2476CF84E0E81609F0CC
:1002E00072CF812F6AE039D3282F33272295329598
:1002F000307F3227207F3227812F2FD3922B998373
:10030000692F80E0A2D18F2D6AE027D3282F3327D1
:1003100022953295307F3227207F32278F2D1DD3B3
:10032000922B9983692F81E090D1802F6AE015D3B9
:10033000282F332722953295307F3227207F32278E
:10034000802F0BD3922B892F80648983DD2011F0BD
:1003500090669983698182E078D160E081E031D252
:100360008AE790E055D261E080E0C2D284E890E074
:100370004FD220E0E0E0F0E0CF010197F1F72F5FEE
:100380002A30D1F705C084E0E81609F02BCFA9CFB9
:1003900021960FB6F894DEBF0FBECDBFDF91CF918F
:1003A0001F910F91FF90EF90DF900895EF92FF92D1
:1003B0001F93CF93DF93CDB7DEB728970FB6F8948E
:1003C000DEBF0FBECDBF7E010894E11CF11CD7013A
:1003D000E0EEF0E088E001900D928150E1F780E0DE
:1003E00090E0FC013197F1F70197F1F710E01AC0A6
:1003F00080E035DE882309F045C082E030DE8823C6
:1004000051F082E039DE882331F4112309F444C02D
:10041000133009F443C086B38093B80088E893E1B1
:100420000197F1F760E081E0CCD182E990E0F0D172
:1004300061E082E05DD2E12FFF27EE0FFF1FEE0D9E
:10044000FF1D80819181E4D161E080E051D282EA98
:1004500090E0DED161E08FE04BD284EA90E0D8D129
:1004600081E0FDDD882321F281E006DE882309F0AA
:10047000BFCF112309F4BCCF115080E0F0DD8823F9
:1004800009F4BBCF80E0F8DD882309F0B6CF133044
:1004900009F4B3CF1F5FB1CFFDDDBDCF28960FB6F6
:1004A000F894DEBF0FBECDBFDF91CF911F91FF90BB
:1004B000EF90089520E0E0E0F0E0CF010197F1F740
:1004C0002F5F2431D1F708958F929F92AF92BF9200
:1004D000CF92DF92EF92FF920F931F93CF93DF9310
:1004E000CDB7DEB72E970FB6F894DEBF0FBECDBFE7
:1004F00080E090E0FC013197F1F70197F1F781E09E
:1005000004D2DFD088B3876088BB8E010E5F1F4F97
:10051000B80180E0B4D06A816F776A8380E095D0BB
:10052000B80182E0ACD06A8160646A8382E08DD0D9
:1005300060E081E046D186EA90E06AD15E010894ED
:10054000A11CB11C63E0862E912C8C0E9D1E5AE3DB
:10055000E52EB50180E093D01B868981282F2F706E
:10056000205D2A8799278077907095958795959536
:1005700087959595879595958795805D8987E88678
:10058000B50181E07CD08981282F2F70205D2F83D9
:1005900099278077907095958795959587959595EE
:1005A000879595958795805D8E83ED82B50182E074
:1005B00066D08981282F2F70205D2C839927807128
:1005C000907095958795959587959595879595952F
:1005D0008795805D8B8360E081E0F3D086EA90E0D0
:1005E00017D161E082E084D1C40112D1898185FFF5
:1005F00025C061E08BE07CD181E790E009D1FF2448
:1006000000E010E098E8C92E93E1D92E08C0C60199
:100610000197F1F7F39484E1F81609F49ACF82E098
:100620001EDD8823A1F3C2DEC8010197F1F7C801DE
:100630000197F1F7C8010197F1F7E9CF61E08BE08D
:1006400057D184E790E0E4D0DACF0F931F93182FAF
:10065000062F44D080ED4ED0882319F480E090E03E
:100660000BC0812F47D08823C9F3802F43D0882324
:10067000A9F33AD081E090E01F910F9108951F9364
:10068000CF93DF93182FEB0129D080ED33D088234F
:1006900019F480E090E011C0812F2CD08823C9F399
:1006A0001DD081ED27D08823A1F360E0CE013FD09B
:1006B000882379F319D081E090E0DF91CF911F91E9
:1006C000089582E080B981B1836081B986B7846082
:1006D00086BF089586B78B7F86BF089584EA86BF5C
:1006E00006B607FEFDCF089584E986BF06B604FC72
:1006F000FDCF089583B984E886BF06B607FEFDCF17
:1007000081B1887F883161F081B1887F883241F082
:1007100081B120E030E0887F803429F0C90108955C
:1007200081E090E0089521E030E0C9010895FC01E6
:100730006623C9F086B7806486BF86B7806886BFA7
:1007400006B607FEFDCF81B1887F883539F081B1CB
:10075000887F803519F080E090E0089583B1808330
:1007600081E090E0089586B78F7B86BFE6CF81B3A6
:10077000807F81BB959A969881E08A95F1F721E078
:10078000949A822F8A95F1F780B38295807F922F79
:100790009A95F1F79498922F9A95F1F7949A922F4F
:1007A0009A95F1F790B3922F9A95F1F79498922F2A
:1007B0009A95F1F787FDE4CF959881B38F6081BB5F
:1007C0000895382F662311F4969801C0969A21E077
:1007D000822F8A95F1F7949A82B3807F932F929516
:1007E0009F70892B82BB822F8A95F1F79498822F74
:1007F0008A95F1F7949A82B3807F3F70832B82BBF6
:10080000822F8A95F1F794982A95F1F7B0DF089531
:10081000CF93DF93EC018881882331F061E0D1DF51
:10082000219688818823D1F7DF91CF910895EF92A7
:10083000FF920F931F93CF93DF93CDB7DEB725972A
:100840000FB6F894DEBF0FBECDBF9C018B017E01B9
:100850000894E11CF11C85E0F70111928A95E9F7F3
:100860002115310579F0FE013596C9016AE070E085
:1008700080D080833197C9016AE070E07AD09B0113
:10088000672B99F7FFEF0F3F1F07B1F085E090E06E
:10089000801B910B85309105F4F48C01E00EF11E64
:1008A000F70181917F0161E0805D8BDF0F5F1F4F5A
:1008B00005301105ACF30FC08981882349F4F70195
:1008C000818131968823E1F3CF018E199F09E2CF10
:1008D00000E010E0E3CF25960FB6F894DEBF0FBE20
:1008E000CDBFDF91CF911F910F91FF90EF900895B1
:1008F000883228F4662321F460E0806862DF08957E
:10090000806460E080685DDFFACF1F93182F8CE46D
:100910009DE10197F1F781B38F6081BB8C9A8E9A2C
:100920008D9A82B3807F82BB94989598969881E047
:10093000982F9A95F1F7949A919A982F9A95F1F7A2
:1009400094988A95F1F713DF60E0812F8C6039DF8E
:1009500060E088E236DF1F910895991B79E004C0BA
:10096000991F961708F0961B881F7A95C9F78095EE
:10097000089597FB092E07260AD077FD04D00CD0E6
:1009800006D000201AF4709561957F4F0895F6F710
:10099000909581959F4F0895AA1BBB1B51E107C0FD
:1009A000AA1FBB1FA617B70710F0A61BB70B881FFF
:1009B000991F5A95A9F780959095BC01CD0108958E
:0209C000FFCF67
:1009C20030303A30303A3030202020203C4F4B3EFD
:1009D20000504D00414D005E5E004D6573736167CE
:1009E200652021004D61696E2054696D6520536553
:1009F2007400202020204D61696E204D656E7520A7
:100A020020003C003E0044533133303720525443DF
:100A12002045786D706C6500FF5365742054696DD4
:100A22006500536574204F6E2054696D65005365EF
:100A320074204F66662054696D65005175697400B3
:080A4200B900C200CE00DB0088
:00000001FF
