S013000055534261737020546573742E7372656323
S11300000EC015C014C013C012C011C010C00FC060
S11300100EC00DC00CC00BC00AC009C008C011241A
S11300201FBECFE5D2E0DEBFCDBF02D045C0E8CFD2
S1130030E7E3F0E08081877F808380818F7E808307
S113004080818160808380818260808380818460FC
S11300508083A6E3B0E0E8E3F0E028EA31E68C919F
S113006083FF0DC08C9184FF0AC080818E7F8083C2
S113007080818460808380818260808319C08C91B8
S113008083FD0DC08C9184FD0AC080818B7F8083A9
S113009080818260808380818160808309C08081C7
S11300A08D7F808380818460808380818160808370
S10F00B0C9010197F1F7D3CFF894FFCFFA
S9030000FC
