:100000000C9430010C9458010C9458010C94580134
:100010000C9458010C9458010C9458010C94481DF0
:100020000C94221D0C94061E0C94781E0C94941DA6
:100030000C946E1D0C942C1E0C94E01D0C94BA1D97
:100040000C94521E0C9458010C94CB1C0C94580127
:100050000C94F61C0C9424180C9458010C94580120
:100060000C9458010C945801881325002400230097
:100070006A00016A00026A00046A00086A00106AE5
:1000800000206A00406A00802800270026008800BF
:100090000188000288000488000888001088002079
:1000A0008800402B002A002900A30001A30002A31E
:1000B0000004A30008A30010A30020A30040A30095
:1000C00080B501006E00024700350002440006BB07
:1000D00000B901006E00044800350004440004B873
:1000E00000C801016F00028800360002800006731C
:1000F00000CC01016F00048A003600048000047601
:1001000000DB0102700002B300370002B000067984
:1001100000DF0102700004B400370004B00004B234
:1001200000AA01460045000700023388440001444C
:100130000002450008000001C1006E000135000109
:1001400000000000010000010000010000DF01BD0F
:10015000018400810007FF02FFDF800001800002B0
:10016000810008810010E1006F0001360001860067
:100170006F00203600208100407000DF01D001B206
:1001800000B1000700023388B00001B00002B100E6
:1001900008000001010170000137000100000000AB
:1001A000010000010000010000ED01700073007605
:1001B0000079007C007F00820085008E0091009411
:1001C0000097009A009D00A0000000A900AC00AFBD
:1001D00000B200B500B800BB00BE003A0142010603
:1001E00000000001000800400000010004080000B9
:1001F0000001000800200040008000000100045AB7
:1002000001CE01303132333435363738394142434B
:1002100044454600180900000001FFFF0203FFFFEC
:10022000FFFFFF05FFFFFF070001FFFF02035573FC
:100230006572204572726F723A25640A00576562D2
:10024000626F744C6962204572726F723A25640A5B
:1002500000DF169517D3176A179C178017003318FD
:1002600011241FBECFEFD4E0DEBFCDBF11E0A0E070
:10027000B1E0ECE2FEE302C005900D92A23AB107B4
:10028000D9F714E0A2EAB1E001C01D92A137B1078D
:10029000E1F712E0C0E6D2E004C02297FE010E941E
:1002A000101FCE35D107C9F70E94E5050C94141F25
:1002B0000C940000DF92EF92FF920F931F93CF9365
:1002C000DF93D62E8C01FC01848195810E948713D7
:1002D0007C01F801868197810E948713EC011D142F
:1002E0000CF52296FE01849122972EE2829FC00196
:1002F00011248F5D9E4F0E94190E8C018D2D992720
:1003000087FD909560E070E04FE750E020E030E03E
:100310000E9473068C01C70160E070E00E94B70D77
:10032000CE0128C0DD2041F122E030E0E20EF31ED4
:10033000F70184912EEF3FEFE20EF31E2EE2829F33
:10034000C00111248F5D9E4F0E94190E8C018D2DCE
:10035000992787FD909560E070E041E85FEF20E02D
:1003600030E00E9473068C01CE0160E070E00E94D4
:10037000B70DC701B80108C0C70160E070E00E9476
:10038000B70DCE0160E070E00E94B70DDF91CF9114
:100390001F910F91FF90EF90DF900895BF92CF9241
:1003A000DF92EF92FF920F931F93CF93DF93082F6B
:1003B000B92E162FC82FD92F8C819D810E948713AB
:1003C0007C018E819F810E9487136C01112331F083
:1003D000802F9B2D6A810E945A012BC022E030E0C1
:1003E000E20EF31EF70184912EEF3FEFE20EF31EB3
:1003F0001EE2819FC00111248F5D9E4F0E94190E45
:10040000BC01C7010E94B70D82E090E0C80ED91E62
:10041000F60184912EEF3FEFC20ED31E819FC001E3
:1004200011248F5D9E4F0E94190EBC01C6010E94CF
:10043000B70DDF91CF911F910F91FF90EF90DF905B
:10044000CF90BF9008956F927F928F929F92AF92BC
:10045000BF92CF92DF92EF92FF920F931F93DF93A1
:10046000CF9300D000D00F92CDB7DEB73C017A0118
:100470008B010E9487134C01009711F484EF05C093
:100480000E945913882329F083EF0E94270D10E062
:1004900063C022E030E0820E931EF40194912EEFAF
:1004A0003FEF820E931E8EE2989F5001112481E24D
:1004B00091E0A80EB91EC501B801A70120E830E0FF
:1004C0008E010F5F1F4FF2E0EF2EF12CEC0EFD1EA0
:1004D000E4E0CE2ED12CCC0EDD1E0E94CC14182FC1
:1004E000F501349695012A5F3F4F882369F4A59161
:1004F000B4918C91F9019491892311F483EE01C098
:1005000082EF0E94270D28C0A591B4918C91F9012A
:100510009491892359F435C0C5014F96FC01A591EA
:10052000B4918A819B8111969C938E93C3016FEF46
:100530000E94F006C40163E00E943E0BC40168ED16
:100540007AE040E050E020E030E00E94AB106C81A7
:100550007D81C5010E94410F812F0F900F900F9058
:100560000F900F90CF91DF911F910F91FF90EF901F
:10057000DF90CF90BF90AF909F908F907F906F90C3
:100580000895C50169810E94DD0F81E090E0098036
:1005900002C0880F991F0A94E2F780709575892B25
:1005A00009F0BACFC3CF6F927F928F929F92AF9292
:1005B000BF92CF92DF92EF92FF920F931F93CF9350
:1005C000DF934C01CB01BA012AE030E040E050E07B
:1005D0000E949E1E5B016C01D40112968C91082F23
:1005E00010E0015010407801EE0CFF1CAFEF6A2EB6
:1005F000A1E07A2E27C0D401ED91FC91EE0DFF1DF4
:10060000C591D4918C819D81B601A5010E942302E0
:10061000882351F08E819F81B601A5010E9423029B
:10062000882311F079826882CE0160E00E94EA049A
:10063000CE016FEF0E940A0501501040EEEFFFEF70
:10064000EE0EFF1EFFEF0F3F1F07A9F6DF91CF91C0
:100650001F910F91FF90EF90DF90CF90BF90AF90E0
:100660009F908F907F906F900895DC0119968D91E7
:100670009C911A970296FC0125913491CD01F901C4
:1006800009950895CF93DF93EC0188858E7F888745
:10069000EE89FF89309721F0888D998D6FEF09954C
:1006A000E985FA853896259134912115310519F09F
:1006B000CE01F9010995DF91CF910895CF93DF9392
:1006C000EC01888581608887E985FA853A962591CD
:1006D00034912115310519F0CE01F9010995EE8902
:1006E000FF89309721F0888D998D60E00995DF9121
:1006F000CF910895DC0119968D919C911A97FC0178
:1007000025913491CD01F90109950895DC011996DF
:10071000ED91FC911A973696259134919FB7789474
:1007200018968C91189780FFFBCF9FBFCD01F901E0
:1007300009950895DC01ED91FC911197309759F0DE
:100740002FB7F89484819581892B11F080E001C046
:100750008FEF2FBF08952FB7F8941B968D919C9122
:100760001C978F5F9F4F11F080E001C08FEF2FBF6C
:100770000895FC0180819181009719F00E94AB05DA
:1007800008952FB7F8948FEF9FEF948783872FBF3B
:100790000895EF92FF920F931F93CF93DF93EC0195
:1007A0007A018B01F8948D89882381F02D853E850F
:1007B0008F8598892817390721F0C90160E00E94C8
:1007C000C9068F8598896FEF0E94C9068885816068
:1007D000888788858B7F888788858D7F88878985AE
:1007E0009A850496FC0125913491CE01B801A701A8
:1007F000F90109957894DF91CF911F910F91FF90A6
:10080000EF9008950F931F93CF93DF93EC01062F82
:100810008A819B81892B19F419C00E94B4058A81B1
:100820009B810E94A3058823C1F71FB7F894888590
:1008300081FD04C08885826088870DC08A819B8184
:10084000602F0E945F050EC00E94B405888580FF5E
:10085000FBCF1FB7F894CE010E944203CE01602F58
:100860000E9435031FBF802FDF91CF911F910F9101
:100870000895EF92FF920F931F93CF93DF937C0124
:100880008B01EA0107C0F80161918F01C7010E9445
:10089000020421972097B9F7DF91CF911F910F9113
:1008A000FF90EF900895DF93CF930F92CDB7DEB70F
:1008B000FC0180819181009771F0BE016F5F7F4FD5
:1008C0000E943205882319F44FEF5FEF0DC0898134
:1008D000482F50E009C02FB7F894438554858FEF17
:1008E0009FEF948783872FBFCA010F90CF91DF912D
:1008F0000895EF92FF921F93DF93CF930F92CDB79E
:10090000DEB77C01FC01808581FF19C01FB7F89418
:10091000F70182819381BE016F5F7F4F0E94320594
:10092000882329F0C70169810E9435030DC0C701E2
:100930000E945E03F70180858D7F808705C01FB709
:10094000F894C7010E945E031FBF0F90CF91DF9103
:100950001F91FF90EF900895CF93DF93EC01262F26
:100960008C819D81892B39F0EC81FD816E817F81A5
:10097000822F099519C088819981009729F00E94DA
:100980005F05882389F40AC08B859C858F5F9F4F04
:1009900029F4862F90E09C878B8706C08885846029
:1009A000888785EF0E94270DDF91CF9108950F93DF
:1009B0001F930E940018E8E6F0E00591149160E0B2
:1009C00070E04FEF53E020E030E00E9473061F918B
:1009D0000F9108951F93CF93DF93EC01162F613889
:1009E0000CF411E8E881F981309779F02591349180
:1009F0002115310551F08B8181FD02C0612F02C0AC
:100A0000612F6195CE01F90109951A83DF91CF918C
:100A10001F910895DC01962F917013968C91139776
:100A20008E7F892B13968C9313978D919C911197A0
:100A3000009751F0FC013296259134912115310532
:100A400019F0CD01F90109950895FC018FB7F894CB
:100A500071836083538342831582148217821682C6
:100A60008FBF0895CF93DF93EC01DB012FB7F8948C
:100A7000009701F18A819B81892BE1F08C819D8116
:100A8000892BC1F0E881F9818E819F81E80FF91FE0
:100A900080818C938E819F816A817B8101960E94E7
:100AA000BD1E9F838E838C819D8101979D838C8346
:100AB0008FEF01C080E02FBFDF91CF9108951F938A
:100AC000CF93DF93EC01462F1FB7F8942C813D8123
:100AD0006A817B812617370710F080E011C08E8174
:100AE0009F81820F931F0E94BD1EE881F981E80F4C
:100AF000F91F40838C819D8101969D838C838FEFAC
:100B00001FBFDF91CF911F910895FC014FB7F8945B
:100B1000009719F420E030E006C0228133818481FF
:100B20009581281B390B4FBFC9010895FC018FB770
:100B3000F894309719F420E030E002C02481358128
:100B40008FBFC90108950E948505892B11F080E0AF
:100B500008958FEF0895FC01009729F08FB7F8945E
:100B6000158214828FBF08958FB77894000000001B
:100B7000000000000000000000008FBF08959C01ED
:100B8000FC01A591B4912E5F3F4FF90194918C9196
:100B9000892B8C9308959C01FC01A591B4912E5F43
:100BA0003F4FF90194918C91892309F08FEF0895BB
:100BB0009C01FC01A591B4912E5F3F4FF9019491E6
:100BC0008C91909589238C9308956F927F928F9248
:100BD0009F92AF92BF92CF92DF92EF92FF920F93CC
:100BE0001F930E94D11A0E94D21A0E9476100E946E
:100BF000D31A0E94A51C0E9411110E94200D5B01B6
:100C00006C010E948C1C7B018C01662477244301BB
:100C10000E94B405E114F1040105110519F40AC09C
:100C20000E94B405C601B501A80197010E94E41213
:100C30008823B1F30E94200D5B016C010894611CB4
:100C4000711C811C911CC401B301A60195010E9475
:100C5000D91A7B018C01DCCF4F925F926F927F9209
:100C60008F929F92AF92BF92CF92DF92EF92FF92BC
:100C70000F931F932B013A0159017801E21AF30AED
:100C80000027F7FC0095102F9C01261B370B4427EB
:100C900037FD4095542FC801B7010E949E1E64186D
:100CA0007508882477FC8094982CA40193010E94F5
:100CB000F31EC901DA01CC24B7FCC094DC2CA80EC9
:100CC000B91ECA1EDB1EC5011F910F91FF90EF9048
:100CD000DF90CF90BF90AF909F908F907F906F905C
:100CE0005F904F9008954F925F926F927F928F9294
:100CF0009F92AF92BF92CF92DF92EF92FF920F93AB
:100D00001F932B015A0139017801E21AF30A00E01E
:100D100010E09C01261B370B442737FD4095542FCC
:100D2000C801B7010E949E1EA418B508CC24B7FCC8
:100D3000C094DC2CA60195010E94F31E88249924FE
:100D4000260D371D481D591DC9011F910F91FF9098
:100D5000EF90DF90CF90BF90AF909F908F907F905B
:100D60006F905F904F9008959C01009781F0FC0177
:100D7000859194910496FC01A591B4912E5F3F4F0B
:100D8000F90194918C91892311F08FEF089580E0FF
:100D90000895CF93DF939C010097F9F0FC014591F2
:100DA0005491CA010296FC01A591B491FA01C59132
:100DB000D4912E5F3F4FF90194913FB7F8948C91F5
:100DC000292F209582238C93662319F08881892B03
:100DD00002C08881822388833FBFDF91CF9108952D
:100DE000CF93DF939C010097F9F0FC01459154915A
:100DF000CA010296FC01C591D491FA01A591B49162
:100E00002E5F3F4FF90124913FB7F894662319F004
:100E10008C91822B04C08C91922F909589238C9376
:100E20008881822B88833FBFDF91CF9108959C01F9
:100E3000009781F0FC01859194910296FC01A591A7
:100E4000B4912E5F3F4FF90194918C91892311F059
:100E50008FEF089580E00895CF93DF939C01009772
:100E6000E1F0FC0185919491FC01A591B491029669
:100E7000FC01C591D4912E5F3F4FF90124918881E7
:100E8000822341F09FB7F8948C9182278C939FBF67
:100E9000000003C087EF0E94270DDF91CF910895D6
:100EA000CF93DF939C010097E9F0FC018591949129
:100EB000FC01A591B4910296FC01C591D4912E5FDD
:100EC0003F4FF90124918881822349F09FB7F8941C
:100ED0008C91209582238C939FBF000003C087EFE5
:100EE0000E94270DDF91CF910895CF93DF939C014E
:100EF0000097E1F0FC0185919491FC01A591B491DA
:100F00000296FC01C591D4912E5F3F4FF9012491C7
:100F10008881822341F09FB7F8948C91822B8C9327
:100F20009FBF000003C087EF0E94270DDF91CF9184
:100F30000895662319F00E94750708950E945007CE
:100F400008951F93CF93DF93EC01162F8881998129
:100F50000097A9F03A8130FD05C020E0662309F42E
:100F600021E0122F31FD06C0612F0E94F0068A8118
:100F700082608A8388819981612F0E949907DF911D
:100F8000CF911F91089508954FB7F89420910001D3
:100F90003091010190930101809300014FBFC9017D
:100FA00008951F93182F8A3031F4E0910001F091D9
:100FB00001018DE00995E0910001F0910101812F7F
:100FC00009951F9108951F93CF93DF93182FEB017D
:100FD00004C0812F0E94D10721972097D1F7DF917C
:100FE000CF911F910895CF93DF93EC01009721F4E7
:100FF00006C021960E94D10788818823D1F7DF910E
:10100000CF910895CF93DF93EC01009719F407C0B7
:101010000E94D107FE01219684918823C9F7DF91B0
:10102000CF9108958AE00E94D1070895E82FF0E05B
:10103000EF70F070ED5FFD4FE4918E2F0E94D107AD
:1010400008952F923F924F925F926F927F928F926C
:101050009F92AF92BF92CF92DF92EF92FF920F9347
:101060001F93CF93DF935C01EB019B01295E3F4F00
:10107000F90165907490F901259034902796FE014E
:1010800084912797882309F4B5C02896FE0184919E
:101090002897823008F4AEC0CE010496FC01A591D9
:1010A000B4918C912696FE0194912697892309F498
:1010B000A5C0FE01A591B4918D909C9011971A96B0
:1010C0008C91882319F082EF0E94270DD50112968A
:1010D0008C91129717968C9364E170E080E090E019
:1010E000A4010E948B0AF50173876287607070709B
:1010F000611571058105910511F086EE7CC0D50161
:1011000012968C91E82EFF240894E108F1086701FB
:10111000CC0CDD1C84E1482E82E0582E33C0D50172
:10112000ED91FC911197EC0DFD1D05911491F801C5
:1011300051824082B582A4821A968D919C911B9710
:10114000938B828B8681978160E00E94F006D801A4
:1011500018966D917C9119971A964D915C911B97F9
:10116000C8010E940A0AC8016FEF0E940A05C8015F
:1011700060E00E94EA040894E108F108EEEFFFEF56
:10118000CE0EDF1EFFEFEF16FFEFFF0641F60E94C7
:10119000A90B8823D1F58101005F1F4FDFB6F894BA
:1011A000862D972D0E94EC0DD5011A964D915C91DC
:1011B0001B97480F591F862D972D6BE579E09501F8
:1011C0000E94AB10C8010E94EC0DF50142855385C9
:1011D000480F591FC8016BE379E095010E94AB10DD
:1011E000C80103960E94D805CE01B4010E94410FA8
:1011F000DFBE0BC089EF0E94270D07C0CE0169E159
:1012000070E00E94E10E4C0161CFDF91CF911F9100
:101210000F91FF90EF90DF90CF90BF90AF909F9095
:101220008F907F906F905F904F903F902F90089598
:101230000F931F93CF93DF93EC012C853D850E8593
:101240001F85862F992787FD909561E87FEF4FE7EF
:1012500050E00E9473069C018889998928173907F4
:1012600029F08FB7F894398B288B8FBFDF91CF91FE
:101270001F910F910895CF93DF93EC01FB019781AC
:101280008281981788F4892F90E0880F991F208118
:101290003181280F391FF901A591B49116968D91CE
:1012A0009C9117970E945007CE0103960E94D80583
:1012B000DF91CF9108958F929F92AF92BF92CF927C
:1012C000DF92EF92FF920F931F93CF93DF935C0116
:1012D000EB018C010E5F1F4FF80194918EE2989FF5
:1012E0007001112481E291E0E80EF91EF701779672
:1012F0008591949150E1852E912C880E991E43E1A1
:10130000C42ED12CC80ED91E02C00E94B405C6013D
:101310000E94CB058823C9F78B81882321F08F8118
:101320008F5F8F8310C08FEF8B83F80184912EE243
:10133000829FC00111248F5D9E4F0E942B0BBC0128
:10134000C5010E94B70D9F818A81981709F43CC09E
:10135000891718F41F82198618868F8190E0880FEC
:10136000991FE881F981E80FF91F05911491C701D0
:101370000E942B0B7C01F801838180FF04C08681D1
:1013800097810E947507F801608971896E0D7F1D34
:10139000C4010E94B70DC40108960E94BF05C60192
:1013A0000E94BF05F801668577856E0D7F1DC5011A
:1013B0000E94B70D88859985F80126853785820FAB
:1013C000931F9987888719C0C6010E94D805888510
:1013D00099856A857B856817790718F4C4E6D0E09B
:1013E00003C0EB01C81BD90BC5010E94EC0DC80F4F
:1013F000D91FC501BE010E94B70DDF91CF911F918A
:101400000F91FF90EF90DF90CF90BF90AF909F90A3
:101410008F9008959F92AF92BF92CF92DF92EF92FA
:10142000FF920F931F93CF93DF93EC017B018A010F
:10143000798768875B874A878C819D81892B09F42E
:101440005EC09FB6F8948A899B8968EE73E00E941B
:10145000BD1E5B01CC24DD24B701601B710B80E055
:1014600090E0A60195010E949E1E24E130E040E03C
:1014700050E00E94D11EC901DA019C01AD01DA01E0
:10148000C901807090700097A105B10539F086EE12
:101490000E94270D2FEF3FEF40E050E03D872C8763
:1014A0000E0D1F1DB80180E090E0A60195010E947D
:1014B0009E1E24E130E040E050E00E94D11EC901B0
:1014C000DA019C01AD01DA01C901807090700097CA
:1014D000A105B10539F086EE0E94270D2FEF3FEFF1
:1014E00040E050E03F872E878B8180FF07C06A81F4
:1014F00061506A836F5FCE010E94EA049FBEDF9154
:10150000CF911F910F91FF90EF90DF90CF90BF9000
:10151000AF909F900895EF92FF920F931F937A01DF
:1015200020919B0130919C0140E050E00E949E1E62
:1015300000E010E0A80197010E94D11ECA01B90184
:101540001F910F91FF90EF900895613023E0720793
:1015500020E0820720E0920748F423E030E040E0FA
:1015600050E00E94D11E2A95F1F708959B01AC012D
:1015700082E056954795379527958A95D1F7DA01F8
:10158000C901203060E0360761E0460760E0560799
:1015900020F08FEF9FEFA0E0B0E0FC013197F1F772
:1015A000A0E0B0E0281B390B4A0B5B0B41F7089514
:1015B00008958091A6019091A701A091A801B091F2
:1015C000A9010196A11DB11D8093A6019093A701C9
:1015D000A093A801B093A9010895FC01BC962591A0
:1015E0003491F90185919491582F2E5F3F4F40E03F
:1015F0000CC0F901859194912E5F3F4F8617970794
:1016000019F4242F30E005C04F5F451790F32FEFFA
:101610003FEFC90108950F931F93CF93DF938C0180
:1016200024E06130720710F060E074E0EB016115B6
:10163000710521F4C1E0D0E001C02196C801BE01CE
:101640000E94ED0A8F5F9F4FC1F3CE01DF91CF91D2
:101650001F910F9108959C010296FC01A591B491F0
:10166000295F3F4FF9018491882319F02D913C9116
:1016700003C08C91282F30E0C90108959C010B967E
:10168000FC01A591B491235F3F4FF901249170E0D3
:10169000022E02C0660F771F0A94E2F781E090E005
:1016A00002C0880F991F2A95E2F7282F220F282BB6
:1016B0009C91822F862320952923822B8C93089539
:1016C0009C010B96FC01A591B491235F3F4FF9015A
:1016D000449121E030E0042E02C0220F331F0A940F
:1016E000E2F7822F880F822B2C91822390E002C098
:1016F000959587954A95E2F70895FC01A591B491D7
:101700001296ED91FC911397309729F014966D91F4
:101710007C91159709950895FC01A591B4911696B1
:10172000ED91FC911797309729F018966D917C9167
:10173000199709950895FC01A591B491ED91FC913B
:101740001197309729F012966D917C911397099516
:1017500008958091650408959093690480936804C6
:1017600008958F929F92AF92BF92CF92DF92EF92A5
:10177000FF920F931F93CF93DF93982E892E5A01D8
:101780006B01C82FD92F8981882341F488811816CD
:1017900014F4888102C0888181958983888187FDBE
:1017A00008C030E2E32E31EAF32E37E0032F112D8B
:1017B00007C020E9E22E20EDF22E23E0022F112DAA
:1017C0008A8180FF1DC080916204909163040E9411
:1017D0001707882329F082E694E060E00E94A107C1
:1017E0008981815089838981882339F490E8E92EA1
:1017F00094E8F92E9EE1092F112D8A818E7F0FC06A
:1018000080916204909163040E941707882329F055
:1018100082E694E06FEF0E94A1078A8181608A834B
:1018200081EB9BE0692D782DA60195010E942D1A70
:10183000DF91CF911F910F91FF90EF90DF90CF90AC
:10184000BF90AF909F908F900895DF92EF92FF929C
:101850000F931F93CF93DF939C01EB01FC01A591A4
:10186000B4911A968C91398328832115310539F466
:101870001A821B821C821D821F821E82B1C084308C
:1018800039F0893029F08B3019F08F3009F048C0D9
:10189000F901779665917491DFB6F89452E0E52EE0
:1018A000F12CE20EF31EF701A591B4918901095FB5
:1018B0001F4FF8018491882319F04D915C9103C06A
:1018C0008C91482F50E080916A0490916B04281706
:1018D000390729F080E090E0A0E0B0E008C08091F6
:1018E000A6019091A701A091A801B091A9018A83B6
:1018F0009B83AC83BD83F701A591B491F8018491DA
:10190000882319F08D919C9102C08C9190E09F8367
:101910008E838417950708F449C0CB01089642C00E
:10192000DFB6F89442E0E42EF12CE20EF31EF7014C
:10193000A591B4918901095F1F4FF8018491882313
:1019400019F04D915C9103C08C91482F50E080912B
:101950006A0490916B042817390729F080E090E021
:10196000A0E0B0E008C08091A6019091A701A091ED
:10197000A801B091A9018A839B83AC83BD83F70141
:10198000A591B491F8018491882319F08D919C91CF
:1019900002C08C9190E09F838E838417950730F06E
:1019A000C9014C960E94CB058823C9F08A819B818E
:1019B000AC81BD810196A11DB11D8A839B83AC833F
:1019C000BD83F701A591B491F8018491882319F0A2
:1019D0008D919C9102C08C9190E09F838E83DFBE9D
:1019E000DF91CF911F910F91FF90EF90DF900895BD
:1019F000BC0180916A0490916B040E94250C0895AB
:101A00000F931F93DF93CF93CDB7DEB728970FB611
:101A1000F894DEBF0FBECDBF8E010F5F1F4FB80120
:101A20000E94250CC8010E94750E28960FB6F894E6
:101A3000DEBF0FBECDBFCF91DF911F910F910895F3
:101A400080916A0490916B040E94000D0895DF92CA
:101A5000EF92FF920F931F93D82E809165048823F5
:101A600009F05BC0D0926504809162049091630498
:101A7000892B99F080916A0490916B04892B69F00D
:101A80000E94200D9B01AC0181EB9BE065E674E0B8
:101A9000EE24FF2487010E942D1A80916804909102
:101AA00069040097D1F10E94C4078C012D2D3327C2
:101AB00027FD3095D7FE16C000D000D00F92EDB7AD
:101AC000FEB7319681E0ADB7BEB711968C938DE32A
:101AD00092E09283818388279927821B930B9483BA
:101AE000838311C000D000D00F92EDB7FEB73196BE
:101AF00081E0ADB7BEB711968C938EE292E09283EF
:101B00008183348323830E9469180F900F900F9074
:101B10000F900F90C8010E94C4071F910F91FF9072
:101B2000EF90DF900895CF93DF93EC012296FE01B2
:101B3000949122978EE2989FF0011124E75DFE4F69
:101B4000E491EE2371F0CE0103960E94D805CE01F8
:101B500060E00E943E0BFE01A591B4911D921C9283
:101B600003C08DEF0E94270DDF91CF910895CF9391
:101B7000DF939C012E5F3F4FF9018491225030404A
:101B80009EE2899FA00111244F5D5E4F485F5F4F29
:101B9000FA018491485050408823C1F0C90106964B
:101BA000FC01C591D491FA013796E491EE2319F026
:101BB000798368830EC06F3F710531F028F08EEF96
:101BC0000E94270D6FEF70E0688303C08DEF0E94C5
:101BD000270DDF91CF9108959C012E5F3F4FF901B2
:101BE0008491225030409EE2899FA00111244F5DD4
:101BF0005E4F485F5F4FFA01849148505040882300
:101C000089F0C9010696FC01A591B491FA013796B5
:101C1000E491EE2319F02D913C9109C08C91282F6D
:101C200030E005C08DEF0E94270D2FEF30E0C90195
:101C30000895CF93DF93EC010496FC01A591B49134
:101C40008C912696FE0194912697892309F441C030
:101C5000FE01A591B4911A968C91873039F18830A4
:101C600070F4833019F1843028F48130C9F0823067
:101C7000D0F413C08530A1F08630A8F41AC08B30A0
:101C8000C1F08C3018F48930E1F413C08E30C9F003
:101C90008F3079F08C30E9F414C02FEF3FEF1BC088
:101CA0002FEF30E018C02FEF31E015C02FEF33E0F9
:101CB00012C0FE017796859194910E94EC0D9C01D3
:101CC0000AC0CE014F96FC01A591B4912D913C9193
:101CD00002C020E030E02796FE018491882309F4B9
:101CE0003070C901DF91CF9108956F927F928F92EA
:101CF0009F92AF92BF92CF92DF92EF92FF920F939B
:101D00001F93CF93DF938C01FC01808191810E940E
:101D1000190E3C0188249924F80120813181809199
:101D20006A0490916B04A280B380C480D580C68180
:101D3000D7812817390701F5E090A201F090A3019F
:101D40000091A4011091A501C801B701A601950158
:101D50000E949E1E5B016C01BE0180E090E0A80124
:101D600097010E949E1EA40193010E94D11E2A0D7C
:101D70003B1D4C1D5D1D14C00894611C711C811C11
:101D8000911CC401B301A60195010E949E1E9B01F6
:101D9000AC01CE01A0E0B0E0280F391F4A1F5B1F45
:101DA000B901CA01DF91CF911F910F91FF90EF9080
:101DB000DF90CF90BF90AF909F908F907F906F906B
:101DC00008954F925F926F927F928F929F92AF92FF
:101DD000BF92CF92DF92EF92FF920F931F93CF9318
:101DE000DF938C01095F1F4FF80184910750104069
:101DF000882331F4AFEFAA2EB12CC12CD12C06C010
:101E0000FFEFAF2EFFEFBF2EC12CD12CC1E0D0E0F1
:101E1000E1E04E2E512CEE24FF243B01882499242E
:101E2000C801BE010E94ED0A8F5F9F4F59F0C401A7
:101E3000B301AE010E948B0AA616B706C806D906E2
:101E400070F42E01CC0FDD1F0894E11CF11C2BE077
:101E5000E216F10429F788EF0E94270DE201CE0176
:101E6000DF91CF911F910F91FF90EF90DF90CF9076
:101E7000BF90AF909F908F907F906F905F904F90AA
:101E80000895CF92DF92EF92FF920F931F93CF931B
:101E9000DF93EC016B01FC013496059114912696B9
:101EA000FE01F4902697EFB6F894CE010E94ED0A59
:101EB000AC01FFEF8F3F9F0771F0FE01A591B49138
:101EC000CD92DC92F8018081F0948F218083808113
:101ED000842B808303C08AEF0E94270DEFBEDF9121
:101EE000CF911F910F91FF90EF90DF90CF900895C9
:101EF0007F928F929F92AF92BF92CF92DF92EF929A
:101F0000FF920F931F93CF93DF93EC01FC01329666
:101F100005911491FC01859094907FB6F8940496F5
:101F2000FC01A591B4919C912696FE01849126977F
:101F3000809598239C93B9E1AB2EB12CAC0EBD1EBD
:101F4000C5010E94D805F8011082F40160817181F9
:101F5000CE010E94410F2896FE01E4902F96FF24A7
:101F600000E010E0FE01C590D490679709C0C6015B
:101F7000800F911F08960E94BF05F394005F1F4FCA
:101F8000FE14A8F3CE014C960E94BF05F401828195
:101F90009381892B19F0C5010E94BF057FBEDF9197
:101FA000CF911F910F91FF90EF90DF90CF90BF9056
:101FB000AF909F908F907F900895DF92EF92FF9265
:101FC0000F931F93CF93DF93EC01662341F0FC0145
:101FD000A591B4911A968C91861709F47FC0FE01E1
:101FE00039962591349181E090E0062E02C0880F49
:101FF000991F0A94E2F782239323892B09F46BC07B
:10200000FE01A591B4911A966C93FFED2F3F3F0707
:1020100011F4D62E13C088E82333380731F4E62FA5
:10202000F0E0E85EFD4FD49009C02333310509F09C
:1020300052C0E62FF0E0E85DFD4FD490AFEFDA1626
:1020400009F449C0CE010496FC01A591B4919C917C
:102050002696FE0184912697809598239C938E0165
:10206000055F1F4FEE24FF24D801ED91FC9185916F
:102070009491892BA1F0D0FE04C0C8010E94BF0535
:1020800003C0C8010E94D8050894E11CF11CB4E00B
:10209000EB16F10421F0D6940D5F1F4FE5CF289683
:1020A000FE01149111502F96FE01E590F490679770
:1020B0000CC0812F90E004E0880F991F0A95E1F78A
:1020C0008E0D9F1D0E94930D115017FFF2CFCE0170
:1020D0000E94780F03C086EF0E94270DDF91CF91F9
:1020E0001F910F91FF90EF90DF900895FF920F9353
:1020F0001F93CF93DF93F89410E000919F018EE23D
:10210000F82E20C01F9DE0011124CF5DDE4FCE01CF
:1021100060E070E040E050E00E94D313CE010E94E6
:102120000713CE0160E00E94DD0FCE010496FC0192
:10213000A591B4918C912696FE0194919095892356
:102140008C931F5F1017F0F27894DF91CF911F915D
:102150000F91FF9008958F929F92AF92BF92CF926E
:10216000DF92EF92FF920F931F93CF93DF938C0137
:102170006B015A0149010E5F1F4FF8018491025013
:1021800010409EE2899FE0011124CF5DDE4F28962A
:10219000FE01849128978823A1F1F801E590F4903D
:1021A0006115710541F0F70180819181892B19F04A
:1021B0008BEF0E94270DCE01FE01A591B4916D9188
:1021C0007C910E94410FE8012396CE010E94D80520
:1021D000C801B5010E94B70DF701D182C082938278
:1021E0008282C80108960E94BF05C114D10461F023
:1021F000F8EDCF16FAE0DF0639F0CE010E94BF05F8
:1022000003C08DEF0E94270DDF91CF911F910F9199
:10221000FF90EF90DF90CF90BF90AF909F908F9006
:1022200008952F923F924F925F926F927F928F927A
:102230009F92AF92BF92CF92DF92EF92FF920F9355
:102240001F93DF93CF9300D000D0CDB7DEB71092AD
:102250006B0410926A0400919F0101508EE2080203
:102260006001112421E231E0C20ED31EAA24BB2456
:10227000222433241A82198259C0C6010496FC0113
:10228000A591B4918C9126E030E0C20ED31EF601E8
:1022900094912AEF3FEFC20ED31E892309F041C06B
:1022A000DBC088E090E0C80ED91EF601849128EFCB
:1022B0003FEFC20ED31E8230A0F13FEF2316310450
:1022C00069F060F087E090E0C80ED91EF6018491B5
:1022D00029EF3FEFC20ED31E882319F1C6016CE02F
:1022E00070E00E94E10EF82EE92E6CE070E080E0D4
:1022F00090E04F2D5E2D0E948B0A9B01AC01A11432
:10230000B10441F0C101A0E0B0E082179307A40737
:10231000B50738F4190156018F2D9E2D9C013A8383
:102320002983015082ED9FEFC80ED91E07FFA5CF6C
:10233000A114B10409F487C0E7E0F0E0AE0EBF1EBF
:10234000F501849129EF3FEFA20EB31E882331F4EB
:102350003FEFC32ED12CE12CF12C06C02FEFC22E63
:102360002FEFD22EE12CF12C9CE0892E912C210113
:102370006624772461E070E080E090E049815A8132
:102380000E948B0A6F5F7F4F8F4F9F4F640D751DAB
:10239000861D971D6C157D058E059F0528F5C401CA
:1023A00001969C838B83C5016B817C810E94E10E29
:1023B0008C01EB81FC81BF0180E090E0A8010E94CC
:1023C0008B0A29813A810217130771F4C616D706C2
:1023D000E806F90648F0461657066806790620F41E
:1023E0001B018B809C80C3CFB0926B04A0926A04C7
:1023F000B40180E090E028EE33E040E050E00E943D
:102400009E1E6093A2017093A3018093A4019093F8
:10241000A501C50169817A810E94410F80916A04FA
:1024200090916B0464E00E94DD0FE0916A04F091EA
:102430006B0477968591949169ED7AE0A10120E093
:1024400030E00E94AB1080916504882361F0109207
:1024500065040E94270D07C0F60139968591949175
:1024600084FD1FCF5ECF0F900F900F900F90CF91F4
:10247000DF911F910F91FF90EF90DF90CF90BF9071
:10248000AF909F908F907F906F905F904F903F9014
:102490002F9008958F929F92AF92BF92CF92DF922A
:1024A000EF92FF920F931F93CF93DF936B017C0109
:1024B00049015A01E8010E94200D6C197D098E091D
:1024C0009F0986169706A806B90650F46819790977
:1024D0008A099B09688379838A839B838FEF09C06C
:1024E000861A970AA80AB90A88829982AA82BB82A8
:1024F00080E0DF91CF911F910F91FF90EF90DF90DF
:10250000CF90BF90AF909F908F900895AF92BF9261
:10251000CF92DF92EF92FF920F931F935B016C01BA
:102520000E94200D7B018C0101C000000E94200D43
:102530006E197F09800B910B6A157B058C059D0533
:10254000A0F31F910F91FF90EF90DF90CF90BF907D
:10255000AF90089528EE33E040E050E00E949E1EC8
:102560000E94861208959B01AC0180916A049091AB
:102570006B04892B29F0CA01B9010E94AA1208959F
:10258000CA01B90141E050E00E948B0A0E94A50AED
:1025900008959B01AC0180916A0490916B04892B92
:1025A00051F0253631054105510528F0CA01B90120
:1025B0000E9486120895CA01B90148EE53E00E94B4
:1025C0008B0A0E94A50A0895AF92BF92CF92DF9224
:1025D000EF92FF920F931F937B018C0159016A01C7
:1025E0000E94200D6E197F09800B910B6A157B05E7
:1025F0008C059D0510F480E001C08FEF1F910F91B5
:10260000FF90EF90DF90CF90BF90AF900895EF9242
:10261000FF920F931F938C01FC01E590F49081963B
:102620000E94D805C80184960E94BF05F701178251
:1026300016821F910F91FF90EF900895AF92BF9275
:10264000CF92DF92EF92FF920F931F93CF93DF937E
:102650008C017B016A01B22EFC01C591D4918E815F
:102660009F81892B19F08AEE0E94270DAFB6F8944E
:10267000FF82EE82D986C886C8018796BB2019F0F2
:102680000E94BF0502C00E94D805C80184960E941E
:10269000BF05C80181960E94BF05AFBEDF91CF91F3
:1026A0001F910F91FF90EF90DF90CF90BF90AF9070
:1026B00008959C01FC01A591B4918D919C91892B69
:1026C00011F52E5F3F4FF9019491225030408EE278
:1026D000989FB00111246F5D7E4FAB01495E5F4F43
:1026E000FA01859194912817390779F4FB01A59196
:1026F000B4911A968C91843031F0893021F08B306E
:1027000011F08F3011F48FEF089580E00895BF929B
:10271000CF92DF92EF92FF920F931F93CF93DF93AD
:102720006C01B0909F0121E231E0C0E0D0E090E088
:102730002DC0285F3F4FF901E49028503040F90147
:102740007796295F3F4F80E0A0E0B0E005911491BB
:10275000F901F4902750304014C0B8016A0F7B1F74
:10276000FB013E96459154914115510541F04C15A0
:102770005D0529F4FF2011F0EB010AC0EB018F5F2A
:1027800050968E1550F39F5F225D3F4F9B1588F248
:10279000CE01DF91CF911F910F91FF90EF90DF90CD
:1027A000CF90BF900895DF92EF92FF920F931F9307
:1027B000CF93DF93EC018B017A01DFB6F8946115BA
:1027C000710561F0FC01A591B49112968D919C91D7
:1027D0001397892B19F08CEF0E94270DCE01FE0173
:1027E000A591B49113961C930E9312971596FC9293
:1027F000EE9214974996012B19F00E94BF0502C072
:102800000E94D805DFBEDF91CF911F910F91FF90FD
:10281000EF90DF900895CF92DF92EF92FF920F93A7
:10282000DF93CF9300D000D0CDB7DEB7082F7B0168
:10283000D42EC52E609197017091980180919901D5
:1028400090919A012AE030E040E050E00E949E1E04
:10285000970140E050E029833A834B835C830E94D8
:10286000D11EB901FA010630E1F1073060F40230FF
:1028700029F1033018F4013071F415C0033009F167
:10288000053049F40DC00830A9F0083068F10A306D
:1028900089F00E3059F020E030E040E050E033C0E5
:1028A0002FEF30E023C02FEF30E00DC08D2D9C2D99
:1028B0009C011CC08D2D9C2D9C0105C02FEF31E08B
:1028C00002C02FEF33E040E050E0CF010E94D11E64
:1028D000C901DA019C01AD015695479537952795B9
:1028E00012C02FEF31E002C02FEF33E040E050E0A4
:1028F0002F5F3F4F4F4F5F4FCF010E94D11EC90145
:10290000DA019C01AD01B901CA010F900F900F903F
:102910000F90CF91DF910F91FF90EF90DF90CF90CC
:102920000895CF93DF939C010496FC01A591B49187
:102930008C912A5F3F4FF9019491265030408923B2
:1029400029F420E030E040E050E021C0F901C591D9
:10295000D491AA856881798181E090E00A2E02C035
:10296000880F991F0A94E2F780709575892B19F4E6
:1029700040E050E007C0C9014F96FC01C591D491D9
:10298000488159818A2F0E940B149B01AC01B90127
:10299000CA01DF91CF9108952F923F924F925F929B
:1029A0006F927F928F929F92AF92BF92CF92DF925F
:1029B000EF92FF920F931F93DF93CF93CDB7DEB7C4
:1029C0006E970FB6F894DEBF0FBECDBF3C014A0133
:1029D0005B013C872B871E870D87F88AEF86DA8A92
:1029E000C98A0496FC01A591B4918C9126E030E04F
:1029F000620E731EF30194912AEF3FEF620E731E75
:102A0000892321F4DD243FE03A8707C0F301A59133
:102A1000B4911A96FC91FA87DF2EE0909701F0901E
:102A200098010091990110919A0129E030E0620E1D
:102A3000731EC801B70196958795779567952AE02B
:102A400030E040E050E00E949E1E6F8B788F898FAF
:102A50009A8FC801B7010E949E1E6B8B7C8B8D8B59
:102A60009E8BCC241E821F82188619861D821C8292
:102A70001B821A821982F301459154915C8F4B8F0E
:102A800087EF9FEF680E791EAB85BC851D0144243E
:102A9000552457C121E030E00D2C02C0220F331F16
:102AA0000A94E2F7C9018E7E9F7C892B09F448C104
:102AB000C901EB8DFC8D8E239F23892B09F440C126
:102AC000F6E0DF1609F1FD1590F022E0D216F9F0DC
:102AD0002D1528F031E0D31609F032C11EC043E0B5
:102AE000D416F1F055E0D51609F02AC113C088E0DC
:102AF000D816C9F0D81688F19AE0D916A1F0AEE040
:102B0000DA1609F01DC12CC00FEF11E02BC00FEF3A
:102B100011E00BC00FEF10E025C00FEF10E005C073
:102B20000FEF13E002C00FEF1FEF81149104A10417
:102B3000B10429F46F89788D898D9A8D0AC06F89C7
:102B4000788D898D9A8DA50194010E94D11EB901BD
:102B5000CA01980140E050E020C00FEF13E002C02E
:102B60000FEF1FEF81149104A104B10429F46B89C4
:102B70007C898D899E890AC06B897C898D899E8913
:102B8000A50194010E94D11EB901CA01980140E03B
:102B900050E02F5F3F4F4F4F5F4F0E94D11EC90142
:102BA000DA0182309105A105B10508F405C1813033
:102BB000E4E09E07E0E0AE07E0E0BE0720F080E042
:102BC00094E0A0E0B0E0BC01C3010E940B0B8114B3
:102BD0009104A104B10439F420E034E03E8F2D8F3C
:102BE0000FEF1FEF7DC03FEF83163FEF93063FEFE0
:102BF000A3063FEFB30639F40B851C8541E050E096
:102C00005E8F4D8F6DC0DC011197BE8FAD8FEE24AE
:102C1000FF248701ED8DFE8D3196C301BF010E9417
:102C20000B0B9E8F8D8FFAE0DF1631F02EE0D2165F
:102C3000C9F038E0D31681F56F89788D898D9A8D2A
:102C4000A50194010E94D11EB901CA01AD8DBE8DAE
:102C50009D0140E050E00E94D11EC901DA017C01D3
:102C60008D011AC06B897C898D899E89A50194018B
:102C70000E94D11EB901CA01ED8DFE8D9F0140E079
:102C800050E00E94D11EC901DA017C018D01089437
:102C9000E108F108010911092D8D3E8D20503440C5
:102CA00048F4D801C701807090700097A105B10564
:102CB00009F0B0CFD801C701803050E0950751E04E
:102CC000A50750E0B50720F08FEF9FEFA0E0B0E040
:102CD00082159305A405B50510F4D201C1018C013C
:102CE0008D2D6D8D7E8DA8010E940B148616970682
:102CF000A806B90628F4681979098A099B0908C049
:102D0000A5019401261B370B480B590BCA01B901C9
:102D1000CC2049F02E813F81488559856217730781
:102D20008407950768F46E837F8388879987DD829F
:102D30004D8D5E8D5C834B831A830983CC24CA94AA
:102D4000D3945A855D1508F0A5CECC20D9F08D8599
:102D50009E85009719F0ED81DC01EC932F85388971
:102D60002115310529F0E981FA81D901ED93FC9310
:102D700029893A892115310529F0EB81FC81D90196
:102D8000ED93FC938C2D6E960FB6F894DEBF0FBEBC
:102D9000CDBFCF91DF911F910F91FF90EF90DF900A
:102DA000CF90BF90AF909F908F907F906F905F90EB
:102DB0004F903F902F90089561E070E005CFBF9253
:102DC000CF92DF92EF92FF920F931F93CF93DF93F7
:102DD0007A018B01EC01BFB6F8944F3F8FEF580793
:102DE0008FEF68078FEF780721F4A1E0CA2ED12C6E
:102DF00024C0CB01BA01F3E0660F771F881F991F2B
:102E0000FA95D1F72091970130919801409199015D
:102E100050919A01620F731F841F951FA80197019B
:102E2000E4E0220F331F441F551FEA95D1F70E949B
:102E3000D11E69010894C108D1089EA19923C9F146
:102E4000EA8DFB8D80819095892380838FEFE81632
:102E50008FEFF8068FEF08078FEF180719F421E0BE
:102E600030E01DC032E0EE0CFF1C001F111F3A9530
:102E7000D1F760919701709198018091990190919B
:102E80009A016E0D7F1D801F911FEE0CFF1C001F0D
:102E9000111FA80197010E94D11E215030402C150E
:102EA0003D0538F0EA8DFB8D80819EA1892B8083C2
:102EB0006901EE8DFF8DC082E8A1F9A1D082BFBE6D
:102EC000DF91CF911F910F91FF90EF90DF90CF9006
:102ED000BF900895DC015C96ED91FC915D97808137
:102EE0008772808396969C919697992341F05A9683
:102EF000ED91FC915B978081909589238083089563
:102F0000DC0155968C915597882371F05C96ED9174
:102F1000FC915D978081877B80835C96ED91FC912D
:102F20005D978081806980830895DC019296ED91A0
:102F3000FC91939760830895DC0155968C91559789
:102F4000882371F05C96ED91FC915D9780818F767E
:102F500080835C96ED91FC915D978081886480838D
:102F60000895DC015C96ED91FC915D97662319F064
:102F700080818F7702C08081806880830895DC0122
:102F80005A96ED91FC915B97808187FD03C02FEFEE
:102F90003FEF07C09296ED91FC9193978081282F87
:102FA00030E0C9010895CF93DF93EC010E947A03CA
:102FB0008D89882311F020E90CC08D859E85892B91
:102FC00011F020E901C020E08F859889892B09F054
:102FD0002864EC8DFD8D2083DF91CF910895EAE781
:102FE000F0E08081877F808380818F778083089560
:102FF000EAE7F0E090818770987F892B80830895BD
:1030000090917C008F71907E892B80937C00109230
:103010006C0480917A00806180937A0080917A00BC
:10302000806480937A0080917A0086FDFCCF2091A5
:10303000780030917900C90108950E940018969592
:1030400087959695879508951F920F920FB60F92C8
:1030500011248F938FEF80936C048F910F900FBE8C
:103060000F901F901895CF93DF9380917A0080681E
:1030700080937A0080917A008F7D80937A0080918E
:103080007A00887F866080937A0080917C008F73BD
:10309000806480937C0080917C008F7D80937C0095
:1030A00080917A00886080937A008FEF80936C041F
:1030B00078948091A001C82FD0E003C08C2F0E948B
:1030C000001821978FEFCF3FD807C1F7DF91CF913D
:1030D00008957F928F929F92AF92BF92CF92DF928C
:1030E000EF92FF920F931F93DF93CF930F92CDB781
:1030F000DEB77988CA88DB8864E1E62EF12CEC0E15
:10310000FD1E17C0882389F480E090E00F90CF91D6
:10311000DF911F910F91FF90EF90DF90CF90BF90C4
:10312000AF909F908F907F9008950E94D107570194
:10313000750196012F5F3F4F772021F0F60169015D
:10314000849103C0F601808169018532D9F62F5F31
:103150003F4F772021F0F6016901949103C0F601F9
:10316000908169019337A1F0943738F49336D9F000
:10317000943641F0953209F525C0953719F0983706
:10318000E1F422C000E117E25AE0852E912C21C023
:1031900042E0A42EB12CAE0CBF1CF70180819181BE
:1031A0000E94F307C5CF32E0A32EB12CAE0CBF1C9A
:1031B000F70180810E94D107BBCF85E299830E94ED
:1031C000D1079981892FB1CF00E010E120E1822E53
:1031D000912C82E0A82EB12CAE0CBF1CF701E08030
:1031E000F180943651F4F7FE14C0F094E194F108A4
:1031F000F3948DE20E94D1070CC0953769F409C0A1
:10320000C8016AE070E00E94BD1E8B01623071054A
:1032100018F0E016F106A0F3C701B8010E94BD1E28
:10322000862F0E941608C701B8010E94BD1E7C01AE
:10323000C801B4010E94BD1E8B016115710561F7C3
:1032400077CF2F923F924F925F926F927F928F92A1
:103250009F92AF92BF92CF92DF92EF92FF920F9325
:103260001F93DF93CF93CDB7DEB729970FB6F894AE
:10327000DEBF0FBECDBF998788870E94930D2FB701
:103280002F8378948FEF8093700410926F04809155
:103290003901A82FB0E01197BE83AD83EDE0F0E0D7
:1032A000AE9F5001AF9FB00CBE9FB00C11242FEE0B
:1032B00032E0A20EB31E2224332421015AC0D501CC
:1032C0008C91882309F44CC019966D907D908D9057
:1032D0009C901C971596CD90DD90ED90FC901897E2
:1032E000C401B301A70196018E010F5F1F4F0E9419
:1032F0004A12882319F1D5011196ED91FC9112978C
:1033000013968D919C9114971C9220916D0430918D
:103310006E042150304030936E0420936D04C60C2F
:10332000D71CE81CF91C09811A812B813C81B7014B
:10333000A6010995BFEFB0936F0412C021143104A8
:103340004104510449F089819A81AB81BC81821585
:103350009305A405B50520F429803A804B805C8054
:10336000ED81FE813197FE83ED8323EF3FEFA20EC7
:10337000B31E8D819E818F5F9F4F09F0A0CF8091FA
:103380006F04882309F081CF1092700480916D043E
:1033900090916E04181619060CF044C0F0906A045F
:1033A000E0906B04EF2DFE2D0591149120919D016D
:1033B00030919E0140E050E0C201B1010E949E1E8A
:1033C000F8012081318140E050E00E94D11E590176
:1033D0006A018F2D9E2D0E94190E7C0100E010E0E5
:1033E000AE14BF04C006D10610F4860175018091A9
:1033F0006A0490916B040E94190E8C0180916A04FA
:1034000090916B040E942B0B8E0D9F1DB8010E94A2
:10341000BD1EAC018885998561E279E120E030E04C
:103420000E94AB10FF81FFBF29960FB6F894DEBF54
:103430000FBECDBFCF91DF911F910F91FF90EF9005
:10344000DF90CF90BF90AF909F908F907F906F90C4
:103450005F904F903F902F9008952F923F924F9200
:103460005F926F927F928F929F92AF92BF92CF9214
:10347000DF92EF92FF920F931F93DF93CF9300D0D1
:1034800000D0CDB7DEB71C012B0149015A016701FD
:10349000780188EEC81683E0D80680E0E80680E070
:1034A000F80638F4809170048823C1F18FEF80937F
:1034B0006F046FB7F89480913901482F50E0AFEE58
:1034C000B2E020E030E020C0FD018C911D96882301
:1034D000C9F48FEF808332822182548243828186B5
:1034E0009286A386B486C582D682E782F0868091D2
:1034F0006D0490916E04019690936E0480936D0418
:103500008FEF06C02F5F3F4F24173507ECF280E0A6
:103510006FBF882359F58FEF0E94270D3E01089455
:10352000611C711CC501B401A701960183010E94B1
:103530004A128823B9F3C80CD91CEA1CFB1C098168
:103540001A812B813C81C201B701A601F1010995C5
:1035500011C0E0916A04F0916B0477968591949183
:10356000409660E070E00E94211904C080917004D0
:10357000882379F30F900F900F900F90CF91DF91E8
:103580001F910F91FF90EF90DF90CF90BF90AF9081
:103590009F908F907F906F905F904F903F902F9073
:1035A000089508950895089582E191E00E945304DA
:1035B0000895AF92BF92CF92DF92FF920F931F9325
:1035C000DF93CF93CDB7DEB7A0970FB6F894DEBFE9
:1035D0000FBECDBFA89582E191E00E9453048C01FB
:1035E00080E00E94D7045C01FF246E010894C11C96
:1035F000D11C0AC0F601EF0DF11D0083F39482E1A6
:1036000091E00E9453048C018FEF0F3F180791F750
:103610008091E40190E09C012170307080FD04C035
:103620001092E6011092E7011092E8011092E90170
:103630001092EA011092EB011092EC011092ED0150
:103640001092EE011092EF018981833509F050C18B
:10365000FE01EF0DF11D8081843509F049C1232B56
:1036600031F48A818093E6018B818093E7018C811C
:103670008093E8018D818093E9018E818093EA0136
:103680008F818093EB0188858093EC0189858093FD
:10369000ED018B858093EE018A858093EF01809107
:1036A000E60190E060E87FEF40E850E021E83FEF7E
:1036B0000FE710E00E942C06F82E8091E70190E0C1
:1036C00060E87FEF40E850E021E83FEF0E942C06E1
:1036D000182F8DE491E06F2D0E94EA0481E691E0BD
:1036E000612F0E94EA0484E9A81681E1B80680F4FB
:1036F0008091E5018F5F8093E50180FD04C080E942
:1037000091E060E003C080E991E06FEF0E94A107C3
:103710008091EB01882381F08091E3018F5F80939A
:10372000E30180FD04C08DE891E060E003C08DE816
:1037300091E06FEF0E94A107FC848BE0F81641F442
:1037400087E891E06FEF0E94A1078AE891E029C025
:103750008091EF018823D9F087E891E060E00E9432
:10376000A1078AE891E06FEF0E94A1078091EC0128
:1037700090E060E070E04FEF50E020E030E001E8E2
:103780001FEF0E942C06682F8AE391E02CC08AE18B
:10379000F81659F48AE891E06FEF0E94A10787E8D4
:1037A00091E060E00E94A1073AC08091EE01882379
:1037B000E9F08AE891E060E00E94A10787E891E0E3
:1037C0006FEF0E94A1078091EC0190E060E070E053
:1037D0004FEF50E020E030E00FE710E00E942C06B1
:1037E000682F82E491E00E94EA040AC087E891E031
:1037F00060E00E94A1078AE891E060E00E94A107D2
:1038000089E0F81621F48DE491E061E806C088E0D3
:10381000F81629F48DE491E06FE70E94EA048091A4
:10382000EA01882329F08091E4018F5F8093E4010D
:103830008091ED01882309F190E060E070E04FEFA6
:1038400050E020E030E001E81FEF0E942C06682FD6
:103850008AE391E00E94EA048091EF018823C9F590
:103860008091EE018823A9F587E891E06FEF0E942F
:10387000A1078AE891E06FEF24C08091EC018823D2
:1038800019F190E060E070E04FEF50E020E030E0B0
:103890000FE710E00E942C06682F8AE391E00E9457
:1038A000EA048091EF018823A1F48091EE0188233E
:1038B00081F487E891E060E00E94A1078AE891E046
:1038C00060E00E94A10705C08AE391E060E00E94E9
:1038D000EA0484E0F81621F48AE391E06FE706C079
:1038E00086E0F81629F48AE391E061E80E94EA0490
:1038F00060E47DE083E090E0A0960FB6F894DEBF30
:103900000FBECDBFCF91DF911F910F91FF90DF9040
:10391000CF90BF90AF90089587E891E060E00E945B
:10392000A1078AE891E060E00E94A1078DE891E09C
:1039300060E00E94A10780E991E06FEF0E94A1077B
:1039400060E070E080E090E0089585E791E06FE44A
:1039500071E00E9421088AE491E048E853E160E0C8
:1039600070E00E94D30282E191E040E855E260E01D
:1039700070E00E94C9038CE19DE10E94C4072CE025
:1039800088E190E00FB6F894A895809360000FBE90
:103990002093600008951F920F920FB60F9211248A
:1039A0002F933F934F935F936F937F938F939F9347
:1039B000AF93BF93EF93FF93E0913401F091350102
:1039C000608182E191E00E94AC04FF91EF91BF9190
:1039D000AF919F918F917F916F915F914F913F91A7
:1039E0002F910F900FBE0F901F9018951F920F925E
:1039F0000FB60F9211242F933F934F935F936F93C2
:103A00007F938F939F93AF93BF93EF93FF9382E145
:103A100091E00E947904FF91EF91BF91AF919F9146
:103A20008F917F916F915F914F913F912F910F9067
:103A30000FBE0F901F901895682F82E191E00E94B1
:103A4000020408951F920F920FB60F9211242F9324
:103A50003F934F935F936F937F938F939F93AF9316
:103A6000BF93EF93FF9381E191E00E949B0BFF9145
:103A7000EF91BF91AF919F918F917F916F915F91E6
:103A80004F913F912F910F900FBE0F901F9018955F
:103A90001F920F920FB60F9211242F933F934F93C3
:103AA0005F936F937F938F939F93AF93BF93EF93A6
:103AB000FF9381E091E00E949B0BFF91EF91BF91FA
:103AC000AF919F918F917F916F915F914F913F91B6
:103AD0002F910F900FBE0F901F9018951F920F926D
:103AE0000FB60F9211242F933F934F935F936F93D1
:103AF0007F938F939F93AF93BF93EF93FF9381EF48
:103B000090E00E949B0BFF91EF91BF91AF919F912D
:103B10008F917F916F915F914F913F912F910F9076
:103B20000FBE0F901F9018951F920F920FB60F9215
:103B300011242F933F934F935F936F937F938F93B2
:103B40009F93AF93BF93EF93FF9381EE90E00E941A
:103B50009B0BFF91EF91BF91AF919F918F917F91BF
:103B60006F915F914F913F912F910F900FBE0F90EA
:103B70001F9018951F920F920FB60F9211242F933A
:103B80003F934F935F936F937F938F939F93AF93E5
:103B9000BF93EF93FF9381ED90E00E949B0BFF9109
:103BA000EF91BF91AF919F918F917F916F915F91B5
:103BB0004F913F912F910F900FBE0F901F9018952E
:103BC0001F920F920FB60F9211242F933F934F9392
:103BD0005F936F937F938F939F93AF93BF93EF9375
:103BE000FF9381EC90E00E949B0BFF91EF91BF91BE
:103BF000AF919F918F917F916F915F914F913F9185
:103C00002F910F900FBE0F901F9018951F920F923B
:103C10000FB60F9211242F933F934F935F936F939F
:103C20007F938F939F93AF93BF93EF93FF938DE712
:103C300091E00E947D0BFF91EF91BF91AF919F9119
:103C40008F917F916F915F914F913F912F910F9045
:103C50000FBE0F901F9018951F920F920FB60F92E4
:103C600011242F933F934F935F936F937F938F9381
:103C70009F93AF93BF93EF93FF938FE491E00E94E4
:103C80007D0BFF91EF91BF91AF919F918F917F91AC
:103C90006F915F914F913F912F910F900FBE0F90B9
:103CA0001F9018951F920F920FB60F9211242F9309
:103CB0003F934F935F936F937F938F939F93AF93B4
:103CC000BF93EF93FF9381E291E00E947D0BFF9100
:103CD000EF91BF91AF919F918F917F916F915F9184
:103CE0004F913F912F910F900FBE0F901F901895FD
:103CF0001F920F920FB60F9211242F933F934F9361
:103D00005F936F937F938F939F93AF93BF93EF9343
:103D1000FF938FE491E00E948C0BFF91EF91BF9194
:103D2000AF919F918F917F916F915F914F913F9153
:103D30002F910F900FBE0F901F901895629FD0018A
:103D4000739FF001829FE00DF11D649FE00DF11D56
:103D5000929FF00D839FF00D749FF00D659FF00D05
:103D60009927729FB00DE11DF91F639FB00DE11DF2
:103D7000F91FBD01CF0111240895AA1BBB1B51E1FE
:103D800007C0AA1FBB1FA617B70710F0A61BB70BCB
:103D9000881F991F5A95A9F780959095BC01CD0170
:103DA0000895A1E21A2EAA1BBB1BFD010DC0AA1F7C
:103DB000BB1FEE1FFF1FA217B307E407F50720F094
:103DC000A21BB30BE40BF50B661F771F881F991F0F
:103DD0001A9469F760957095809590959B01AC0158
:103DE000BD01CF01089597FB092E05260ED057FD82
:103DF00004D0D7DF0AD0001C38F450954095309598
:103E000021953F4F4F4F5F4F0895F6F7909580955E
:103E1000709561957F4F8F4F9F4F0895EE0FFF1F55
:0C3E20000590F491E02D0994F894FFCF78
:103E2C00C307230320000000000043032000000010
:103E3C00000002010A0100000000005102FFFFA96E
:103E4C0000AC00D41A1C1D0000000000C000C10012
:103E5C00C400C500C600B500020400008000B80014
:103E6C00BB000000800094009700DB010200008082
:103E7C000000009D00780584030000000000000095
:103E8C00000000800000009A007805840300000008
:103E9C000000000000930102000000000000000080
:103EAC0000000000000000BE000070000073000065
:103EBC007600004D01610100127A00401F080003DA
:023ECC000600EE
:00000001FF
