S01B0000617474696E793835526574726F4C69746554782E737265639D
S11300000EC01DC094C07FC074C055C018C018C0B5
S113001048C083C05AC063C012C011C010C01124AC
S11300201FBECFE5D2E0DEBFCDBF10E0A0E6B0E05A
S113003001C01D92A036B107E1F7E8D007C1E0CFB7
S11300401F920F920FB60F9211242F933F934F9349
S11300505F938F939F93EF93FF93E8E3F0E08081A6
S1130060877F808380818061808320E137E248EC50
S113007050E0CA010197F1F721503040D1F7E8E38D
S1130080F0E0808188608083FF91EF919F918F9150
S11300905F914F913F912F910F900FBE0F901F9042
S11300A018951F920F920FB60F9211240F900FBE46
S11300B00F901F9018951F920F920FB60F92112454
S11300C00F900FBE0F901F9018951F920F920FB6AE
S11300D00F9211240F900FBE0F901F9018951F922E
S11300E00F920FB60F9211240F900FBE0F901F9016
S11300F018951F920F920FB60F9211240F900FBEF6
S11301000F901F9018951F920F920FB60F92112403
S11301100F900FBE0F901F9018951F920F920FB65D
S11301200F9211240F900FBE0F901F9018951F92DD
S11301300F920FB60F9211242F933F934F935F9317
S11301408F939F93EF93FF93B29B18C0E8E3F0E083
S11301508081877F8083808190E18927808320E16B
S113016037E248EC50E0CA010197F1F721503040E2
S1130170D1F7E8E3F0E0808188608083FF91EF911C
S11301809F918F915F914F913F912F910F900FBE4F
S11301900F901F901895A8E3B0E01C92E7E3F0E0FD
S11301A0108280818E7F808380818D7F8083808197
S11301B08B7F80838081886080838081806180835D
S11301C08C91877F8C938C918F7E8C930895E5E33B
S11301D0F0E0808184608083EBE5F0E080818062E0
S11301E08083E5E5F0E080818A6A808378940895CD
S11301F0E3E2F0E080818083E8E2F0E080818860DF
S11302008083E4E3F0E0808180830895F1DFC3DF3D
S1130210DEDFE8E3F0E08081877F808380818F7E6A
S1130220808320E137E248EC50E0CA010197F1F7FE
S113023021503040D1F7E8E3F0E08081886080838A
S1130240E5E5F0E0808180628083FCCFF894FFCF05
S9030000FC
