:1000000012C02CC02BC02AC029C028C027C026C0BF
:1000100025C024C023C035C467C420C01FC01EC073
:100020001DC01CC01BC011241FBECFE5D4E0DEBF25
:10003000CDBF10E0A0E6B0E0E8E0FAE002C0059035
:100040000D92AA3EB107D9F722E0AAEEB0E001C0B6
:100050001D92AA31B207E1F772D0D4C4D1CF8F92EA
:100060009F92AF92BF92CF92DF92EF92FF921F9337
:10007000CF93DF9399233CF490958095709561958B
:100080007F4F8F4F9F4F6B017C012AE030E040E0B3
:1000900050E07AD4C0E3C60F84E6C816D104E10468
:1000A000F1048CF0C701B60124E630E040E050E0F6
:1000B0006BD4CA01B9012AE030E040E050E064D4DA
:1000C00010E3160F01C010E28AE0C816D104E10463
:1000D000F104A4F00F2EFAE08F2E912CA12CB12C5C
:1000E000F02DC701B601A50194014ED4CA01B90192
:1000F000A501940149D4D0E3D60F01C0D0E2812FED
:100100002ED48D2F2CD48C2F2AD4DF91CF911F91F8
:10011000FF90EF90DF90CF90BF90AF909F908F9027
:100120000895CF93DF93EC018881882329F02196ED
:1001300016D489918111FCCFDF91CF91089589E187
:1001400090E0F9D38FE19EE40197F1F700C0000041
:100150000F2EF3E0AF2EF02D0F2EF8E3CF2ED12C83
:10016000F02D6894EE24E1F808E310E021E048E384
:1001700050E060E088E390E098D28FE19EE4019740
:10018000F1F700C0000078948CE0E9D38FE19EE4A1
:100190000197F1F700C0000087E790E0C2DF9FE71A
:1001A0002AE186E0915020408040E1F700C0000045
:1001B0009FE72AE186E0915020408040E1F700C0AF
:1001C00000009FE72AE186E0915020408040E1F75F
:1001D00000C000009FE72AE186E091502040804067
:1001E000E1F700C000009FE72AE186E0915020403F
:1001F0008040E1F700C000009FE72AE186E09150CF
:1002000020408040E1F700C000008DE790E089DFEA
:100210009FE72AE186E0915020408040E1F700C04E
:1002200000009FE72AE186E0915020408040E1F7FE
:1002300000C000009FE72AE186E091502040804006
:10024000E1F700C000009FE72AE186E091502040DE
:100250008040E1F700C0000015D2FAD29FE72AE102
:1002600086E0915020408040E1F700C000009FE709
:100270002AE186E0915020408040E1F700C0000074
:100280009FE72AE186E0915020408040E1F700C0DE
:1002900000009FE72AE186E0915020408040E1F78E
:1002A00000C000008CE05BD38FE19EE40197F1F782
:1002B00000C0000082E890E034DF9FE72AE186E09A
:1002C000915020408040E1F700C000009FE72AE104
:1002D00086E0915020408040E1F700C000009FE799
:1002E0002AE186E0915020408040E1F700C0000004
:1002F0009FE72AE186E0915020408040E1F700C06E
:100300000000C0D18CE02BD38FE19EE40197F1F780
:1003100000C0000080E090E4A2D2882319F088E8B1
:1003200090E0FFDE80E090E29AD2882319F082E923
:1003300090E0F7DE80E090E892D2882319F08AE915
:1003400090E0EFDE80E090E18AD2882319F082EA23
:1003500090E0E7DE80E098E082D2882319F08CEA12
:1003600090E0DFDE80E092E07AD2882319F080EB23
:1003700090E0D7DE80E094E072D2882319F084EB1D
:1003800090E0CFDE80E091E06AD2882319F088EB1C
:1003900090E0C7DE88E090E062D2882319F08CEB11
:1003A00090E0BFDE81E090E05AD2882319F083EC20
:1003B00090E0B7DE80E190E052D2882319F08BEC18
:1003C00090E0AFDE80E490E04AD2882319F08FEC11
:1003D00090E0A7DE80E890E042D2882319F085ED16
:1003E00090E09FDE80E290E03AD2882319F08BED16
:1003F00090E097DE82E090E032D2882319F082EE1E
:1004000090E08FDE84E090E02AD2882319F086EE17
:1004100090E087DE80E091E022D2882341F180E005
:1004200092E01DD2882319F18DE099D282E597D20E
:1004300088E595D28AE393D285E090E01DD2682FBB
:1004400070E080E090E00BDE80E289D282E587D226
:1004500089E585D28AE383D286E090E00DD2682FC9
:1004600070E080E090E0FBDD80E279D222C08DE098
:1004700076D28CE474D288E572D28AE370D287E0B7
:1004800090E0FAD1682F70E080E090E0E8DD80E253
:1004900066D28CE464D289E562D28AE360D288E0D5
:1004A00090E0EAD1682F70E080E090E0D8DD80E253
:1004B00056D29FEF21EE84E0915020408040E1F73A
:1004C00000C000001ECFCF93DF93A82F20E030E0C4
:1004D00080E041E050E0B0E0E0911101F0911201C4
:1004E0009081BA010090020102C0660F771F0A9442
:1004F000E2F7609569236083922FBD01022E02C04E
:10050000759567950A94E2F760FF10C0E0910F01BE
:10051000F09110016081EA010090010102C0CC0F4E
:10052000DD1F0A94E2F7C62BC08310C0E0910F01D3
:10053000F09110016081EA010090010102C0CC0F2E
:10054000DD1F0A94E2F7C095C623C08363E06A9575
:10055000F1F70000E0911101F0911201C081BA01A0
:100560000090020102C0660F771F0A94E2F76C2B1D
:100570006083E0910B01F0910C01608170E00090CC
:10058000FF0002C0759567950A94E2F760FF07C007
:10059000BA0102C0660F771F9A95E2F7862B93E0A7
:1005A0009A95F1F700002F5F3F4F2830310509F091
:1005B00093CFE0911101F0911201908141E050E060
:1005C0009A010090020102C0220F331F0A94E2F741
:1005D000292B2083DF91CF9108950F931F93CF9301
:1005E000DF93062FE0910D01F0910E01608121E073
:1005F00030E0A9010090000102C0440F551F0A9489
:10060000E2F7409546234083E0910F01F0911001FD
:100610006081A9010090010102C0440F551F0A9496
:10062000E2F7462B4083E0911101F09112014081E5
:100630000090020102C0220F331F0A94E2F7242B1C
:100640002083002349F0C82FD92F10E088813BDF99
:1006500089931F5F1013FACFE0910D01F0910E0105
:10066000408121E030E0C9010090000102C0880F04
:10067000991F0A94E2F7842B8083DF91CF911F9119
:100680000F91089581E08093EA0082E48093EB006B
:10069000ECEEF0E08FEF90E01192E817F907E1F748
:1006A00065E18AEE90E099DF08952F923F924F9294
:1006B0005F926F927F928F929F92AF92BF92CF92F2
:1006C000DF92EF92FF920F931F93CF93DF93CDB7FB
:1006D000DEB767970FB6F894DEBF0FBECDBF180127
:1006E00090931401809313015093120140931101D0
:1006F0001093100100930F01D0920E01C0920D01D2
:100700008C010150110910930A01009309013A016B
:1007100031E0631A7108709208016092070141018B
:10072000A1E08A1A91089092060180920501B1E039
:10073000CB1AD108D0920401C0920301DC011297B8
:10074000B0930C01A0930B0120930201E0920101F0
:10075000A09200016093FF00F3017081A1E0B0E07E
:100760002D0102C0440C551C2A95E2F79201372F47
:10077000322B3083F60130812D0102C0440C551C10
:10078000AA94E2F75201A32AA082F40130812D013C
:1007900002C0440C551CEA94E2F7720134293083FC
:1007A000F801708102C0AA0FBB1F6A95E2F73A2FC9
:1007B000309537233083FC016081A62BA083DA01BA
:1007C0008C91282B2C93F1018081E82AE0825ADF5A
:1007D00085E0E0E6F0E0DE01119601900D928A9549
:1007E000E1F765E0CE010196F8DE89E0E5E6F0E0AC
:1007F000DE01169601900D928A95E1F769E0CE012F
:100800000696EBDE89E0EEE6F0E0DE011F96019051
:100810000D928A95E1F769E0CE010F96DEDE6796CC
:100820000FB6F894DEBF0FBECDBFDF91CF911F9101
:100830000F91FF90EF90DF90CF90BF90AF909F907F
:100840008F907F906F905F904F903F902F90089582
:100850008091ED009091EE00809590950895209103
:10086000ED003091EE00209530952823392381E06A
:10087000232B09F480E0089586519F4FFC0180816D
:1008800008951F920F920FB60F9211242F933F934A
:100890004F935F938F939F93EF93FF934BB15CB113
:1008A00048718091170190E001968F7799272091E8
:1008B000160130E02817390739F080931701FC0141
:1008C000E65EFE4F508301C042E040931501FF9168
:1008D000EF919F918F915F914F913F912F910F9049
:1008E0000FBE0F901F9018951F920F920FB60F9288
:1008F00011248F939F93EF93FF939091190180910F
:100900001801981771F08091180190E001968F7787
:10091000992780931801FC01E656FE4F80818CB91F
:1009200001C05598FF91EF919F918F910F900FBE4D
:100930000F901F90189510921901109218011092A3
:1009400017011092160199231CF422E02BB99F770E
:1009500090BD89B988E98AB986E880BD089540913B
:10096000190150E04F5F5F4F4F77552720911801D5
:1009700030E024173507D1F3FA01E656FE4F8083A5
:1009800040931901559A0895052E97FB16F400948B
:100990000FD057FD05D014D007FC02D046F408C094
:1009A00050954095309521953F4F4F4F5F4F08959B
:1009B00090958095709561957F4F8F4F9F4F0895CB
:1009C000A1E21A2EAA1BBB1BFD010DC0AA1FBB1F53
:1009D000EE1FFF1FA217B307E407F50720F0A21BC5
:1009E000B30BE40BF50B661F771F881F991F1A9432
:1009F00069F760957095809590959B01AC01BD015C
:080A0000CF010895F894FFCF27
:100A0800014300010001440001030000000001430C
:100A180000005A5A5A5A5A4772656720005245448C
:100A280020007374617274005820427574746F6E7C
:100A38002000436972636C652000537175617265AB
:100A48002000547269616E676C6520005231200085
:100A5800523220004C3120004C3220005374617215
:100A680074200053656C6563742000555020004461
:100A78004F574E20004C4546542000524947485491
:0A0A880020004C3320005233200000
:00000001FF
