S016000061746D656761313638426C696E6B2E7372656310
S11300000C9434000C9446000C9446000C94460066
S11300100C9446000C9446000C9446000C94460044
S11300200C9446000C9446000C9446000C94460034
S11300300C9446000C9446000C9446000C94460024
S11300400C9446000C9446000C9446000C94460014
S11300500C9446000C9446000C9446000C94460004
S11300600C9446000C94460011241FBECFEFD4E03C
S1130070DEBFCDBF21E0A0E0B1E001C01D92A03001
S1130080B207E1F70E9448000C9459000C94000058
S11300902198229A199902C02A9A01C02A982FEF0E
S11300A081EE94E0215080409040E1F700C00000D0
S10900B0F1CFF894FFCF2C
S9030000FC
