:1000000012C02CC02BC02AC029C028C027C026C0BF
:1000100025C024C023C04EC021C020C01FC01EC0A8
:100020001DC01CC01BC011241FBECFE5D4E0DEBF25
:10003000CDBF11E0A0E6B0E0E6E3FCE102C0059030
:100040000D92A239B107D9F712E0A2E9B1E001C0DF
:100050001D92AD30B107E1F74ED6EBCDD1CFDF9396
:10006000CF9300D0CDB7DEB79A8389838FEF80938B
:10007000C8018091C8018093C70180E490E0298184
:100080003A81232F3327FC01208389E290E02981E4
:10009000FC01208380E490E026E8FC0120838AE2D2
:1000A00090E028E8FC01208378940F900F90CF9186
:1000B000DF9108951F920F920FB60F9211242F9384
:1000C0003F938F939F93EF93FF93DF93CF930F9281
:1000D000CDB7DEB78CE290E0FC018081898380910E
:1000E000C8018F3321F48091C701882381F080916A
:1000F000C801992787FD90959C012F5F3F4F809104
:10010000C701992787FD90952817390759F48091E1
:10011000C7018F5F8093C7018091C701803411F4BC
:100120001092C7018091C8018F3319F41092C80151
:1001300005C08091C8018F5F8093C8018091C8017C
:10014000992787FD909587539E4F2981FC01208335
:100150008091C7018F3F11F41092C7010F90CF918A
:10016000DF91FF91EF919F918F913F912F910F9090
:100170000FBE0F901F901895DF93CF930F92CDB7BE
:10018000DEB78091C7018F3F11F480E024C08091D9
:10019000C701992787FD909587539E4FFC01808169
:1001A00089839091C7018091C801981741F48FEF1E
:1001B0008093C8018091C8018093C7010BC08091D2
:1001C000C7018F5F8093C7018091C701803411F40C
:1001D0001092C70189810F90CF91DF9108950F93FD
:1001E0001F93DF93CF93CDB7DEB72F970FB6F89459
:1001F000DEBF0FBECDBF8F8700008BE290E0FC0119
:100200008081882F90E0807290700097B1F38CE22B
:1002100090E02F85FC01208380E090E0A0E8BFE320
:1002200089839A83AB83BC8369817A818B819C812A
:1002300020E030E04AEF54E43FD8DC01CB018D836D
:100240009E83AF83B88711E06D817E818F81988511
:1002500020E030E040E85FE37AD988230CF010E03A
:10026000112329F081E090E09A87898742C011E04C
:100270006D817E818F81988520E03FEF4FE757E4C5
:1002800010D918160CF010E0112351F169817A8110
:100290008B819C8120E030E040E251E40DD8DC010C
:1002A000CB01BC01CD0146D6DC01CB019A87898701
:1002B00012C088EC90E09C878B878B859C858C0195
:1002C000C8010197F1F78C011C870B8789859A85F6
:1002D00001979A87898789859A85009751F716C073
:1002E0006D817E818F81988525D6DC01CB019A872F
:1002F000898789859A859E878D878D859E858C01C6
:10030000F8013197F1F78F011E870D872F960FB6F1
:10031000F894DEBF0FBECDBFCF91DF911F910F913B
:100320000895DF93CF93CDB7DEB78091C7018F3F9C
:1003300011F480E021C09091C7018091C801981705
:1003400054F48091C801982F8091C701292F281B50
:10035000822F8F5F11C09091C7018091C8018917CA
:1003600054F48091C801982F8091C701292F281B30
:10037000822F8F5B01C081E0CF91DF910895DF93E1
:10038000CF9300D0CDB7DEB79A8389830AC0898125
:100390009A81FC01808123DF89819A8101969A8369
:1003A000898389819A81FC018081882381F70F905C
:1003B0000F90CF91DF910895DF93CF930F92CDB738
:1003C000DEB789838EEF0BDF898109DF0F90CF9134
:1003D000DF910895DF93CF930F92CDB7DEB7898376
:1003E0008EEFFDDE89E3FBDE8981F9DE0F90CF9190
:1003F000DF910895DF93CF9300D0CDB7DEB7898327
:100400006A838EEFECDE87E4EADE8981E8DE8A81AA
:10041000E6DE0F900F90CF91DF910895DF93CF9399
:10042000CDB7DEB788E390E028E330E0F901208122
:10043000276CFC01208387E390E027E330E0F9019B
:1004400020812660FC012083CF91DF910895DF9306
:10045000CF93CDB7DEB789E190E001DE8AE892E084
:100460009093C4018093C30182E593E090930C02C2
:1004700080930B0280E093E09093C2018093C101CE
:1004800084EF91E09093C0018093BF0184EA91E0F2
:1004900090930A028093090285EA91E09093C60145
:1004A0008093C501109292011092930110929401D1
:1004B0001092950183E38EDF88E57EDF88E47CDFA0
:1004C000CF91DF910895DF93CF93CDB7DEB78FE45F
:1004D00090E02FE430E0F9012081206AFC012083C4
:1004E0008EE490E02EE430E0F90120812261FC01ED
:1004F000208386E490E020E137E2FC013183208311
:100500008CE490E0FC0111821082CF91DF9108957C
:100510000F931F93DF93CF93CDB7DEB76E970FB6D0
:10052000F894DEBF0FBECDBF9E8F8D8F4EC18AE483
:1005300090E02091C3013091C401FC0131832083FC
:1005400088E490E02091C3013091C401FC01318323
:1005500020838091C5019091C601CC01A0E0B0E05C
:10056000BC01CD016ED8DC01CB0189839A83AB83BA
:10057000BC8369817A818B819C8120E030E04AEFE5
:1005800054E49AD6DC01CB018D839E83AF83B88778
:1005900011E06D817E818F81988520E030E040E818
:1005A0005FE3D5D788230CF010E0112329F081E018
:1005B00090E09A87898742C011E06D817E818F81AA
:1005C000988520E03FEF4FE757E46BD718160CF003
:1005D00010E0112351F169817A818B819C8120E0A7
:1005E00030E040E251E468D6DC01CB01BC01CD0132
:1005F000A1D4DC01CB019A87898712C088EC90E0F6
:100600009C878B878B859C858C01C8010197F1F7AE
:100610008C011C870B8789859A8501979A87898722
:1006200089859A85009751F716C06D817E818F81EB
:10063000988580D4DC01CB019A87898789859A8542
:100640009E878D878D859E858C01F8013197F1F706
:100650008F011E870D878AE490E02091C1013091BF
:10066000C201FC013183208388E490E02091C10124
:100670003091C201FC0131832083809192019091DD
:100680009301A0919401B09195010196A11DB11D16
:100690008093920190939301A0939401B09395015C
:1006A00022E635E08091920190919301A09194010E
:1006B000B0919501BC01CD01F90109958091BF016F
:1006C0009091C001CC01A0E0B0E0BC01CD01B9D750
:1006D000DC01CB018F87988BA98BBA8B6F857889CA
:1006E00089899A8920E030E04AEF54E4E5D5DC01BD
:1006F000CB018B8B9C8BAD8BBE8B11E06B897C8986
:100700008D899E8920E030E040E85FE320D7882390
:100710000CF010E0112329F081E090E0988F8F8B8E
:1007200042C011E06B897C898D899E8920E03FEF72
:100730004FE757E4B6D618160CF010E0112351F12C
:100740006F85788989899A8920E030E040E251E418
:10075000B3D5DC01CB01BC01CD01ECD3DC01CB0175
:10076000988F8F8B12C088EC90E09A8F898F898D3B
:100770009A8D8C01C8010197F1F78C011A8F098FAE
:100780008F89988D0197988F8F8B8F89988D00977F
:1007900051F716C06B897C898D899E89CBD3DC018A
:1007A000CB01988F8F8B8F89988D9C8F8B8F8B8DA2
:1007B0009C8D8C01F8013197F1F78F011C8F0B8F05
:1007C0008D8D9E8D01979E8F8D8F8D8D9E8D009727
:1007D00009F0ADCE6E960FB6F894DEBF0FBECDBF5A
:1007E000CF91DF911F910F9108950F931F93DF9386
:1007F000CF93CDB7DEB76E970FB6F894DEBF0FBEBE
:10080000CDBF9E8F8D8F4EC18AE490E020910B0268
:1008100030910C02FC013183208388E490E0209128
:100820000B0230910C02FC0131832083809109027C
:1008300090910A02CC01A0E0B0E0BC01CD0101D74B
:10084000DC01CB0189839A83AB83BC8369817A8184
:100850008B819C8120E030E04AEF54E42DD5DC010F
:10086000CB018D839E83AF83B88711E06D817E813C
:100870008F81988520E030E040E85FE368D68823E8
:100880000CF010E0112329F081E090E09A8789872D
:1008900042C011E06D817E818F81988520E03FEF1D
:1008A0004FE757E4FED518160CF010E0112351F174
:1008B00069817A818B819C8120E030E040E251E4C3
:1008C000FBD4DC01CB01BC01CD0134D3DC01CB0175
:1008D0009A87898712C088EC90E09C878B878B85EC
:1008E0009C858C01C8010197F1F78C011C870B874F
:1008F00089859A8501979A87898789859A8500973E
:1009000051F716C06D817E818F81988513D3DC01EC
:10091000CB019A87898789859A859E878D878D8562
:100920009E858C01F8013197F1F78F011E870D87A5
:100930008AE490E02091C1013091C201FC01318331
:10094000208388E490E02091C1013091C201FC0134
:10095000318320838091920190919301A091940121
:10096000B09195010196A11DB11D809392019093C4
:100970009301A0939401B093950122E635E0809114
:10098000920190919301A0919401B0919501BC01C5
:10099000CD01F90109958091BF019091C001CC0171
:1009A000A0E0B0E0BC01CD014CD6DC01CB018F87CB
:1009B000988BA98BBA8B6F85788989899A8920E071
:1009C00030E04AEF54E478D4DC01CB018B8B9C8B74
:1009D000AD8BBE8B11E06B897C898D899E8920E06F
:1009E00030E040E85FE3B3D588230CF010E011233A
:1009F00029F081E090E0988F8F8B42C011E06B89E5
:100A00007C898D899E8920E03FEF4FE757E449D5E7
:100A100018160CF010E0112351F16F85788989893F
:100A20009A8920E030E040E251E446D4DC01CB0179
:100A3000BC01CD017FD2DC01CB01988F8F8B12C01E
:100A400088EC90E09A8F898F898D9A8D8C01C801EE
:100A50000197F1F78C011A8F098F8F89988D019773
:100A6000988F8F8B8F89988D009751F716C06B895F
:100A70007C898D899E895ED2DC01CB01988F8F8B1A
:100A80008F89988D9C8F8B8F8B8D9C8D8C01F8011D
:100A90003197F1F78F011C8F0B8F8D8D9E8D0197F4
:100AA0009E8F8D8F8D8D9E8D009709F0ADCE6E96A9
:100AB0000FB6F894DEBF0FBECDBFCF91DF911F916F
:100AC0000F910895DF93CF9300D000D0CDB7DEB75C
:100AD00069837A838B839C8388E56EDC88E46CDC95
:100AE00089819A81AB81BC8127E931E0BC01CD01CC
:100AF000A9012AE030E039D887E991E040DC81E0C3
:100B000062E078DC80E690E03ADC0F900F900F9086
:100B10000F90CF91DF910895DF93CF93CDB7DEB7DC
:100B200088E54ADC88E448DC89E790E028DC81E05D
:100B300062E060DC81E890E022DCCF91DF910895F3
:100B4000DF93CF93CDB7DEB788E536DC88E434DCBD
:100B500087E991E014DC81E062E04CDC89E690E01A
:100B60000EDCCF91DF9108950F931F93DF93CF9306
:100B7000CDB7DEB72E970FB6F894DEBF0FBECDBF50
:100B80008091920190919301A0919401B09195016F
:100B9000803A26E8920721E0A20720E0B20708F099
:100BA00081C085E090E0B4DC85E090E01EDE80E06E
:100BB00090E0AAEFB3E489839A83AB83BC83698115
:100BC0007A818B819C8120E030E04AEF54E474D339
:100BD000DC01CB018D839E83AF83B88711E06D81EB
:100BE0007E818F81988520E030E040E85FE3AFD4DC
:100BF00088230CF010E0112329F081E090E09A871F
:100C0000898742C011E06D817E818F81988520E0C7
:100C10003FEF4FE757E445D418160CF010E01123CE
:100C200051F169817A818B819C8120E030E040E242
:100C300051E442D3DC01CB01BC01CD017BD1DC010D
:100C4000CB019A87898712C088EC90E09C878B87BC
:100C50008B859C858C01C8010197F1F78C011C875D
:100C60000B8789859A8501979A87898789859A85CF
:100C7000009751F735C06D817E818F8198855AD15B
:100C8000DC01CB019A87898789859A859E878D8724
:100C90008D859E858C01C8010197F1F78C011E8717
:100CA0000D871EC088E588DB88E486DB8091920191
:100CB00090919301A0919401B091950127E931E0C1
:100CC000BC01CD01A9012AE030E04FD787E991E0CE
:100CD00056DB81E062E08EDB80E790E050DBFFCF07
:100CE0002E960FB6F894DEBF0FBECDBFCF91DF9129
:100CF0001F910F9108950F931F93DF93CF93CDB75B
:100D0000DEB76C970FB6F894DEBF0FBECDBF9FDB8A
:100D1000DADB84DB80E090E0AAEFB3E489839A8396
:100D2000AB83BC8369817A818B819C8120E030E038
:100D30004AEF54E4C1D2DC01CB018D839E83AF83A3
:100D4000B88711E06D817E818F81988520E030E049
:100D500040E85FE3FCD388230CF010E0112329F076
:100D600081E090E09A87898742C011E06D817E81A1
:100D70008F81988520E03FEF4FE757E492D3181614
:100D80000CF010E0112351F169817A818B819C81F3
:100D900020E030E040E251E48FD2DC01CB01BC0125
:100DA000CD01C8D0DC01CB019A87898712C088ECBD
:100DB00090E09C878B878B859C858C01C80101976F
:100DC000F1F78C011C870B8789859A8501979A8793
:100DD000898789859A85009751F716C06D817E8134
:100DE0008F819885A7D0DC01CB019A878987898577
:100DF0009A859E878D878D859E858C01F801319718
:100E0000F1F78F011E870D8787DE80E090E4ACE963
:100E1000B5E48F87988BA98BBA8B6F857889898980
:100E20009A8920E030E04AEF54E446D2DC01CB015D
:100E30008B8B9C8BAD8BBE8B11E06B897C898D89F4
:100E40009E8920E030E040E85FE381D388230CF006
:100E500010E0112329F081E090E0988F8F8B42C041
:100E600011E06B897C898D899E8920E03FEF4FE7F7
:100E700057E417D318160CF010E0112351F16F85C9
:100E8000788989899A8920E030E040E251E414D2DF
:100E9000DC01CB01BC01CD014DD0DC01CB01988F31
:100EA0008F8B12C088EC90E09A8F898F898D9A8DF4
:100EB0008C01C8010197F1F78C011A8F098F8F8976
:100EC000988D0197988F8F8B8F89988D009751F708
:100ED00018C06B897C898D899E892CD0DC01CB015F
:100EE000988F8F8B8F89988D9C8F8B8F8B8D9C8DFE
:100EF0008C01F8013197F1F78F011C8F0B8F01C026
:100F0000000086E390E0FC018081882F90E08170F2
:100F10009070882359F080919601882389F710DE1C
:100F2000809196018F5F80939601EBCF109296018E
:100F30001BDEE7CFEF92FF920F931F937B018C0193
:100F400020E030E040E05FE4D7D287FD0FC0C80169
:100F5000B70120E030E040E05FE483D123D39B0180
:100F6000AC01205030404040504805C0C801B70196
:100F700019D39B01AC01B901CA011F910F91FF90D8
:100F8000EF900895A0E0B0E0E7ECF7E0BBC5FC010E
:100F9000EA018081823008F438C1DB019C919230F3
:100FA00008F430C1843059F4943009F02EC1918195
:100FB00011968C911197981709F021C126C1943090
:100FC00009F420C19230B1F4823009F01EC1CA0187
:100FD000AF0128E0DA010D90AD01DC010D92CD01E9
:100FE0002150C1F7DB0111968C91119791818923D2
:100FF00089830AC1823009F405C1C280D380DB0134
:1010000012966D907C90139724813581468157818B
:101010001496ED90FD900D911C911797C6018619BD
:1010200097095C0197FF04C0AA24BB24A81AB90A37
:10103000B0E2AB16B1040CF061C0181619066CF5DD
:10104000370148010A2C04C09694879477946794DA
:101050000A94D2F781E090E0A0E0B0E00A2C04C04E
:10106000880F991FAA1FBB1F0A94D2F70197A109E5
:10107000B1098E219F21A023B123EE24FF248701F3
:10108000E3940097A105B10519F4EE24FF2487012C
:10109000E628F728082919293CC00097D1F1CA0C85
:1010A000DB1C39014A010A2C04C09694879477947A
:1010B00067940A94D2F781E090E0A0E0B0E00A2CB7
:1010C00004C0880F991FAA1FBB1F0A94D2F701976B
:1010D000A109B10982239323A423B52321E030E0A1
:1010E00040E050E00097A105B10519F420E030E0A0
:1010F000A90126293729482959290BC06C147D04D8
:1011000024F4EE24FF24870104C0630120E030E0D2
:10111000A9018181FB019181891709F445C08823C8
:1011200049F0D801C701821B930BA40BB50B9C019E
:10113000AD0104C02E193F09400B510B57FD04C0EF
:101140001982DB82CA820BC081E08983DB82CA827A
:1011500050954095309521953F4F4F4F5F4F2C83D1
:101160003D834E835F830DC0880F991FAA1FBB1F4D
:101170008C839D83AE83BF838A819B8101979B83F0
:101180008A838C819D81AE81BF819C01AD012150FC
:101190003040404050402F3FEFEF3E07EFEF4E070B
:1011A000EFE35E0708F30BC08983DB82CA822E0D52
:1011B0003F1D401F511F2C833D834E835F8383E07F
:1011C00088832C813D814E815F8157FF1DC0DA01EC
:1011D000C90181709070A070B07056954795379591
:1011E0002795822B932BA42BB52B8C839D83AE83C9
:1011F000BF838A819B8101969B838A8305C0E9E82E
:10120000F0E003C0FB0101C0FE01CF01CDB7DEB7A6
:10121000EEE094C4A0E2B0E0EFE0F9E07BC46983C3
:101220007A838B839C832D833E834F83588789E009
:10123000E82EF12CEC0EFD1ECE010196B7019CD3D9
:101240008E010F5E1F4FCE010596B80195D3C701E1
:10125000B801AE01475E5F4F95DEC1D2A096E6E0D1
:1012600075C4A0E2B0E0E6E3F9E054C469837A8390
:101270008B839C832D833E834F8358878E01075F2A
:101280001F4FCE010196B80177D391E1E92EF12CE1
:10129000EC0EFD1ECE010596B7016ED38A8991E052
:1012A00089278A8BC801B701AE01475E5F4F6ADEAE
:1012B00096D2A096E6E04AC4A0E2B0E0E1E6F9E00A
:1012C0001DC469837A838B839C832D833E834F83E4
:1012D0005887CE010196BE01675F7F4F4DD3CE0187
:1012E0000596BE016F5E7F4F47D39985923078F0A7
:1012F00089898230C0F0943019F4823041F4CBC037
:10130000843019F4923079F4C6C0923051F481E0FF
:101310002A859A89291709F480E08A87CE010996DF
:10132000BCC0823051F481E02A859A89291709F4DA
:1013300080E08A8BCE014196B0C06D847E848F841C
:101340009888ED88FE880F89188DE0E2F0E080E053
:1013500090E0DC01AA24BB24650120E030E0A90173
:10136000B3016170707061157105D1F02E0D3F1DD4
:10137000401F511F15012601280E391E4A1E5B1EF3
:1013800081E090E0A0E0B0E02E153F054007510756
:1013900018F080E090E0DC01820D931DA41DB51DC6
:1013A000AA0CBB1CCC1CDD1C17FF09C061E0262E5B
:1013B000312C412C512CA228B328C428D528319790
:1013C00049F0EE0CFF1C001F111F96948794779430
:1013D0006794C6CF6B897C89EB85FC856E0F7F1F78
:1013E0006E5F7F4F7C8F6B8F61E0EA857A89E717AC
:1013F00009F460E06A8F6B8D7C8D10C0FC01E17098
:10140000F070309729F05695479537952795506895
:10141000B695A795979587956F5F7F4FB7FDEECFF0
:101420000CC0880F991FAA1FBB1F57FD8160220F98
:10143000331F441F551F615070408030E0E09E070D
:10144000E0E0AE07E0E4BE0760F36B8F7C8F6FE7F0
:10145000E62EF12C012D112DE822F9220A231B235F
:1014600060E4E616F1040105110561F487FD0AC088
:10147000211531054105510529F0805C9F4FAF4F83
:10148000BF4F80788D8F9E8FAF8FB8A383E0898FF9
:10149000CE01499602C089E890E0A1D1A096E2E190
:1014A00049C3A8E1B0E0E6E5FAE034C369837A8392
:1014B0008B839C832D833E834F8358878E01075FE8
:1014C0001F4FCE010196B80157D281E1E82EF12CD1
:1014D000EC0EFD1ECE010596B7014ED289858230F5
:1014E00038F08989823020F0C801B701AED201C03E
:1014F0008FEF6896E6E02AC3A8E1B0E0E1E8FAE001
:1015000009C369837A838B839C832D833E834F83B6
:1015100058878E01075F1F4FCE010196B8012CD26C
:1015200081E1E82EF12CEC0EFD1ECE010596B701EF
:1015300023D28985823038F08989823020F0C80131
:10154000B70183D201C08FEF6896E6E0FFC2A8E141
:10155000B0E0ECEAFAE0DEC269837A838B839C8395
:101560002D833E834F8358878E01075F1F4FCE0127
:101570000196B80101D281E1E82EF12CEC0EFD1E9E
:10158000CE010596B701F8D18985823038F0898976
:10159000823020F0C801B70158D201C081E06896BE
:1015A000E6E0D4C2ACE0B0E0E7EDFAE0B7C26983B0
:1015B0007A838B839C83CE010196BE016B5F7F4F44
:1015C000DBD18D81823081F1823070F1843021F461
:1015D0008E81882369F10AC02F81388537FD24C0A8
:1015E0006E812F3131053CF0662311F120E030E0AF
:1015F00040E050E821C08EE190E0821B930B2985EA
:101600003A854B855C8504C0569547953795279557
:101610008A95D2F7662381F05095409530952195B3
:101620003F4F4F4F5F4F08C020E030E0A90104C09A
:101630002FEF3FEF4FEF5FE7B901CA012C96E2E0D1
:1016400089C2A8E0B0E0E6E2FBE062C27B018C0167
:101650001A82611571058105910519F482E089836B
:101660005EC083E089838EE1C82ED12CDC82CB82E0
:10167000ED82FE820F831887C801B70156D0FC01A6
:101680003197F7FF3AC0AA27BB27AE1BBF0B21E05B
:1016900030E040E050E00A2E04C0220F331F441F08
:1016A000551F0A94D2F721503040404050402E211F
:1016B0003F214023512361E070E080E090E021155C
:1016C00031054105510519F460E070E0CB0104C01B
:1016D00016950795F794E794AA95D2F7E62AF72A84
:1016E000082B192BED82FE820F8318878EE190E084
:1016F0008E1B9F0B9C838B8312C0309781F00E2E24
:1017000004C0EE0CFF1C001F111F0A94D2F7ED82DB
:10171000FE820F831887CE1ADF0ADC82CB82CE01CD
:1017200001965DD02896E8E00FC2AF92BF92CF92AB
:10173000DF92EF92FF920F931F937B018C0180E069
:10174000E81680E0F80681E0080780E0180758F402
:10175000EFEFEE16F1040105110509F090F480E0B9
:1017600090E0DC0117C0F0E0EF16F0E0FF06F0E0DB
:101770000F07F1E01F0750F480E190E0A0E0B0E037
:1017800009C088E090E0A0E0B0E004C088E190E00B
:10179000A0E0B0E020E230E040E050E0281B390B50
:1017A0004A0B5B0B5701680104C0D694C794B794E9
:1017B000A7948A95D2F7D601C5018F569F4FFC0199
:1017C0008081281B310941095109C9011F910F91DD
:1017D000FF90EF90DF90CF90BF90AF900895EF9281
:1017E000FF920F931F93CF93DF93FC0124813581E8
:1017F0004681578161818081823020F44061EFEF22
:10180000F0E0A3C0843009F49BC0823009F492C098
:10181000211531054105510509F48FC00280F3817E
:10182000E02D8FEFE238F8070CF05AC0C2E8DFEF86
:10183000CE1BDF0BCA31D1056CF579018A010C2E64
:1018400004C016950795F794E7940A94D2F781E0BF
:1018500090E0A0E0B0E00C2E04C0880F991FAA1FF2
:10186000BB1F0A94D2F70197A109B10982239323E0
:10187000A423B52321E030E040E050E00097A1052B
:10188000B10519F420E030E0A9012E293F29402BB1
:10189000512B03C020E030E0A901DA01C9018F77A4
:1018A0009070A070B07080349105A105B10539F435
:1018B00027FF09C0205C3F4F4F4F5F4F04C0215CA2
:1018C0003F4F4F4F5F4FE1E0F0E0203080E03807BE
:1018D00080E0480780E4580728F5E0E0F0E022C007
:1018E000E038F1056CF5E158FF4FDA01C9018F7757
:1018F0009070A070B07080349105A105B10539F4E5
:1019000027FF09C0205C3F4F4F4F5F4F04C0215C51
:101910003F4F4F4F5F4F57FF05C05695479537953F
:101920002795319687E056954795379527958A955F
:10193000D1F70BC0E0E0F0E005C0E0E0F0E005C06A
:10194000EFEFF0E020E030E0A9018E2F87958827A7
:101950008795942F9F77679566276795E695E22E82
:10196000A92FA82BFE2FF62B622F732F8A2F9F2FC4
:10197000CDB7DEB7E6E0EAC0DC01FB012C911196A1
:101980003C91119712968C911297482F4F7750E007
:10199000982F991F9927991F13966C911397862F4B
:1019A000880F892B90E0661F6627661F618300976A
:1019B00039F5211531054105510511F482E029C0A1
:1019C00082E89FEF9383828367E0220F331F441FD7
:1019D000551F6A95D1F783E0808309C0220F331F1A
:1019E000441F551F82819381019793838283203006
:1019F00080E0380780E0480780E4580778F320C08B
:101A00008F3F910579F4211531054105510519F4F0
:101A100084E08083089544FF03C081E0808310C088
:101A200010820EC08F5790409383828383E080831F
:101A300087E0220F331F441F551F8A95D1F750644A
:101A400024833583468357830895FC01DB0190810D
:101A5000923008F449C08C91823008F445C094302B
:101A600051F461818430B1F511962C91119730E0D9
:101A7000261B310941C0843021F0923041F482307C
:101A8000B1F111968C9111978823A1F12DC061813C
:101A9000823001F111968C9111976817D9F4228147
:101AA000338112968D919C9113978217930794F02E
:101AB00028173907BCF02481358146815781149657
:101AC0008D919D910D90BC91A02D82179307A40735
:101AD000B50718F4662341F00DC0281739074A07E7
:101AE0005B0728F4662331F021E030E005C020E0F8
:101AF00030E002C02FEF3FEFC90108952F923F92CF
:101B00004F925F926F927F928F929F92AF92BF920D
:101B1000CF92DF92EF92FF920F931F93CF93DF93B9
:101B2000CDB7DEB7CA1BDB0B0FB6F894DEBF0FBE16
:101B3000CDBF09942A88398848885F846E847D8463
:101B40008C849B84AA84B984C884DF80EE80FD8065
:101B50000C811B81AA81B981CE0FD11D0FB6F894DB
:101B6000DEBF0FBECDBFED010895FA01CF93FF9305
:101B7000EF9322303CF125322CF5C22FE894CA3085
:101B800049F497FB3EF490958095709561957F4F51
:101B90008F4F9F4F2C2F332744275527FF93EF93C9
:101BA00026D0EF91FF91605D6A330CF0695D61931F
:101BB000B901CA01605070408040904059F716F456
:101BC000CDE2C19310828F919F91CF9100C0DC0133
:101BD000FC01672F71917723E1F7329704C07C9164
:101BE0006D9370836291AE17BF07C8F30895A1E2A9
:101BF0001A2EAA1BBB1BFD010DC0AA1FBB1FEE1F87
:101C0000FF1FA217B307E407F50720F0A21BB30BD1
:101C1000E40BF50B661F771F881F991F1A9469F74D
:101C200060957095809590959B01AC01BD01CF01A9
:061C30000895F894FFCFB7
:101C3600312F34205475726E0050617573656400DF
:101C460046696E697368656400466174696775659F
:101C56000052492054657374000000000000000023
:101C66000000010202030303030404040404040441
:101C7600040505050505050505050505050505050F
:101C860005060606060606060606060606060606EF
:101C960006060606060606060606060606060606DE
:101CA60006070707070707070707070707070707BF
:101CB60007070707070707070707070707070707AE
:101CC600070707070707070707070707070707079E
:101CD600070707070707070707070707070707078E
:101CE600070808080808080808080808080808086F
:101CF600080808080808080808080808080808085E
:101D0600080808080808080808080808080808084D
:101D1600080808080808080808080808080808083D
:101D2600080808080808080808080808080808082D
:101D3600080808080808080808080808080808081D
:101D4600080808080808080808080808080808080D
:101D560008080808080808080808080808080808FD
:021D6600080073
:00000001FF
